S00D000044726F6E652E737265631F
S1130000F4C0000011C100000FC100000DC10000C8
S11300100BC1000009C1000007C1000005C10000B8
S113002003C1000001C10000FFC00000FDC00000CA
S1130030FBC00000F9C000000C94D5130C9402140A
S11300400C942F140C945C140C9489140C94B61412
S11300500C94E3140C9410150C943D150C946A152F
S1130060E3C000000C9427110C945D11DDC0000066
S1130070DBC00000D9C00000D7C00000D5C000001C
S1130080D3C00000D1C00000CFC00000CDC000002C
S1130090CBC00000C9C00000C7C00000C5C000003C
S11300A0C3C00000C1C00000BFC00000BDC000004C
S11300B0BBC00000B9C00000B7C000000C94A51676
S11300C00C94D2160C94FF160C942C170C945917FC
S11300D00C948617A9C00000A7C00000A5C00000AA
S11300E0A3C00000A1C000009FC000009DC000008C
S11300F09BC0000099C0000097C0000095C000009C
S113010093C0000091C000008FC000008DC00000AB
S11301108BC0000089C0000087C0000085C00000BB
S113012083C0000081C000007FC000007DC00000CB
S11301307BC000000C9497150C94C4150C94F11515
S11301400C941E160C944B160C9478166DC000007B
S11301506BC0000069C0000067C0000065C00000FB
S113016063C0000061C000005FC000005DC000000B
S11301705BC0000059C0000057C0000055C000001B
S113018053C0000051C000004FC000004DC000002B
S11301904BC0000049C0000047C0000045C000003B
S11301A00C94C92041C000003FC000003DC00000C5
S11301B00C94B3170C94E0170C940D180C943A1883
S11301C00C9467180C9494184445425547205541A3
S11301D0525420494E49543A200042414400474F6A
S11301E04F4400000E060C04000011241FBECFEF84
S11301F0DFE2DEBFCDBF19E2A0E0B0E2E2EFF2E45D
S113020000E00BBF02C007900D92A830B107D9F7E8
S11302102BE2A8E0B9E201C01D92AA39B207E1F7C6
S11302200E941B1E0C947721EBCE68E079E280E0FB
S113023092E00E9481124EE059E261E080E092E097
S11302400E94BB12E8E0F9E29081A9E0B9E28C9146
S11302508F7C80628C93917E908310920A2986E031
S11302608383BF0180E092E00C943E12803148F019
S113027010920E298051880F880F880F80930F29C0
S113028008C091E090930E29880F880F880F8093FF
S11302900F294EE059E261E080E092E00E94A11251
S11302A09FB7F894809100028460809300029FBFFE
S11302B080910602982F917080FFFACF90930602E6
S11302C02091240230912502C901089580E092E032
S11302D00C942712AF92BF92DF92EF92FF920F938A
S11302E01F93CF93DF9380E4A82E86E0B82E52E0CC
S11302F0D50115965C93159711965C931197E0EBD5
S1130300F0E0508390E2F92E5096FC92509701E071
S113031012960C931297008328E1E22E5096EC92E9
S113032020E036E018E0E9011A831083188AC0E25D
S1130330D6E05A835083E88AFA82F082E88A1A83E4
S11303401083E88AD90112965C93129750835096D1
S1130350EC9250971296FC921297F0825096EC927F
S1130360509764E06A836083E88A40E112964C9374
S1130370129740835096EC92509770E812967C93B3
S1130380129770835096EC9280EA96E0DC01129604
S11303906C931297608350964C9350971296FC92EC
S11303A01297F0825096EC92509712967C93129783
S11303B070835096EC9250976894DD24D6F8129688
S11303C0DC921297D0825096EC92D90112966C93DB
S11303D01297608350964C9350974A834083488B7E
S11303E00A830083188A1296DC921297D082509660
S11303F01C927A837083188ADA82D082188AA0E8E1
S1130400B6E015960C93159711960C9311970083EB
S113041050961C925097EC010D8309830083188A2F
S113042016964C93169712964C93129740835096B7
S11304301C92509711965C931197508350961C927E
S1130440509715961C93159711961C93119710832A
S113045050961C92509715966C93159712966C9320
S11304601297608350961C9250971696FC9216979A
S11304701196FC921197F08250961C9250975D83CE
S113048059835083188A80E696E0EC010D83098332
S11304900083188A5D8359835083188AE5011D837C
S11304A019831083188A6D836A836083188A15966A
S11304B07C93159711967C931197708350961C9298
S11304C0DC0115961C93159711961C9311971083B4
S11304D050961C92509712966C9312976083509684
S11304E01C92509712967C931297708350964C935B
S11304F04A834083488BFA82F082488BDA82D08226
S1130500488B7A837083488BDF91CF911F910F9131
S1130510FF90EF90DF90BF90AF9008956150710904
S113052081099109D9F7089540EF59E462E070E038
S11305308EED9AE20E943D1040E060E080E00E946F
S113054002100E94A21188E0C7D0C82F89E0C4D04D
S1130550882369F0CC2359F06AEA70EB88E290E0D2
S1130560DDDF61E089E790E00E94D512FFCF8EEDD8
S11305709AE20E9456108823C1F08EED9AE20E94FE
S1130580831040E060E080E00E9402108091DB2A4A
S1130590881F8827881F9091DC2A9F73990F982BB6
S11305A081E009F480E00E94220F80E095D0882346
S11305B031F082E30E94E40FC9E3D0E236C081E067
S11305C08BD08111F6CF82E087D08111F2CF83E006
S11305D083D08111EECF84E07FD08111EACF85E012
S11305E07BD08111E6CF86E077D08111E2CF87E01E
S11305F073D08111DECF88E06FD08111DACF89E02A
S11306006BD08111D6CF8BE067D08111D2CF8AE035
S113061063D08111CECF8DE05FD08111CACF8CE041
S11306205BD0882309F4C8CFC4CFFE013197808101
S11306301DDE7C0188811ADE8C018DEAE8168DE0CE
S1130640F80618F082E30E94DC0F0D3A1D4018F002
S113065082E30E94F30F2E9680E2C535D80729F76E
S11306606BCF80E00E94B30F40E060E080E00E9426
S1130670021040E060E082E30E9402106AEA76E43D
S113068080E190E04BDF40E060E080E00E940210F7
S11306906AEA76E480E190E041DF40E060E082E3F2
S11306A00E9402106AEA76E480E190E037DF40E0DD
S11306B060E080E00E9402106AEA76E480E190E063
S11306C02DDF40E060E082E30E9402106AEA76E4F3
S11306D080E190E023DF28DF94E0899FF00111247A
S11306E0E050F04E8081A82FA695A695A69590E29D
S11306F0A99FD0011124BA5F18962C91382F377016
S113070081E090E0032E01C0880F0A94EAF72823C1
S1130710938181E0222319F0911103C001C091114A
S113072080E0089580931129909312290C94281D38
S1130730CF93209111293091122990E049E0489FEC
S1130740F001499FF00D1124E20FF31F613011F401
S1130750C68101C0C481CC2399F18C2F0E94590E0B
S113076081EA0E94901C81E00E94901C80E00E941B
S1130770901C80E00E94901C8C2F0E94901C80E0B2
S11307800E94901C80E00E94901C80E00E94901CBB
S113079080E00E94901C80E00E94901C81EA0E94EC
S11307A0901C81E00E94901C80E00E94901C80E0DC
S11307B00E94901CC6E080E00E94901CC150D9F7B2
S11307C0CF910895FC016083718345831282148262
S11307D0828183830895FC019FB7F89424818581E5
S11307E0281790F48281A081B181A80FB11D6C9368
S11307F08F5F828384818F5F848322818581281720
S113080028F0128281E003C080E001C081E09FBF34
S11308100895FC019FB7F89484818823A1F0838113
S1130820A081B181A80FB11D2C91DB012C938F5FA6
S1130830838384818150848323818581281728F0D0
S1130840138281E003C080E001C081E09FBF08956E
S1130850CF92DF92EF92FF920F931F93CF93DF9388
S11308601F92CDB7DEB78C01F62EC62ED72EEC2CF8
S1130870EF18E41650F4B601C8014983CADF9FEFAC
S1130880C91AD90A49818111F2CF8E2D0F90DF91B7
S1130890CF911F910F91FF90EF90DF90CF9008952B
S11308A0CF93FC013FB7F89483819481941710F49B
S11308B0248101C0242F90E00DC0A081B181A80F34
S11308C0B11D5C91552351F08F5F5581851708F058
S11308D080E09F5F9213F1CF80E001C081E03FBFD1
S11308E0292F30E02F5F3F4FA42FB0E0C1E02A173B
S11308F03B070CF0C0E0C82321F0492F4F5FCF0124
S1130900A7DF8C2FCF91089580E090E00196853584
S113091020ED9207D9F70895FB01DA01982F9F7013
S11309209C9382958F7080838C918A301CF0895AB5
S11309308C9302C0805D8C9380818A301CF0895A2C
S113094080830895805D808308958062606281362B
S113095014F0875501C08053982F9295907F862F6D
S113096061361CF08755890F08958053890F0895C7
S113097061E08DE690E20C94FC10FADFC5DF0C9484
S11309801115F6DFC1DF61E089E790E00E94D5121E
S1130990FFCF83E199E289D1EBDF10921B290895FF
S11309A00F931F93CF93DF9300D0CDB7DEB783E1CE
S11309B099E274D103E119E2AE014F5F5F4FBE01CA
S11309C06E5F7F4FF80181918F01A6DF8A810E94BB
S11309D0EB1089810E94EB10F9E20B311F0761F7DC
S11309E080E00E94EB10C4DF10921B290F900F903F
S11309F0DF91CF911F910F91089561E080E790E21C
S1130A000C94FC10FC018081882329F06181662309
S1130A1011F092819111F1CF98DF6CE179E255D117
S1130A20A7DF1092C7290895FF920F931F93CF93C6
S1130A30DF93EC01A82FBD2FFD0101900020E9F701
S1130A403197EA1BFB0BFE2EE0FD04C01091C72971
S1130A5000E013C0DF91CF911F910F91FF90CDCF94
S1130A60FE01E00FF11D618180816FDFE12FF0E075
S1130A70E45EF64D80830E5F1F5F0F1528F0109320
S1130A80C7290F11E7CF03C01B3A50F3F8CFDF910A
S1130A90CF911F910F91FF906BCFFC018081882330
S1130AA029F06181662311F092819111A6CF4DDF67
S1130AB08093C7295DCF0F931F93CF93DF9300D00B
S1130AC0CDB7DEB7FC018081882331F061816623D4
S1130AD019F09281992311F090DF20C036DF6CE188
S1130AE079E2EAD00CE119E2AE014F5F5F4FBE013B
S1130AF06E5F7F4FF80181918F010EDF8A810E9422
S1130B00EB1089810E94EB10F9E2073C1F0761F7A3
S1130B1080E00E94EB102CDF1092C7290F900F90F9
S1130B20DF91CF911F910F910895EF92FF920F9350
S1130B301F93CF93DF938C01FC0101900020E9F710
S1130B403197E81BF90BEE2EE0FD05C0F0901B2950
S1130B50C0E0D0E014C0DF91CF911F910F91FF90BE
S1130B60EF904BCFF801EC0FFD1F61818081EDDE2A
S1130B70EF2DF0E0ED5EF64D8083F39422968C2FFA
S1130B80CE1528F0F0921B298E11E5CF04C097E012
S1130B909F1540F7F7CFDF91CF911F910F91FF90F1
S1130BA0EF90E6CEFC018081882329F061816623E1
S1130BB011F09281911121CFC8DE80931B29D8CEE8
S1130BC0AF92BF92CF92DF92EF92FF920F931F9357
S1130BD0CF93DF93CDB7DEB7C354D109CDBFDEBF0A
S1130BE060E4CE0101960E942111882309F447C0D4
S1130BF089818E010F5B1F4FF80180839A81918355
S1130C001282992787FD90958D589F4D0E94690EF9
S1130C109DEBC92E90E2D92EE12CF12C5801F6015E
S1130C2000811181B501C8010E946E210097A9F4C9
S1130C308BE790E20E945E0EC8010E94690EF701E4
S1130C40EE0FFF1FEE0FFF1FE354FF4D0280F381F1
S1130C50E02DCE010396099512C0FFEFEF1AFF0AAB
S1130C6084E0C80ED11CEAE0EE16F104C1F68AE86D
S1130C7090E20E945E0EC5010E94690EBEDECD5B4D
S1130C80DF4FCDBFDEBFDF91CF911F910F91FF905A
S1130C90EF90DF90CF90BF90AF90089548E050E080
S1130CA0BC0180E090E00C94F01248E050E0BC01FC
S1130CB080E090E00C948F1320EC829FC0011124FB
S1130CC04BEA50E080960C94F01220EC829FC00115
S1130CD011244BEA50E080960C948F13CF93C82FC5
S1130CE08A3021F485EE90E2F4D7BBDC86ED9AE2FB
S1130CF0D5DF8091DB2A84FF3DC061EC75E280E0A2
S1130D00E4DF6BE674E281E0E0DF6CE071E282E054
S1130D10DCDF6CE676E283E0D8DF66E175E284E04E
S1130D20D4DF6FEB71E285E0D0DF67E177E286E044
S1130D30CCDF6AE672E287E0C8DF65E173E288E04F
S1130D40C4DF60EC73E289E0C0DF88E0E7EBF1E246
S1130D50A6EDBAE201900D928A95E1F78091DB2A23
S1130D608F7E8093DB2A86ED9AE29FDF0E94061D28
S1130D700E94EB1C8AEE90E2A1D78C2F805D99D75C
S1130D8083E098E29BD76FEE7AE28C2FCF9194CFD9
S1130D908530F9F068F4823031F128F48823C9F001
S1130DA0813081F51BC0833019F1843059F525C099
S1130DB08830C9F028F4863089F0873019F518C0D6
S1130DC08930D9F08A30F1F440E060E080E00C949E
S1130DD0021041E060E080E00C94021040E060E02A
S1130DE081E00C94021040E061E080E00C94021079
S1130DF040E061E081E00C94021041E060E081E0B9
S1130E000C9402100895CF9389E066DC81112BC005
S1130E1084E062DC811129C085E05EDC811127C099
S1130E2086E05ADC811125C087E056DC811123C09D
S1130E308AE052DC811121C081E04EDC81111FC0A7
S1130E4083E04ADC81111DC082E046DC81111BC0B5
S1130E5043DC81111AC08BE03FDC811118C0C091C2
S1130E60DB2ACF7015C0CAE013C0C0E011C0C1E0D6
S1130E700FC0C2E00DC0C3E00BC0C4E009C0C5E0B0
S1130E8007C0C6E005C0C8E003C0C7E001C0C9E0B0
S1130E908C2F7EDF8C2FCF9108958093C829909357
S1130EA0C9290C942E1D8091CA299091CB29A09117
S1130EB0CC29B091CD294091D2295091D329609168
S1130EC0D4297091D52984179507A607B707C1F4CB
S1130ED03091CE292091D629321312C03091CF29D6
S1130EE02091D72932130CC03091D0292091D829D0
S1130EF0321306C03091D1292091D9293217E1F15A
S1130F004091CE295091CF296091D0297091D12957
S1130F104093D6295093D7296093D8297093D9291F
S1130F208093D2299093D329A093D429B093D5291F
S1130F3081EA0E94901C84E00E94901C80E00E9440
S1130F40901C8091CE290E94901C8091CF290E94F0
S1130F50901C8091D0290E94901C8091D1290E94DC
S1130F60901C88E00E94901C8091CA290E94901CC9
S1130F708091CB290C94901C08959EE0899FD00108
S1130F801124A85CBF4D282F30E0E6E18E9FC001FC
S1130F90112481589F4FE091C829F091C929E80F85
S1130FA0F91F12968D919C911397681B790B1496D7
S1130FB08D919C911597481B590B828993898617AB
S1130FC097071CF4681B790B0CC0AA27BB27A81B26
S1130FD0B90B6A177B071CF4680F791F02C060E025
S1130FE070E084899589841795071CF4481B590B74
S1130FF00CC0EE27FF27E81BF90B4E175F071CF404
S1131000480F591F02C040E050E061388FEF780765
S113101014F461E87FEF41389FEF590714F441E875
S11310205FEF220F331FF901E253F64D603871056B
S113103014F06FE770E06083F901E153F64D403836
S1131040510514F04FE750E040832DCF613001F596
S113105041E050E060E070E004C0440F551F661F9B
S1131060771F8A95D2F78091CA299091CB29A091B4
S1131070CC29B091CD29842B952BA62BB72B80930B
S1131080CA299093CB29A093CC29B093CD2925C00C
S1131090611123C041E050E060E070E004C0440FFF
S11310A0551F661F771F8A95D2F740955095609516
S11310B070958091CA299091CB29A091CC29B091A7
S11310C0CD2984239523A623B7238093CA299093FB
S11310D0CB29A093CC29B093CD29E5CE8093DA29EE
S11310E09093DB2981E091E2F4D50C94311D809139
S11310F0DC299091DD29A091DE29B091DF2940916E
S1131100E4295091E5296091E6297091E729841733
S11311109507A607B707C1F43091E0292091E82983
S1131120321312C03091E1292091E92932130CC005
S11311303091E2292091EA29321306C03091E32943
S11311402091EB293217E1F14091E0295091E129F6
S11311506091E2297091E3294093E8295093E929A9
S11311606093EA297093EB298093E4299093E5290D
S1131170A093E629B093E72981EA0E94901C84E0B9
S11311800E94901C80E00E94901C8091E0290E94A3
S1131190901C8091E1290E94901C8091E2290E9478
S11311A0901C8091E3290E94901C88E00E94901C6E
S11311B08091DC290E94901C8091DD290C94901C64
S11311C00895CF93DF932EE0829FE0011124C85C41
S11311D0DF4DA82FB0E026E1829FC0011124815881
S11311E09F4FE091DA29F091DB29E80FF91F8A81FA
S11311F09B81681B790B8C819D81481B590B8289CB
S11312009389861797071CF4681B790B0CC0222757
S11312103327281B390B621773071CF4680F791FD7
S113122002C060E070E084899589841795071CF4F6
S1131230481B590B0CC022273327281B390B421794
S113124053071CF4480F591F02C040E050E077FFD9
S113125002C0615F7F4FE4E075956795EA95E1F719
S1131260962F872F57FF02C0415F5F4F64E055956B
S113127047956A95E1F7642F452F292F382F213898
S11312808FEF380714F421E83FEF862F942F81382D
S11312904FEF940714F481E89FEFAA0FBB1FFD01E1
S11312A0E052F64D2038310514F02FE730E020836A
S11312B0AF51B64D8038910514F08FE790E08C93D0
S11312C0DF91CF9114CF613001F541E050E060E04F
S11312D070E004C0440F551F661F771F8A95D2F72C
S11312E08091DC299091DD29A091DE29B091DF293C
S11312F0842B952BA62BB72B8093DC299093DD2987
S1131300A093DE29B093DF2925C0611123C041E0F9
S113131050E060E070E004C0440F551F661F771F63
S11313208A95D2F740955095609570958091DC2907
S11313309091DD29A091DE29B091DF2984239523A2
S1131340A623B7238093DC299093DD29A093DE297B
S1131350B093DF29CCCE8093EC299093ED290C94A3
S1131360281D2F923F924F925F926F927F928F929D
S11313709F92AF92BF92CF92DF92EF92FF920F9320
S11313801F93CF93DF93CDB7DEB76197CDBFDEBF99
S11313900091F2291091F3292091F4293091F52933
S11313A06130C1F441E050E060E070E004C0440FFB
S11313B0551F661F771F8A95D2F7402B512B622B3E
S11313C0732B4093F2295093F3296093F42970937B
S11313D0F5291DC061111BC041E050E060E070E0E0
S11313E004C0440F551F661F771F8A95D2F7409596
S11313F05095609570954023512362237323409345
S1131400F2295093F3296093F4297093F529C0903D
S1131410F229D090F329E090F429F090F5298090F6
S1131420EC299090ED29A12CB12C612C712C99E020
S1131430592ED701C6010A2C04C0B695A7959795D5
S113144087950A94D2F780FF25C05A9C80015B9C43
S1131450100D11240F5F1F4F080D191DF801818114
S113146083FD18C04580442091F0472D50E0642D41
S113147070E0CE0101960E945821892B41F4E1E0ED
S1131480F0E0EC0FFD1FE70DF11D40827394F801AD
S11314908481682AFDE0AF16B10461F58090EC29DF
S11314A09090ED29C4018F579F4F8F839887F40143
S11314B0ED57FF4FE987FA87C4018B579F4F8B87FE
S11314C09C87F401E957FF4FED87FE87C4018956D5
S11314D09F4F8F87988B140199E9290E311C2401A1
S11314E0EBE94E0E511CFDE98F0E911C8EE0A82EE7
S11314F0B12C59C08FEFA81AB80A95E0971508F0D7
S113150098CFCCCFD701C6010A2C04C0B695A795B5
S1131510979587950A94D2F780FF3EC02231B1F0A7
S113152030F4203169F078F42F30C9F406C0243146
S113153091F078F0253199F410C009851A8511C00D
S11315400B851C850EC00D851E850BC00F85188963
S113155008C0810106C0820104C0840102C00F8159
S11315601885F80121812223A1F0472D50E0622F34
S113157070E0CE010196298B0E9458212989892B7C
S113158041F4E1E0F0E0EC0FFD1FE70DF11D2083D5
S11315907394F8018081682AFFEFAF1ABF0A86E1CD
S11315A0A816B10429F02A2D95E0971508F0AACFC2
S11315B081EA0E94901C81E00E94901C80E00E94BD
S11315C0901C862D0E94901C8E010F5F1F4FF12CE2
S11315D0F71428F4F80180810E94901C03C080E075
S11315E00E94901CF3940F5F1F4FF6E0FF12F0CFA0
S11315F06196CDBFDEBFDF91CF911F910F91FF9018
S1131600EF90DF90CF90BF90AF909F908F907F909E
S11316106F905F904F903F902F900895DF92EF92DC
S1131620FF920F931F93CF93DF938A01E82EF12C3F
S113163096E1899F9001112421583F4FC091EC29D4
S1131640D091ED29C20FD31F988196FF79C0D82E6F
S1131650DD0CDD0CD701A251B64D8C91833049F1DC
S1131660843019F0823089F518C08A859B85681703
S113167079073CF482E08C9361E08D2D805F71DE0C
S113168026C08C859D85861797070CF583E08C937F
S113169061E08D2D8F5E65DE1AC02A853B85261795
S11316A03707ACF484E08C9360E08D2D805F59DEC5
S11316B00EC02C853D85621773074CF484E08C932F
S11316C060E08D2D8F5E4DDE02C084E08C938D2D05
S11316D0825FF701E051F64D90819130E9F098F086
S11316E0943061F52E853F85021713071CF4108290
S11316F061E01CC028893989201731070CF581E085
S1131700808361E011C02E853F8520173107C4F422
S113171094E0908360E00AC028893989021713078E
S11317207CF484E0808360E08D2D815FDF91CF9134
S11317301F910F91FF90EF90DF9013CE84E0808390
S1131740DF91CF911F910F91FF90EF90DF9008955B
S113175008CE8093F6299093F7290E942B1D44E12B
S113176050E060E070E088EF99E287C42F923F92E6
S11317704F925F926F927F928F929F92AF92BF929D
S1131780CF92DF92EF92FF920F931F93CF93DF9349
S1131790CDB7DEB76197CDBFDEBF1092062A0091A8
S11317A0082A1091092A20910A2A30910B2A6130C3
S11317B0C1F441E050E060E070E004C0440F551F04
S11317C0661F771F8A95D2F7402B512B622B732B00
S11317D04093082A5093092A60930A2A70930B2A8B
S11317E01DC061111BC041E050E060E070E004C026
S11317F0440F551F661F771F8A95D2F74095509561
S11318006095709540235123622373234093082AE3
S11318105093092A60930A2A70930B2AC090082ACD
S1131820D090092AE0900A2AF0900B2A8090F62999
S11318309090F729A12CB12C612C712C99E0592E90
S1131840D701C6010A2C04C0B695A795979587952C
S11318500A94D2F780FF2DC05A9C80015B9C100D26
S113186011240F5F1F4F080D191DF801818183FD9D
S113187019C04580442091F0472D50E0642D70E05C
S1131880CE0101960E945821892B41F4E1E0F0E059
S1131890EC0FFD1FE70DF11D40827394F801848164
S11318A0682A07C0982F97708091062A892B809305
S11318B0062AFDE0AF16B10461F58090F6299090F8
S11318C0F729C4018F579F4F8F839887F401ED57F1
S11318D0FF4FE987FA87C4018B579F4F8B879C87FB
S11318E0F401E957FF4FED87FE87C40189569F4FE6
S11318F08F87988B140199E9290E311C2401EBE997
S11319004E0E511CFDE98F0E911C8EE0A82EB12CB9
S113191059C08FEFA81AB80A95E0971508F090CF30
S1131920CCCFD701C6010A2C04C0B695A7959795CC
S113193087950A94D2F780FF3EC02231B1F030F48B
S1131940203169F078F42F30C9F406C0243191F0C5
S113195078F0253199F410C009851A8511C00B85DA
S11319601C850EC00D851E850BC00F85188908C007
S1131970810106C0820104C0840102C00F81188560
S1131980F80121812223A1F0472D50E0622F70E05D
S1131990CE010196298B0E9458212989892B41F473
S11319A0E1E0F0E0EC0FFD1FE70DF11D20837394DF
S11319B0F8018081682AFFEFAF1ABF0A86E1A816F2
S11319C0B10429F02A2D95E0971508F0AACF81EAF1
S11319D00E94901C81E00E94901C80E00E94901C58
S11319E0862D0E94901C8E010F5F1F4FF12CF7145F
S11319F028F4F80180810E94901C03C080E00E94BA
S1131A00901CF3940F5F1F4FF6E0FF12F0CF619626
S1131A10CDBFDEBFDF91CF911F910F91FF90EF906B
S1131A20DF90CF90BF90AF909F908F907F906F90FA
S1131A305F904F903F902F900895DF92EF92FF9226
S1131A400F931F93CF93DF938A0146E1849F900104
S1131A50112421583F4FC091F629D091F729C20F84
S1131A60D31FE82EF12C9EE0899FD0011124A85C9D
S1131A70BF4D12965C91129713969C9113971496EE
S1131A804C9114971596EC91288126FD42C0252F80
S1131A90392F8A899B89D901A81BB90B6A177B073F
S1131AA02CF4821B930B860F971F08C0280F391F35
S1131AB02617370764F4CB01821B930B6EE670E0A4
S1131AC00E9403218091002A860F8093002A242FEC
S1131AD03E2F8C899D89A901481B590B04171507B2
S1131AE02CF4821B930B800F911F09C0280F391F00
S1131AF0201731070CF085C0C801821B930B6EE6DA
S1131B0070E00E9403218091012A860F8093012AAC
S1131B1078C0D82EDD0CDD0CD701AE5FB54D8C91AD
S1131B20833049F1843019F0823089F518C08A85F0
S1131B309B85681779073CF482E08C9361E08D2DD6
S1131B40805F14DE26C08C859D85861797070CF56B
S1131B5083E08C9361E08D2D8F5E08DE1AC02A85A8
S1131B603B8526173707ACF484E08C9360E08D2D19
S1131B70805FFCDD0EC02C853D85621773074CF435
S1131B8084E08C9360E08D2D8F5EF0DD02C084E0F4
S1131B908C938D2D825FF701EC5FF54D9081913030
S1131BA011F1B8F0943059F52E853F8502171307CB
S1131BB024F4108261E0DADD24C0288939892017F1
S1131BC03107FCF481E0808361E08D2D815FCEDDFF
S1131BD018C02E853F85201731079CF494E090832C
S1131BE060E0C4DD0EC028893989021713074CF45C
S1131BF084E0808360E08D2D815FB8DD02C084E0E5
S1131C0080838091002A81110BC08091012A811167
S1131C1007C09091062A8091072A981709F440C0BA
S1131C2088EF99E243D28823D9F144E150E060E09F
S1131C3070E088EF99E221D28091062A8093072AE6
S1131C4081EA0E94901C83E00E94901C8091062AE5
S1131C500E94901C8091002A0E94901C2091002ACE
S1131C60332727FD3095232F330F330B2F70332762
S1131C708091012A40E18402C0011124822B0E9438
S1131C80901C8091012A85958595859585950E945E
S1131C90901C80E00E94901C1092002A1092012A4D
S1131CA0DF91CF911F910F91FF90EF90DF900895F6
S1131CB05DCD682F80EA99E00C947819CF93DF9377
S1131CC0EC0101C0F6DF89918111FCCFDF91CF9146
S1131CD00895F4DF8DE0EDDF8AE0EBCFCF93DF935F
S1131CE0CDB7DEB72797CDBFDEBF87E0EFE5F0E2E3
S1131CF0DE01119601900D928A95E1F760E184E08E
S1131D0072D3E8ECF1E0849190E0D8DF1BD3BE01FC
S1131D106F5F7F4F80EA99E00E945D1A882331F05B
S1131D20EEEDF1E0849190E0D4DF05C0EAEDF1E05E
S1131D30849190E0CEDF2796CDBFDEBFDF91CF91B7
S1131D4008956150710981099109D9F70895E0E670
S1131D50F6E08085881F8827881F089540E060E0AA
S1131D6080E050D182E33FD160E07CE782E990E0FB
S1131D70E8DF82EC97E20E94B21C8EEC97E20E94AC
S1131D80B21C1BC040E060E082E33CD16AEA76E426
S1131D9080E190E0D6DF40E062E380E033D16AEA9C
S1131DA076E480E190E0CDDF42E360E080E02AD198
S1131DB06AEA76E480E190E0C4DF8091480687FF18
S1131DC0E1CF08958BDF80E0CED0809148068091EA
S1131DD048068091480680914806C0CF6150710939
S1131DE081099109D9F70895FF920F931F93CF9317
S1131DF0DF93CDB7DEB72897CDBFDEBFAC0160E07F
S1131E0070E08E010F5F1F4FC80137D10E94030796
S1131E10F82E05C088E00E946C03882349F0C801AD
S1131E2045D18823B9F38F2D0E946E0681E001C04D
S1131E3080E02896CDBFDEBFDF91CF911F910F9137
S1131E40FF9008957FD280E08ED20E94DA1C6AEA65
S1131E5070EA81E090E0C2DF789480914800817F4D
S1131E60846080934800809148008160809348009A
S1131E70889580ED97E0B8DF8823D1F380914800FE
S1131E808E7F8093480061E089E790E08ED3FFCF96
S1131E90CF92DF92EF92FF92CF93DF93EC0152D275
S1131EA080E061D2C1D06B017C018091A80682FDE3
S1131EB0FCCF65E570ED80E090E090DFCC0EDD1E98
S1131EC0E11CF11CB1D0C1E06C157D058E059F05A8
S1131ED008F0C0E081E047D235D28C2FDF91CF915A
S1131EE0FF90EF90DF90CF900895CF93C82F80EDAF
S1131EF097E0CEDF811102C08C2FA4DF81E0CF9167
S1131F000895CF93DF93EC012D813E81A62FB0E09D
S1131F100E94382124E630E040E050E00E9416217F
S1131F208A81E881F981E6FD11C08230B9F018F4A4
S1131F308130B1F410C0833019F0843089F403C0C7
S1131F4024AF35AF0DC026AF37AF0AC0813019F0CA
S1131F50823031F403C020AF31AF02C022AF33AFBF
S1131F60DF91CF91089580930C2A24EF31E042E071
S1131F7066E08DE09AE20E94141B24EF31E041E018
S1131F8062E084E19AE20E94141B24EF31E042E013
S1131F9062E08BE19AE20E94141B64E68DE09AE20F
S1131FA00E94BF1B64E684E19AE20E94BF1B64E6C0
S1131FB08BE19AE20C94BF1B853608F084E664E654
S1131FC0681B8DE09AE29DCF853608F084E69091F7
S1131FD00C2A64E6681B992319F08BE19AE291CFED
S1131FE084E19AE28ECF853608F084E690910C2A3B
S1131FF064E6681B992319F084E19AE282CF8BE1AD
S11320009AE27FCFCF93DF9300D0CDB7DEB74A8378
S11320106983D2DF6981862FD7DF4A81842F0F90AD
S11320200F90DF91CF91DFCF0F931F938FB7F89469
S11320300091242A1091252A2091262A3091272ABA
S11320408FBFB801C9011F910F9108952FB7F8945C
S11320508091242A9091252AA091262AB091272A9A
S11320600196A11DB11D8093242A9093252AA09343
S1132070262AB093272A2FBF0895CF92DF92EF929A
S1132080FF92CF93DF93EC016A017B01CDDF68837C
S113209079838A839B83CC82DD82EE82FF82DF9107
S11320A0CF91FF90EF90DF90CF9008950F931F93FF
S11320B0CF93DF93EC018C819D81AE81BF81892B0D
S11320C08A2B8B2BC1F0B0DF088119812A813B81D7
S11320D0601B710B820B930B41E050E00C811D815E
S11320E02E813F81601771078207930710F440E047
S11320F050E0CA0102C080E090E08170DF91CF918E
S11321001F910F910895FC01148215821682178283
S1132110089580E498E00C94C11880E498E00C944D
S1132120FC18E0E4F8E084858160848708950F93C7
S11321301F93CF93DF938C01ECDFC0E4D8E0888554
S11321408E6F88878981887F898318A219A280E08D
S11321509DE78EA39FA3E5DFB80180E498E00E9489
S113216037198E818C7F8E838E8181608E838881E6
S1132170807F81608883DF91CF911F910F91CDCFB4
S113218060E183E030D18AED97E298DDDBD064E54D
S113219070E280EA98E00E945D1A882321F08AEEBA
S11321A097E297DD03C08FEE97E293DD40E46EE2A1
S11321B07AE288E29AE20E94E20340E264E77AE289
S11321C08EE69AE20E94E2038091A3088F7C8061EC
S11321D08093A3080895CF93C82F6C2F8EE69AE2BC
S11321E00E94EB038823C9F38091A3088C7F81604C
S11321F08093A308CF9108950F931F93CF93DF93F8
S11322001F92CDB7DEB78C0103C06983E4DF698117
S1132210F80181918F018111F8CF662331F00F907D
S1132220DF91CF911F910F91D6CF0F90DF91CF9176
S11322301F910F91089560E0DFDF8DE0CCDF8AE02D
S1132240CACF462FBC0188E29AE20C9450041F9234
S11322500F920FB60F9211240BB60F922F933F9348
S11322604F935F936F937F938F939F93AF93BF939A
S1132270EF93FF936091A0086B3129F461E089E743
S113228090E093D1FFCF88E29AE20E94EB0380E8CA
S11322908093A108FF91EF91BF91AF919F918F918E
S11322A07F916F915F914F913F912F910F900BBE52
S11322B00F900FBE0F901F9018951F920F920FB69C
S11322C00F9211240BB60F922F933F934F935F936A
S11322D06F937F938F939F93AF93BF93EF93FF93EA
S11322E0CF93DF931F92CDB7DEB7BE016F5F7F4FF1
S11322F08EE69AE20E940904882321F08981809362
S1132300A00805C08091A3088C7F8093A3080F9038
S1132310DF91CF91FF91EF91BF91AF919F918F91F9
S11323207F916F915F914F913F912F910F900BBED1
S11323300F900FBE0F901F9018958AE00E948E1A7E
S11323400C94A41A83EF97E2B9DCA89508958091C0
S11323505B2090915C20009729F0019780935B208B
S113236090935C20EFCF81110C94A41A0C949D1AC5
S1132370882319F0823071F407C084E690E08093DA
S11323805B2090935C20089584E690E080935D2028
S113239090935E2008958FEF809370008093710076
S11323A0809372008093730080937400809375000F
S11323B0809376009FB7F894809150008260809358
S11323C050009FBF8091510081FFFCCF61E080E409
S11323D090E0EBD09FB7F894809150008E7F80936B
S11323E050009FBF08959FB7F894E82FF0E0E0599C
S11323F0FF4F60958081862380839FBF08959FB798
S1132400F894E82FF0E0E059FF4F8081862B808319
S11324109FBF08958115924059F48091942A982F72
S11324209F5F9093942A811103C062E081E0DBCF27
S113243008958115924051F48091942A815080939B
S1132440942A811103C062E081E0D9CF08951F93DB
S1132450CF93DF93EC011FB7F894DCDF88818160B0
S113246088831FBF9FB7F894E7EEFAE280818F5FFD
S113247080839FBFDF91CF911F910895FF920F93A7
S11324801F93CF93DF93EB0181159240A1F561E295
S113249070E082E080D1182F60E270E082E07BD1AE
S11324A0312F20E08901082BFFB6F89480E092E0F8
S11324B0B1DF20910002217082E08093000200933A
S11324C00C0210930D028C819D81809318029093CD
S11324D019028981809302028B81809304028A818C
S11324E0809303028881809301022093000280E09C
S11324F092E09FDFFFBEDF91CF911F910F91FF907C
S11325000895FF920F931F93CF93DF93EC018B01F8
S1132510FFB6F8947FDF888D998DF80184839583C5
S11325208A8181838C8183838B8182838981808367
S1132530CE017FDFFFBEDF91CF911F910F91FF90FE
S11325400895FF920F931F93CF93DF93EC018A01B9
S1132550FFB6F8945FDFF801808188A382818AA3A3
S1132560818189A3CE0165DFFFBEDF91CF911F91E9
S11325700F91FF900895FF920F931F93CF93DF93D2
S1132580EC018A01FFB6F89445DF88A1F801808345
S11325908AA1828389A18183CE014BDFFFBEDF91B3
S11325A0CF911F910F91FF9008951BBEFC0128ED60
S11325B024BF608308958091CF0187FDFCCF0895E7
S11325C01F93CF93DF93C0ECD1E01A858A8761E033
S11325D08BEC91E0EADF1A87DF91CF911F91089588
S11325E0EF92FF920F931F93CF93DF9300D000D00D
S11325F0CDB7DEB78C01CB014B835C8369839A83AF
S1132600DADF8CECE82EFF24F394F70120812860B4
S113261020839801305F4B815C81B90189819A8163
S11326200E946521F7018081877F80832496CDBF36
S1132630DEBFDF91CF911F910F91FF90EF9008952E
S1132640BADF8091CF0181FF07C086E38093CA017E
S113265061E08BEC91E0A9CF0895EF92FF921F9374
S1132660CF93DF9300D01F92CDB7DEB720ECE22EDC
S1132670FF24F394F701128569838A839B83E0DF47
S11326809ADF23E3F701228712829B8191838A8157
S113269080836981648385E3828761E08BEC91E0C8
S11326A084DFF70112872396CDBFDEBFDF91CF9180
S11326B01F91FF90EF9008951F93CF93DF93EC0148
S11326C01091CA0178DF83E38093CA011092C2019A
S11326D01092C10180E08093C00199919093C4014C
S11326E08F5F8032C1F71093CA01DF91CF911F91A0
S11326F00895CF93DF931F92CDB7DEB789835BDF55
S1132700898120E2829FC0011124E0ECF1E0128271
S11327109183808385E30F90DF91CF9151CFCF9246
S1132720DF92EF92FF920F931F93CF93DF93EC010D
S11327307B018A0124C0CE018F719927892B99F4DA
S11327400032110580F0C701B7DFCE0145E0969550
S113275087954A95E1F7CDDFA09680E2E80EF11C5B
S1132760005211090CC06E01EFEFCE1ADE0AF70118
S113277061917F01CE0171DF01501109E60101155C
S11327801105C9F6DF91CF911F910F91FF90EF9042
S1132790DF90CF9008954091CA01E62FF72F8093E0
S11327A0CA0184914093CA0108951F920F920FB6F3
S11327B00F9211240BB60F922F933F934F935F9375
S11327C06F937F938F939F93AF93BF93EF93FF93F5
S11327D0E091952AF091962A309709F00995FF9196
S11327E0EF91BF91AF919F918F917F916F915F9185
S11327F04F913F912F910F900BBE0F900FBE0F90F2
S11328001F9018951F920F920FB60F9211240BB6BA
S11328100F922F933F934F935F936F937F938F9375
S11328209F93AF93BF93EF93FF93E091972AF09117
S1132830982A309709F00995FF91EF91BF91AF91D4
S11328409F918F917F916F915F914F913F912F91C4
S11328500F900BBE0F900FBE0F901F9018951F92F4
S11328600F920FB60F9211240BB60F922F933F9332
S11328704F935F936F937F938F939F93AF93BF9384
S1132880EF93FF93E091992AF0919A2A309709F0F7
S11328900995FF91EF91BF91AF919F918F917F9196
S11328A06F915F914F913F912F910F900BBE0F90BD
S11328B00FBE0F901F9018951F920F920FB60F9294
S11328C011240BB60F922F933F934F935F936F9303
S11328D07F938F939F93AF93BF93EF93FF93E09175
S11328E09B2AF0919C2A309709F00995FF91EF916A
S11328F0BF91AF919F918F917F916F915F914F9114
S11329003F912F910F900BBE0F900FBE0F901F9011
S113291018951F920F920FB60F9211240BB60F92B7
S11329202F933F934F935F936F937F938F939F93D3
S1132930AF93BF93EF93FF93E0919D2AF0919E2A6A
S1132940309709F00995FF91EF91BF91AF919F9155
S11329508F917F916F915F914F913F912F910F9044
S11329600BBE0F900FBE0F901F9018951F920F92E1
S11329700FB60F9211240BB60F922F933F934F93E0
S11329805F936F937F938F939F93AF93BF93EF93D3
S1132990FF93E0919F2AF091A02A309709F00995BE
S11329A0FF91EF91BF91AF919F918F917F916F9123
S11329B05F914F913F912F910F900BBE0F900FBEDF
S11329C00F901F9018951F920F920FB60F9211241B
S11329D00BB60F922F933F934F935F936F937F9315
S11329E08F939F93AF93BF93EF93FF93E091A12AAB
S11329F0F091A22A309709F00995FF91EF91BF91C8
S1132A00AF919F918F917F916F915F914F913F9182
S1132A102F910F900BBE0F900FBE0F901F90189523
S1132A201F920F920FB60F9211240BB60F922F9391
S1132A303F934F935F936F937F938F939F93AF9342
S1132A40BF93EF93FF93E091A32AF091A42A3097C8
S1132A5009F00995FF91EF91BF91AF919F918F91EB
S1132A607F916F915F914F913F912F910F900BBE8A
S1132A700F900FBE0F901F9018951F920F920FB6D4
S1132A800F9211240BB60F922F933F934F935F93A2
S1132A906F937F938F939F93AF93BF93EF93FF9322
S1132AA0E091A52AF091A62A309709F00995FF91A3
S1132AB0EF91BF91AF919F918F917F916F915F91B2
S1132AC04F913F912F910F900BBE0F900FBE0F901F
S1132AD01F9018951F920F920FB60F9211240BB6E8
S1132AE00F922F933F934F935F936F937F938F93A3
S1132AF09F93AF93BF93EF93FF93E091A72AF09135
S1132B00A82A309709F00995FF91EF91BF91AF91F1
S1132B109F918F917F916F915F914F913F912F91F1
S1132B200F900BBE0F900FBE0F901F9018951F9221
S1132B300F920FB60F9211240BB60F922F933F935F
S1132B404F935F936F937F938F939F93AF93BF93B1
S1132B50EF93FF93E091A92AF091AA2A309709F004
S1132B600995FF91EF91BF91AF919F918F917F91C3
S1132B706F915F914F913F912F910F900BBE0F90EA
S1132B800FBE0F901F9018951F920F920FB60F92C1
S1132B9011240BB60F922F933F934F935F936F9330
S1132BA07F938F939F93AF93BF93EF93FF93E091A2
S1132BB0AB2AF091AC2A309709F00995FF91EF9177
S1132BC0BF91AF919F918F917F916F915F914F9141
S1132BD03F912F910F900BBE0F900FBE0F901F903F
S1132BE018951F920F920FB60F9211240BB60F92E5
S1132BF02F933F934F935F936F937F938F939F9301
S1132C00AF93BF93EF93FF93E091AD2AF091AE2A77
S1132C10309709F00995FF91EF91BF91AF919F9182
S1132C208F917F916F915F914F913F912F910F9071
S1132C300BBE0F900FBE0F901F9018951F920F920E
S1132C400FB60F9211240BB60F922F933F934F930D
S1132C505F936F937F938F939F93AF93BF93EF9300
S1132C60FF93E091AF2AF091B02A309709F00995CB
S1132C70FF91EF91BF91AF919F918F917F916F9150
S1132C805F914F913F912F910F900BBE0F900FBE0C
S1132C900F901F9018951F920F920FB60F92112448
S1132CA00BB60F922F933F934F935F936F937F9342
S1132CB08F939F93AF93BF93EF93FF93E091B12AC8
S1132CC0F091B22A309709F00995FF91EF91BF91E5
S1132CD0AF919F918F917F916F915F914F913F91B0
S1132CE02F910F900BBE0F900FBE0F901F90189551
S1132CF01F920F920FB60F9211240BB60F922F93BF
S1132D003F934F935F936F937F938F939F93AF936F
S1132D10BF93EF93FF93E091B32AF091B42A3097D5
S1132D2009F00995FF91EF91BF91AF919F918F9118
S1132D307F916F915F914F913F912F910F900BBEB7
S1132D400F900FBE0F901F9018951F920F920FB601
S1132D500F9211240BB60F922F933F934F935F93CF
S1132D606F937F938F939F93AF93BF93EF93FF934F
S1132D70E091B52AF091B62A309709F00995FF91B0
S1132D80EF91BF91AF919F918F917F916F915F91DF
S1132D904F913F912F910F900BBE0F900FBE0F904C
S1132DA01F9018951F920F920FB60F9211240BB615
S1132DB00F922F933F934F935F936F937F938F93D0
S1132DC09F93AF93BF93EF93FF93E091B72AF09152
S1132DD0B82A309709F00995FF91EF91BF91AF910F
S1132DE09F918F917F916F915F914F913F912F911F
S1132DF00F900BBE0F900FBE0F901F9018951F924F
S1132E000F920FB60F9211240BB60F922F933F938C
S1132E104F935F936F937F938F939F93AF93BF93DE
S1132E20EF93FF93E091B92AF091BA2A309709F011
S1132E300995FF91EF91BF91AF919F918F917F91F0
S1132E406F915F914F913F912F910F900BBE0F9017
S1132E500FBE0F901F9018951F920F920FB60F92EE
S1132E6011240BB60F922F933F934F935F936F935D
S1132E707F938F939F93AF93BF93EF93FF93E091CF
S1132E80BB2AF091BC2A309709F00995FF91EF9184
S1132E90BF91AF919F918F917F916F915F914F916E
S1132EA03F912F910F900BBE0F900FBE0F901F906C
S1132EB018951F920F920FB60F9211240BB60F9212
S1132EC02F933F934F935F936F937F938F939F932E
S1132ED0AF93BF93EF93FF93E091BD2AF091BE2A85
S1132EE0309709F00995FF91EF91BF91AF919F91B0
S1132EF08F917F916F915F914F913F912F910F909F
S1132F000BBE0F900FBE0F901F9018951F920F923B
S1132F100FB60F9211240BB60F922F933F934F933A
S1132F205F936F937F938F939F93AF93BF93EF932D
S1132F30FF93E091BF2AF091C02A309709F00995D8
S1132F40FF91EF91BF91AF919F918F917F916F917D
S1132F505F914F913F912F910F900BBE0F900FBE39
S1132F600F901F9018951F920F920FB60F92112475
S1132F700BB60F922F933F934F935F936F937F936F
S1132F808F939F93AF93BF93EF93FF93E091C12AE5
S1132F90F091C22A309709F00995FF91EF91BF9102
S1132FA0AF919F918F917F916F915F914F913F91DD
S1132FB02F910F900BBE0F900FBE0F901F9018957E
S1132FC01F920F920FB60F9211240BB60F922F93EC
S1132FD03F934F935F936F937F938F939F93AF939D
S1132FE0BF93EF93FF93E091C32AF091C42A3097E3
S1132FF009F00995FF91EF91BF91AF919F918F9146
S11330007F916F915F914F913F912F910F900BBEE4
S11330100F900FBE0F901F9018951F920F920FB62E
S11330200F9211240BB60F922F933F934F935F93FC
S11330306F937F938F939F93AF93BF93EF93FF937C
S1133040E091C52AF091C62A309709F00995FF91BD
S1133050EF91BF91AF919F918F917F916F915F910C
S11330604F913F912F910F900BBE0F900FBE0F9079
S11330701F9018951F920F920FB60F9211240BB642
S11330800F922F933F934F935F936F937F938F93FD
S11330909F93AF93BF93EF93FF93E091C72AF0916F
S11330A0C82A309709F00995FF91EF91BF91AF912C
S11330B09F918F917F916F915F914F913F912F914C
S11330C00F900BBE0F900FBE0F901F9018951F927C
S11330D00F920FB60F9211240BB60F922F933F93BA
S11330E04F935F936F937F938F939F93AF93BF930C
S11330F0EF93FF93E091C92AF091CA2A309709F01F
S11331000995FF91EF91BF91AF919F918F917F911D
S11331106F915F914F913F912F910F900BBE0F9044
S11331200FBE0F901F9018951F920F920FB60F921B
S113313011240BB60F922F933F934F935F936F938A
S11331407F938F939F93AF93BF93EF93FF93E091FC
S1133150CB2AF091CC2A309709F00995FF91EF9191
S1133160BF91AF919F918F917F916F915F914F919B
S11331703F912F910F900BBE0F900FBE0F901F9099
S11331801895CF93CFB7F894811528E0920711F4DE
S113319061E005C0803428E0920731F462E083E006
S11331A022D964E083E01CC0811529E0920731F440
S11331B061E084E018D964E084E012C081152AE05B
S11331C0920731F461E085E00ED964E085E008C03F
S11331D081159B4071F461E086E005D964E086E0E6
S11331E002D99FB7F8948091E72A8F5F8093E72AEA
S11331F09FBFCFBFCF910895CF93CFB7F8943FB778
S1133200F8942091E72A21502093E72A3FBF8115A3
S113321028E0920711F461E005C0803428E09207A9
S113322031F462E083E0EBD864E083E01CC08115F4
S113323029E0920731F461E084E0E1D864E084E0BD
S113324012C081152AE0920731F461E085E0D7D8F5
S113325064E085E008C081159B4031F461E086E0BC
S1133260CED864E086E0CBD8CFBFCF910895811546
S113327028E0920729F46093952A7093962A08957A
S1133280803428E0920729F46093A12A7093A22A3B
S11332900895811529E0920729F46093A92A70936F
S11332A0AA2A089581152AE0920729F46093B52A81
S11332B07093B62A089581159B4021F46093C12A26
S11332C07093C22A0895803A28E0920719F460E1C5
S11332D083E00CC0803A29E0920719F460E184E0AD
S11332E005C0803A9A4019F460E185E07CC80895ED
S11332F0FC01218125FFFCCF608380E090E00895EC
S11333008F929F92AF92BF92CF92DF92EF92FF92F1
S11333100F931F93CF93DF93EC016A017B01480164
S11333205901B901A801A3E076956795579547958A
S1133330AA95D1F7D901C80116E1B695A795979535
S113334087951A95D1F72C8122FD08C0769567954B
S113335057954795B695A795979587954C155D050F
S11333606E057F0508F49BC0C816D906EA06FB065D
S113337008F495C08C8182FD04C0CC0CDD1CEE1CCD
S1133380FF1CC501B401A701960150D78FEF90E04F
S1133390A0E0B0E019EF281739074A075B0758F097
S11333A0880F991FAA1FBB1F1D3F0CF481601F5F6C
S11333B0173089F74BC017FF49C0D701C60103E096
S11333C0880F991FAA1FBB1F0A95D1F7881A990A5B
S11333D0AA0ABB0A812F992787FD90951E3FE4F422
S11333E06DEF7FEF681B790BA501940104C0220FD8
S11333F0331F441F551F6A95D2F7CA01B90146010C
S11334005701B694A79497948794680D791D8A1DE3
S11334109B1DA701960118C09C012D5F3F4FD7014A
S1133420C60104C0880F991FAA1FBB1F2A95D2F793
S11334309C01AD01BC01CD01969587957795679563
S1133440680D791D8A1D9B1DF1D620C0212F3327BD
S113345027FD30952D5F3F4FD701C60104C0880F6B
S1133460991FAA1FBB1F2A95D2F79C01AD01BC016D
S1133470CD019695879577956795680D791D8A1D79
S11334809B1DD4D62150310941095109832F8F70D6
S11334901295107F812B8F832E8381E001C080E001
S11334A0DF91CF911F910F91FF90EF90DF90CF901C
S11334B0BF90AF909F908F9008950F931F93CF93D9
S11334C0DF93EC018B01FFDE8D818F738D83F80117
S11334D084819581892B9681992311F098E001C00C
S11334E090E0892B8D83F801408151816281738141
S11334F000E018E428EE31E0CE0102DF9C81986000
S11335009C839C8190619C83DF91CF911F910F914B
S113351008958091820080FDFCCF08956091800021
S113352024E0829FC00111248C739927627061602A
S1133530682B80E890E039D8ECCF609180006C7FF4
S1133540616080E890E031C8609180006C736360D2
S113355080E890E02AD8DDCFCF92DF92EF92FF92FD
S1133560CF93DF93EC016B01E12CF12C60E078E464
S113357088EE91E0A701960159D6CA01B9012FEF4F
S11335803FEF40E050E052D62115310529F481E0A7
S11335908C8321E030E02DC02130310529F482E014
S11335A08C8322E030E025C02430310528F483E008
S11335B08C8324E030E01DC02830310528F484E0F9
S11335C08C8328E030E015C02034310528F485E0F0
S11335D08C8320E430E00DC02F3F310509F028F43E
S11335E086E08C8320E031E004C087E08C8320E017
S11335F034E040E050E060E078E488EE91E016D6F4
S1133600CA01B901A701960111D62D833E83243640
S1133610310518F41C821D821E82DF91CF91FF9028
S1133620EF90DF90CF9008950F931F93CF93DF9384
S1133630EC0189016230C1F130F4662359F0613044
S113364009F06EC01CC0643009F443C0663009F050
S113365067C053C080E098E0888399835091400606
S1133660242F30E02150310981E090E0022E01C086
S1133670880F0A94EAF7582B5093400651C080E40F
S113368098E08883998350914006242F30E02D5F81
S11336903F4F81E090E0022E01C0880F0A94EAF7C0
S11336A0582B509340063CC080E099E0888399836E
S11336B050916006242F30E02150310981E090E0E0
S11336C0022E01C0880F0A94EAF7582B5093600623
S11336D027C080E09AE08883998320918006E42FB4
S11336E0F0E0319781E090E00E2E01C0880F0A943B
S11336F0EAF7282B2093800613C080E09BE08883A0
S113370099832091A006E42FF0E0319781E090E0C6
S11337100E2E01C0880F0A94EAF7282B2093A006E6
S11337204A83423061F018F4413089F405C04330D3
S113373049F0443061F409C080E18B8308C080E221
S11337408B8305C080E48B8302C080E88B838881EF
S1133750998117DDE881F9818181887F8360818384
S11337601D821E821C82E881F9818081807F808392
S1133770B801CE01DF91CF911F910F91EDCECF9380
S1133780DF93EC012D813E81A62FB0E071D524E6B4
S113379030E040E050E04AD58A81E881F981E6FDD5
S11337A011C08230B9F018F48130B1F410C0833004
S11337B019F0843089F403C024AF35AF0DC026AFAF
S11337C037AF0AC0813019F0823031F403C020AF22
S11337D031AF02C022AF33AF8D819E81E881F98180
S11337E086A397A38B81E881F9819181E6FD03C0CB
S11337F0982B918303C08073892B8183E881F9819D
S11338008081807F9C81892B8083DF91CF91089573
S11338106150710981099109D9F70895CF93DF9314
S1133820CDB7DEB72797CDBFDEBF87E0E6E6F0E28F
S1133830DE01119601900D928A95E1F760E185E031
S11338400E94F31185EF97E20E945E0E0E94A2117E
S1133850BE016F5F7F4F80EA9AE02FDE882339F044
S1133860EEEDF1E0849190E00E94690E06C0EAED6D
S1133870F1E0849190E00E94690E2796CDBFDEBFEF
S1133880DF91CF910895CF93DF93EC018091880667
S113389084FD13C082E0809385060AC08091880667
S11338A084FD0BC0219765ED74E180E090E0B0DF0A
S11338B01C161D069CF380E001C081E0DF91CF91CE
S11338C00895CF93DF9384E098E20E94690EC0E8E4
S11338D0D6E080E28D8365E573E288E090E098DFCE
S11338E081E08E8380E89EE3CEDF8093CD2ADF9152
S11338F0CF9108951F93CF93DF93C0EAD6E011E0F0
S11339001E83DFDF60E07AE688E190E081DF1D83DB
S113391065E573E288E090E0DF91CF911F9178CF65
S1133920CF93DF931F92CDB7DEB7682F88EE93E075
S11339306983A9DF6981882331F080EA9AE00F90D6
S1133940DF91CF91D5CC0F90DF91CF910895CF9394
S1133950DF93EC0101C0E4DF89918111FCCFDF9199
S1133960CF910895CF93DF93EC0188EE93E08BDF42
S1133970882331F0CE01EBDF8DE0D2DF8AE0D0DFA7
S113398080E0DF91CF91089589E098E20E94690E6A
S1133990A89580ED97E077DF80E198E2E3DFA895D2
S11339A088EE93E070DF89E198E2DCDFA89580E798
S11339B097E169CF88E298E20E94690E80ED97E072
S11339C062DF8EE298E2CEDFE0E8F6E081E0858314
S11339D080E28683089580ED97E055DF84E398E2E2
S11339E0C1DF87E498E2BEDF88EE93E04CDF8EE52A
S11339F098E2B8DF65E573E288E090E009DFDADF9A
S1133A006AEA71E184E090E003DF5BCF1F93CF9318
S1133A10DF93D0DFC0EAD6E011E01E8352DF6AEA0A
S1133A207BE78CE190E0F4DE1D83DF91CF911F9161
S1133A300895E0E8F6E0808586FB882780F991E028
S1133A408927089588EE93E01EDF86E798E28ACFFF
S1133A508CE798E287CF86E998E284CF83EA98E2FC
S1133A6081CF80EB98E27ECF615071098109910981
S1133A70D9F708950E9491100E9426108091D42AAB
S1133A809091D52A0196883E23E0920728F48093EA
S1133A90D42A9093D52A08951092D42A1092D52A24
S1133AA00C94A711FF920F931F93CF93DF93182FBA
S1133AB0C0DFF82E8091480680FD02C003E001C0FB
S1133AC000E083E00E943601EC0140E060E080E029
S1133AD00E940210FF20A1F0011107C0C03ADF408C
S1133AE010F481E006C081E00CC0CC3ADD40D8F788
S1133AF0812FDF91CF911F910F91FF900C94E40FD0
S1133B00812FDF91CF911F910F91FF900C94F30FB0
S1133B108091EF2A823009F457C030F4882371F180
S1133B20813009F064C019C0843021F0873009F075
S1133B305EC037C089EA9BE08093CE2A9093CF2A57
S1133B4088E59EE08093D02A9093D12A8DE19DE070
S1133B508093D22A9093D32A089582E993E08093A4
S1133B60CE2A9093CF2A88E993E08093D02A909329
S1133B70D12A1092D22A1092D32A08958BEA99E07E
S1133B808093CE2A9093CF2A88EA9BE08093D02A10
S1133B909093D12A8EE09BE08093D22A9093D32AEB
S1133BA008958EE698E08093CE2A9093CF2A83E6F8
S1133BB099E08093D02A9093D12A81EE98E0809363
S1133BC0D22A9093D32A08958DE497E08093CE2A45
S1133BD09093CF2A86E298E08093D02A9093D12ABA
S1133BE08DEB97E08093D22A9093D32A0895109274
S1133BF0CE2A1092CF2A1092D02A1092D12A109253
S1133C00D22A1092D32A08959FB7F89484E080931F
S1133C10AA062FB7F8948093B000E0EAF6E0808912
S1133C20887F808B80898160808B2FBF82E0809326
S1133C30A9069FBF0895CF93DF93CDB7DEB7ED9765
S1133C40CDBFDEBF1092EE2A0E94CB110E946A0102
S1133C506AE278E680E090E007DF80E00E94B30F3C
S1133C6041E060E080E00E94021088E00E946C0362
S1133C708111FBCFB0DE25DED1DD0E94A70E8111BC
S1133C800E94E20E0E949D118AE39DE10E9497101A
S1133C900E946E0E0E94C0100E9415010E946601CF
S1133CA0809138200E9436018093422090934320D3
S1133CB080933A2090933B2080933E2090933F2022
S1133CC0809139200E9436018093442090934520AE
S1133CD080933C2090933D208093402090934120FA
S1133CE0809146200E943601809350209093512069
S1133CF0809348209093492080934C2090934D20AA
S1133D00809147200E943601809352209093532043
S1133D1080934A2090934B2080934E2090934F2081
S1133D201092E62A1092E72A1092E82A1092E92AC1
S1133D301092EA2A81E08093EB2A0E94891064DFC2
S1133D4087E08093A20078948091DB2A881F8827DB
S1133D50881F9091DC2A9F73990F982B81E009F4B6
S1133D6080E00E94750F8093ED2A0E9403078BAFB9
S1133D700E946E06CDDE8091DC2A8295869586951A
S1133D8083709091DD2A990F990F982B81E009F0A7
S1133D9080E00E94B30F8DEB98E20E941B118DEB23
S1133DA098E20E94690E8091EF2A90E08652954D28
S1133DB0EBDDA895E091CE2AF091CF2A309721F03F
S1133DC08FEE9AE2099504C086ED98E20E94690E8E
S1133DD06E0181E3C80ED11C41E050E060E070E068
S1133DE0C6010E943D100E94A2117E0199E2E90ED3
S1133DF0F11C44E050E060E070E0C7010E943D1017
S1133E000E94A21148EE53E060E070E0CE014196BA
S1133E100E943D100E94A2118E01075F1F4F48EEC1
S1133E2053E060E070E0C8010E943D100E94A211BE
S1133E3040EE53E964E070E0CE0101960E943D102B
S1133E400E94A2115E01A1E2AA0EB11CC5010E944A
S1133E50831084EF98E20E94690E1AAE19AE3C2CCE
S1133E602D2C7E2C6F2C502E412EE3EEF1E0B491DC
S1133E70BCAF9A2C8B2C832D922D0E94561081114D
S1133E801FC0872D962D0E945610811119C0852DB3
S1133E90942D0E945610811113C080914800817F97
S1133EA0ECAD8E2B80934800809148008160809314
S1133EB0480078948895809148008E7F80934800CC
S1133EC00E94A21180E00E94B811852D942D0E94B9
S1133ED05610882379F048EE53E060E070E0852DB9
S1133EE0942D0E943D108091EE2AF1E08F2780935B
S1133EF0EE2AD8DD832D922D0E945610882309F4D2
S1133F00AEC041E050E060E070E0832D922D0E944D
S1133F103D1082E0E82E80E2F82E91E0C92E90E276
S1133F20D92E8601570190E0D5018C91811107C0EB
S1133F30892F9DAF0E946C039DAD81110BC0D501EB
S1133F408C91882361F0892F9DAF0E946C039DADF5
S1133F50811105C0F80180818F5F808302C0D80180
S1133F601C929F5FB4E0AB0EB11C0C5F1F4F9E30E0
S1133F70D9F610E0F6018081843078F11082F701DF
S1133F808081811103C081E0808301C0108280910F
S1133F90D02A9091D12A892B81F040EE53E964E034
S1133FA070E0CE0101960E943D10E091D02AF0917C
S1133FB0D12AD7016C91812F0995183071F4809121
S1133FC02220813051F4B2E0B0932220E091D02A33
S1133FD0F091D12A60E088E009951F5FE4E0CE0EFD
S1133FE0D11CF4E0EF0EF11C1E3021F689AD8111D5
S1133FF0C6C0809122208823A1F02091D62A30E0E7
S1134000A2E3B0E035D1AB01BC01892D982D0E940B
S11340103D1091E099AFB3C0892D982D0E94831073
S113402019AEAAADA111B0C0809126208823B9F0A1
S11340302091D62A30E0A4E6B0E01AD1AB01BC014D
S1134040CE0149960E943D108BAD0E94C806B1E096
S1134050BAAF9AC0CE0149960E9483101AAE872D3A
S1134060962D0E945610811107C0892D982D0E940B
S1134070561081113DC059C044E050E060E070E04A
S1134080872D962D0E943D1009E310E2F12CF801D2
S11340908185928585839683319780810E9436013C
S11340A0D80119968D939C931A971B968D919C9188
S11340B01C9717968D939C9318978C910E943601A8
S11340C0F80183879487E091D22AF091D32A30971C
S11340D041F0D80119966D917C911A97AC018F2DFE
S11340E00995F394025F1F4FB2E0FB12D0CFBDCF0E
S11340F0892D982D0E948310CE0101960E94831071
S113410040E060E080E00E9402108091DB2A881F7A
S11341108827881F9091DC2A9F73990F982B81E040
S113412009F480E00E94220F06C0CE0101960E948D
S113413056108111DDCFCE0149960E945610882376
S1134140D9F0CE0149960E948310D4DB7BDC40E099
S113415060E080E00E94021040E061E080E00E94A4
S113416002106BEA72EC82EA90E07EDC61E089E79F
S113417090E00E94D512FFCF0E94E0057CCE809192
S1134180222081114ECF48CF80912620811167CF04
S113419061CF1F920F920FB60F9211240BB60F929C
S11341A02F933F934F935F936F937F938F939F933B
S11341B0AF93BF93EF93FF938FB7F8949091AC06AE
S11341C090FF03C091E09093AC069091ED2A911179
S11341D006C061E089E790E00E94D512FFCF8FBF4F
S11341E0FF91EF91BF91AF919F918F917F916F91CB
S11341F05F914F913F912F910F900BBE0F900FBE87
S11342000F901F90189597FB072E16F4009406D074
S113421077FD08D039D007FC05D03EF49095819500
S11342209F4F0895709561957F4F0895A1E21A2ECE
S1134230AA1BBB1BFD010DC0AA1FBB1FEE1FFF1F46
S1134240A217B307E407F50720F0A21BB30BE40B96
S1134250F50B661F771F881F991F1A9469F76095DD
S11342607095809590959B01AC01BD01CF01089597
S1134270A29FB001B39FC001A39F01D0B29F700D54
S1134280811D1124911D0895AA1BBB1B51E107C078
S1134290AA1FBB1FA617B70710F0A61BB70B881FD2
S11342A0991F5A95A9F780959095BC01CD01089561
S11342B0FC014150504030F001900616D1F731977F
S11342C0CF010895882799270895FB01DC0102C0D6
S11342D001900D9241505040D8F70895FB01DC0144
S11342E08D91019080190110D9F3990B0895F894D8
S10542F0FFCFFA
S11342F2090000000D0000000B0000000100000096
S1134302050000000A00000004000000070000008D
S11343122A0000012D0000002F0000002E000000E2
S1134322020000000C00000008060000000000006B
S11343320000000000000F0E00000000000000005A
S11343420000000000C201000300000F000F000083
S1134352C2010003000000C201000300004F4B0031
S11343624E4F005553423A72637600436F6D6D614E
S11343726E64206D6174636820004E6F20636F6DFC
S11343826D616E64206D61746368696E67200052AA
S113439247004147005747005347005243004143F7
S11343A200574300534300525300424C009F20D015
S11343B204A220D205A5209505A820C904AB205B40
S11343C205AE204D05B1201405B4200205B720C165
S11343D204BA20BD0442494F53004C6F6164696EB4
S11343E26720636F6E66696775726174696F6E20A8
S11343F2006A537469636B496E69740002000000B9
S113440200000000000000000000000000000000A6
S11344120000000000000000000000000000000096
S11344220000000000000000000000000000000086
S11344320000000000000000000000000000000076
S11344420000000000000000000000000000000066
S11344520000000000000000000000000000000056
S11344620000000000000000000000000000000046
S11344720000000000000000000000000000000036
S1134482000000000000000000000000002C012CCD
S11344920100000000000000000000000000000015
S11344A20000002C012C01320101010090400000A7
S11344B240000000001A0000004000000000160046
S11344C20000400000000004000000400000000062
S11344D20700000040000000001E00000040000031
S11344E200001F0000004000000000200000004007
S11344F2000000002100000040000000002800002D
S113450200400000000029000000400000000024D8
S113451200000040000000002200000040000000F3
S113452200250000004000000000230000004000BD
S1134532001A001600040007D007A00FD007A00F2E
S11345422C012C014000000C000E000D000FD007BE
S1134552A00FD007A00F2C012C0100400000000086
S11345621A00000040000000001600000040000095
S113457200000400000040000000000700000040AA
S1134582000000000B00000040000000000A0000D0
S11345920040000000000900000040000000000884
S11345A2000000400000000006000000400000007F
S11345B2000400000040000000001500000040005C
S11345C200000005000000000000000000000000E0
S11345D200000000000000000000000000000000D5
S11345E200000000000000000000000000000000C5
S11345F200000000000000000000000000000000B5
S113460200000000000100000008001A0000000081
S113461200001D001B000000000000140004000044
S11346220000000006000700000000000019000F4F
S11346320000000000000A00120000000000001345
S1134642000E00000000000010000C00000000003A
S11346520009001800000000000017001C00000000
S113466200000011000D00000000000015000B0006
S11346720000000000000000000000000000000034
S11346820000000000000000000000000000000024
S11346920000000000000000000000000000000014
S11346A20000000000000000000000000000000004
S11346B20040000000001A00000040000000001644
S11346C20000004000000000040000004000000060
S11346D2000700000040000000000D000000400040
S11346E20000000E00000040000000001000000066
S11346F240000000000C00000040000000001C000C
S1134702000040000000001500000040000000000E
S1134712130000004000000000140000000000002C
S11347220000000000000000000000000000004043
S113473200001A001600040007D007A00FD007A03B
S11347420F2C012C014000001A001600040007D0AF
S113475207A00FD007A00F2C012C010100000008B4
S1134762001A0000000000001D001B0000000000F1
S1134772001400040000000000000600070000000E
S113478200000015000B00000000000011000D00E5
S1134792000000000017001C0000000000000900D7
S11347A2180000000000000A0012000000000000CF
S11347B219000F00000000000013000E00000000AA
S11347C2000010000C00000000000013000E0000A6
S11347D20000000010000C000000000000000000B7
S11347E200000000000000000000000000000000C3
S11347F200000000000000000000000000000000B3
S1134802000000000000070000000000000000009B
S11348120000000000000000000000000000000092
S11348220000000000000000000000000000000082
S11348320000000000000000000000000000000072
S11348420000000000000000000000000000000062
S11348520000000000000000000000000000000052
S11348620000000000000000000000000000000042
S11348720000000000000000000000000000000032
S11348820000000000000000000000000000000022
S1134892000000000000002C012C010000000000B8
S11348A2000000000000000000000000002C012CA9
S11348B2010040000000001A000000400000000057
S11348C21600000040000000000400000040000048
S11348D2000007000000400000000010000000403B
S11348E2000000000E00000040000000000D000067
S11348F20040000000000C00000040000000001C0A
S1134902000000400000000015000000400000000C
S113491200130000004000000000140000004000EA
S1134922000000130000004000000000140000001A
S11349324000001A001600040007D007A00FD00799
S1134942A00F2C012C014000001A001600040007DD
S1134952D007A00FD007A00F2C012C0104400000A7
S113496200001A0000004000000000160000004091
S113497200000000040000004000000000070000E6
S11349820040000000001000000040000000000E83
S113499200000040000000000D0000004000000084
S11349A2000C00000040000000002800000040004D
S11349B200000029000000400A000000000000007E
S11349C24009000000000000004000000000130045
S11349D2000040000000001400000000000000007D
S11349E20000000000D007A00FD007A00F2C012C5C
S11349F20100000000000000000000D007A00FD05A
S1134A0207A00F2C012C010100000008001A00006D
S1134A12000000001D001B00000000000014000440
S1134A22000000000000060007000000000000155E
S1134A32000B00000000000011000D000000000047
S1134A420017001C0000000000000900180000000C
S1134A520000000A001200000000000019000F000C
S1134A62000000000013000E00000000000010000F
S1134A720C00000000000000000000000000000024
S1134A820000000000000000000000000000000020
S1134A920000000000000000000000000000000010
S1134AA20000000000000000000000000000000000
S1134AB2000042433A50433D30382C3031004243E7
S1134AC23A50433D30392C30300055534220554141
S1134AD2525420494E49543A2000474F4F44004211
S1134AE24144002E004254203131353220494E498E
S1134AF2543A200042544F6E00696E697442540065
S1134B0242433A4D443D30310042433A42503D30F3
S1134B12342C30372C30300042544F666600424306
S1134B223A44430042433A534D3D44726F6E65200A
S1134B3253657269616C0042433A4E4D3D44726F53
S1134B426E6520436F6E74726F6C6C6572004243C3
S1134B523A50463D30302C30312C30300042433A0A
S1134B624D443D30300042433A43500042433A43BD
S1134B72443D3030303534300042433A43443D30D2
S1134B8230303538300042433A43443D30303035DA
S1134B9243300042433A43443D30303035433800D9
S1134BA242433A43443D303030354334007C204460
S1134BB2524F4E45207C2056657273696F6E2030C9
S1134BC278303030330021627574746F6E5F6861BF
S1134BD26E646C65725F696E6974203D3D206E750A
S1134BE26C6C2100456E746572696E67204D616953
S10B4BF26E206C6F6F7000006F
S9030000FC
