S00D000044726F6E652E737265631F
S1130000F4C0000011C100000FC100000DC10000C8
S11300100BC1000009C1000007C1000005C10000B8
S113002003C1000001C10000FFC00000FDC00000CA
S1130030FBC00000F9C000000C94E4130C941114EC
S11300400C943E140C946B140C9498140C94C514D6
S11300500C94F2140C941F150C944C150C947915F3
S1130060E3C000000C9436110C946C11DDC0000048
S1130070DBC00000D9C00000D7C00000D5C000001C
S1130080D3C00000D1C00000CFC00000CDC000002C
S1130090CBC00000C9C00000C7C00000C5C000003C
S11300A0C3C00000C1C00000BFC00000BDC000004C
S11300B0BBC00000B9C00000B7C000000C94B41667
S11300C00C94E1160C940E170C943B170C946817BF
S11300D00C949517A9C00000A7C00000A5C000009B
S11300E0A3C00000A1C000009FC000009DC000008C
S11300F09BC0000099C0000097C0000095C000009C
S113010093C0000091C000008FC000008DC00000AB
S11301108BC0000089C0000087C0000085C00000BB
S113012083C0000081C000007FC000007DC00000CB
S11301307BC000000C94A6150C94D3150C940016E7
S11301400C942D160C945A160C9487166DC000004E
S11301506BC0000069C0000067C0000065C00000FB
S113016063C0000061C000005FC000005DC000000B
S11301705BC0000059C0000057C0000055C000001B
S113018053C0000051C000004FC000004DC000002B
S11301904BC0000049C0000047C0000045C000003B
S11301A00C94EE2041C000003FC000003DC00000A0
S11301B00C94C2170C94EF170C941C180C94491847
S11301C00C9476180C94A318444542554720554185
S11301D0525420494E49543A200042414400474F6A
S11301E04F4400000E060C04000011241FBECFEF84
S11301F0DFE2DEBFCDBF19E2A0E0B0E2EEEEF2E452
S113020000E00BBF02C007900D92A039B107D9F7E7
S11302102DE2A0E9B9E201C01D92A032B207E1F7D4
S11302200E942A1E0C947521EBCE60E979E280E0ED
S113023092E00E94901246E959E261E080E092E087
S11302400E94CA12E0E9F9E29081A1E9B9E28C9135
S11302508F7C80628C93917E90831092922986E0A9
S11302608383BF0180E092E00C944D12803148F00A
S1130270109296298051880F880F880F80939729B0
S113028008C091E090939629880F880F880F809377
S1130290972946E959E261E080E092E00E94B012B9
S11302A09FB7F894809100028460809300029FBFFE
S11302B080910602982F917080FFFACF90930602E6
S11302C02091240230912502C901089580E092E032
S11302D00C943612AF92BF92DF92EF92FF920F937B
S11302E01F93CF93DF9380E4A82E86E0B82E52E0CC
S11302F0D50115965C93159711965C931197E0EBD5
S1130300F0E0508390E2F92E5096FC92509701E071
S113031012960C931297008328E1E22E5096EC92E9
S113032020E036E018E0E9011A831083188AC0E25D
S1130330D6E05A835083E88AFA82F082E88A1A83E4
S11303401083E88AD90112965C93129750835096D1
S1130350EC9250971296FC921297F0825096EC927F
S1130360509764E06A836083E88A40E112964C9374
S1130370129740835096EC92509770E812967C93B3
S1130380129770835096EC9280EA96E0DC01129604
S11303906C931297608350964C9350971296FC92EC
S11303A01297F0825096EC92509712967C93129783
S11303B070835096EC9250976894DD24D6F8129688
S11303C0DC921297D0825096EC924A834083488BF9
S11303D0D90112966C931297608350964C93509760
S11303E00A830083188A1296DC921297D082509660
S11303F01C927A837083188ADA82D082188AA0E8E1
S1130400B6E015960C93159711960C9311970083EB
S113041050961C925097EC010D8309830083188A2F
S113042016964C93169712964C93129740835096B7
S11304301C92509711965C931197508350961C927E
S1130440509715961C93159711961C93119710832A
S113045050961C92509715966C93159712966C9320
S11304601297608350961C9250971696FC9216979A
S11304701196FC921197F08250961C9250975D83CE
S113048059835083188A80E696E0EC010D83098332
S11304900083188A5D8359835083188AE5011D837C
S11304A019831083188A6D836A836083188A15966A
S11304B07C93159711967C931197708350961C9298
S11304C0DC0115961C93159711961C9311971083B4
S11304D050961C92509712966C9312976083509684
S11304E01C92509712967C931297708350964C935B
S11304F04A834083488BFA82F082488BDA82D08226
S1130500488B7A837083488BDF91CF911F910F9131
S1130510FF90EF90DF90BF90AF9008956150710904
S113052081099109D9F7089540EF59E462E070E038
S113053084E69CE20E944C1040E060E080E00E946F
S113054011100E94B11188E0C7D0C82F89E0C4D02F
S1130550882369F0CC2359F06AEA70EB88E290E0D2
S1130560DDDF61E089E790E00E94E412FFCF84E6DA
S11305709CE20E9465108823C1F084E69CE20E94FC
S1130580921040E060E080E00E9411108091612CA4
S1130590881F8827881F9091622C9F73990F982B2E
S11305A081E009F480E00E94310F80E095D0882337
S11305B031F082E30E94F30FC9E3D0E236C081E058
S11305C08BD08111F6CF82E087D08111F2CF83E006
S11305D083D08111EECF84E07FD08111EACF85E012
S11305E07BD08111E6CF86E077D08111E2CF87E01E
S11305F073D08111DECF88E06FD08111DACF89E02A
S11306006BD08111D6CF8BE067D08111D2CF8AE035
S113061063D08111CECF8DE05FD08111CACF8CE041
S11306205BD0882309F4C8CFC4CFFE013197808101
S11306301DDE7C0188811ADE8C018DEAE8168DE0CE
S1130640F80618F082E30E94EB0F0D3A1D4018F0F3
S113065082E30E9402102E9680E2C535D80729F75E
S11306606BCF80E00E94C20F40E060E080E00E9417
S1130670111040E060E082E30E9411106AEA76E41F
S113068080E190E04BDF40E060E080E00E941110E8
S11306906AEA76E480E190E041DF40E060E082E3F2
S11306A00E9411106AEA76E480E190E037DF40E0CE
S11306B060E080E00E9411106AEA76E480E190E054
S11306C02DDF40E060E082E30E9411106AEA76E4E4
S11306D080E190E023DF28DF94E0899FF00111247A
S11306E0E050F04E8081A82FA695A695A69590E29D
S11306F0A99FD0011124BA5F18962C91382F377016
S113070081E090E0032E01C0880F0A94EAF72823C1
S1130710938181E0222319F0911103C001C091114A
S113072080E008958093992990939A290C94371D19
S1130730CF932091992930919A2990E049E0489FDC
S1130740F001499FF00D1124E20FF31F613011F401
S1130750C68101C0C481CC2399F18C2F0E94680EFC
S113076081EA0E949F1C81E00E949F1C80E00E94FD
S11307709F1C80E00E949F1C8C2F0E949F1C80E085
S11307800E949F1C80E00E949F1C80E00E949F1C8E
S113079080E00E949F1C80E00E949F1C81EA0E94CE
S11307A09F1C81E00E949F1C80E00E949F1C80E0AF
S11307B00E949F1CC6E080E00E949F1CC150D9F794
S11307C0CF910895FC016083718345831282148262
S11307D0828183830895FC019FB7F89424818581E5
S11307E0281790F48281A081B181A80FB11D6C9368
S11307F08F5F828384818F5F848322818581281720
S113080028F0128281E003C080E001C081E09FBF34
S11308100895FC019FB7F89484818823A1F0838113
S1130820A081B181A80FB11D2C91DB012C938F5FA6
S1130830838384818150848323818581281728F0D0
S1130840138281E003C080E001C081E09FBF08956E
S1130850CF92DF92EF92FF920F931F93CF93DF9388
S11308601F92CDB7DEB78C01F62EC62ED72EEC2CF8
S1130870EF18E41650F4B601C8014983CADF9FEFAC
S1130880C91AD90A49818111F2CF8E2D0F90DF91B7
S1130890CF911F910F91FF90EF90DF90CF9008952B
S11308A0CF93FC013FB7F89483819481941710F49B
S11308B0248101C0242F90E00DC0A081B181A80F34
S11308C0B11D5C91552351F08F5F5581851708F058
S11308D080E09F5F9213F1CF80E001C081E03FBFD1
S11308E0292F30E02F5F3F4FA42FB0E0C1E02A173B
S11308F03B070CF0C0E0C82321F0492F4F5FCF0124
S1130900A7DF8C2FCF91089580E090E00196853584
S113091020ED9207D9F70895FB01DA01982F9F7013
S11309209C9382958F7080838C918A301CF0895AB5
S11309308C9302C0805D8C9380818A301CF0895A2C
S113094080830895805D808308958062606281362B
S113095014F0875501C08053982F9295907F862F6D
S113096061361CF08755890F08958053890F0895C7
S113097061E08DE690E20C940B11FADFC5DF0C9474
S11309800000F6DFC1DF61E089E790E00E94E41235
S1130990FFCF8BE999E285D1EBDF1092222A0895EB
S11309A00F931F93CF93DF9300D0CDB7DEB78BE9BE
S11309B099E270D10BE919E2AE014F5F5F4FBE01BE
S11309C06E5F7F4FF80181918F01A6DF8A810E94BB
S11309D0FA1089810E94FA10FAE202321F0761F7C5
S11309E080E00E94FA10C4DF1092222A0F900F9028
S11309F0DF91CF911F910F91089561E080E790E21C
S1130A000C940B11FC018081882329F061816623F9
S1130A1011F092819111F1CF98DF63E27AE252D121
S1130A20A7DF1092CE2A0895FF920F931F93CF93BE
S1130A30DF93EC01A82FBD2FFD0101900020E9F701
S1130A403197EA1BFB0BFE2EE0FD04C01091CE2A69
S1130A5000E013C0DF91CF911F910F91FF90CDCF94
S1130A60FE01E00FF11D618180816FDFE12FF0E075
S1130A70ED5DF54D80830E5F1F5F0F1528F0109319
S1130A80CE2A0F11E7CF03C01B3A50F3F8CFDF9102
S1130A90CF911F910F91FF906BCFFC018081882330
S1130AA029F06181662311F092819111A6CF4DDF67
S1130AB08093CE2A5DCF0F931F93CF93DF9300D003
S1130AC0CDB7DEB7FC018081882331F061816623D4
S1130AD019F09281992311F090DF20C036DF63E290
S1130AE07AE2E6D003E21AE2AE014F5F5F4FBE0145
S1130AF06E5F7F4FF80181918F010EDF8A810E9422
S1130B00FA1089810E94FA10FAE20E3C1F0761F77D
S1130B1080E00E94FA102CDF1092CE2A0F900F90E2
S1130B20DF91CF911F910F910895FF920F931F931F
S1130B30CF93DF93EC01A82FBD2FFD01019000207E
S1130B40E9F73197EA1BFB0BFE2EE0FD04C0109180
S1130B50222A00E013C0DF91CF911F910F91FF90E3
S1130B604CCFFE01E00FF11D61818081EEDEE12FAB
S1130B70F0E0E556F64D80830E5F1F5F0F1528F0F9
S1130B801093222A0F11E7CF03C0173850F3F8CF80
S1130B90DF91CF911F910F91FF90EACEFC018081EC
S1130BA0882329F06181662311F09281911125CF68
S1130BB0CCDE8093222ADCCEAF92BF92CF92DF921A
S1130BC0EF92FF920F931F93CF93DF93CDB7DEB7CE
S1130BD0C354D109CDBFDEBF60E4CE0101960E94AB
S1130BE03011882309F447C089818E010F5B1F4FA0
S1130BF0F80180839A8191831282992787FD9095C9
S1130C008D589F4D0E94780E9DEBC92E90E2D92EEF
S1130C10E12CF12C5801F60100811181B501C801C4
S1130C200E946C210097A9F48BE790E20E946D0E5C
S1130C30C8010E94780EF701EE0FFF1FEE0FFF1F91
S1130C40E354FF4D0280F381E02DCE010396099514
S1130C5012C0FFEFEF1AFF0A84E0C80ED11CEAE0CD
S1130C60EE16F104C1F68AE890E20E946D0EC50109
S1130C700E94780EC2DECD5BDF4FCDBFDEBFDF91B9
S1130C80CF911F910F91FF90EF90DF90CF90BF9085
S1130C90AF90089547E850E0BC0180E090E00C94E8
S1130CA0FF1247E850E0BC0180E090E00C949E13F2
S1130CB020EC829FC00111244BEA50E080569F4FE4
S1130CC00C94FF1220EC829FC00111244BEA50E0E7
S1130CD080569F4F0C949E13CF93C82F8A3029F4CB
S1130CE085EE90E20E94780EBCDC8DED9BE2D2DFB3
S1130CF08091612C84FF3DC060E476E280E0E2DF15
S1130D006AEE74E281E0DEDF6CE071E282E0DADF59
S1130D106BEE76E283E0D6DF65E975E284E0D2DF4C
S1130D206EE372E285E0CEDF66E977E286E0CADF51
S1130D3069EE72E287E0C6DF64E973E288E0C2DF4D
S1130D406FE374E289E0BEDF87E8E7EBF1E2ADED43
S1130D50BBE201900D928A95E1F78091612C8F7E20
S1130D608093612C8DED9BE29CDF0E94151D0E94F7
S1130D70FA1C8AEE90E2B1D78C2F805DA9D782E865
S1130D8098E2ABD765E77CE28C2FCF9191CF853089
S1130D90F9F068F4823031F128F48823C9F0813005
S1130DA081F51BC0833019F1843059F525C0883092
S1130DB0C9F028F4863089F0873019F518C08930D5
S1130DC0D9F08A30F1F440E060E080E00C94111036
S1130DD041E060E080E00C94111040E060E081E0CC
S1130DE00C94111040E061E080E00C94111040E09C
S1130DF061E081E00C94111041E060E081E00C942A
S1130E0011100895CF9389E067DC81112BC084E031
S1130E1063DC811129C085E05FDC811127C086E095
S1130E205BDC811125C087E057DC811123C08AE097
S1130E3053DC811121C081E04FDC81111FC083E0AC
S1130E404BDC81111DC082E047DC81111BC044DCF6
S1130E5081111AC08BE040DC811118C0C091612C53
S1130E60CF7015C0CAE013C0C0E011C0C1E00FC00C
S1130E70C2E00DC0C3E00BC0C4E009C0C5E007C0B8
S1130E80C6E005C0C8E003C0C7E001C0C9E08C2FBC
S1130E907EDF8C2FCF9108958093CF2A9093D02A10
S1130EA00C943D1D8091D12A9091D22AA091D32AED
S1130EB0B091D42A4091D92A5091DA2A6091DB2A40
S1130EC07091DC2A84179507A607B707C1F43091FF
S1130ED0D52A2091DD2A321312C03091D62A2091CE
S1130EE0DE2A32130CC03091D72A2091DF2A321324
S1130EF006C03091D82A2091E02A3217E1F14091BE
S1130F00D52A5091D62A6091D72A7091D82A409335
S1130F10DD2A5093DE2A6093DF2A7093E02A8093BF
S1130F20D92A9093DA2AA093DB2AB093DC2A81EAA7
S1130F300E949F1C84E00E949F1C80E00E949F1CD2
S1130F408091D52A0E949F1C8091D62A0E949F1CC2
S1130F508091D72A0E949F1C8091D82A0E949F1CAE
S1130F6088E00E949F1C8091D12A0E949F1C80913E
S1130F70D22A0C949F1C08959EE0899FD0011124CD
S1130F80A85CBF4D282F30E0E6E18E9FC0011124FC
S1130F9081589F4FE091CF2AF091D02AE80FF91F92
S1130FA012968D919C911397681B790B14968D91D1
S1130FB09C911597481B590B82899389861797072B
S1130FC01CF4681B790B0CC0AA27BB27A81BB90B00
S1130FD06A177B071CF4680F791F02C060E070E099
S1130FE084899589841795071CF4481B590B0CC0F8
S1130FF0EE27FF27E81BF90B4E175F071CF4480F79
S1131000591F02C040E050E061388FEF780714F4B4
S113101061E87FEF41389FEF590714F441E85FEF2F
S1131020220F331FF901EB52F54D6038710514F0AE
S11310306FE770E06083F901EA52F54D40385105DD
S113104014F04FE750E040832DCF613001F541E0CB
S113105050E060E070E004C0440F551F661F771F26
S11310608A95D2F78091D12A9091D22AA091D32A3D
S1131070B091D42A842B952BA62BB72B8093D12AFD
S11310809093D22AA093D32AB093D42A25C0611175
S113109023C041E050E060E070E004C0440F551FFD
S11310A0661F771F8A95D2F7409550956095709585
S11310B08091D12A9091D22AA091D32AB091D42A96
S11310C084239523A623B7238093D12A9093D22AED
S11310D0A093D32AB093D42AE5CE8093E12A9093A7
S11310E0E22A81E091E204D60C94401D8091E32A27
S11310F09091E42AA091E52AB091E62A4091EB2A46
S11311005091EC2A6091ED2A7091EE2A841795078C
S1131110A607B707C1F43091E72A2091EF2A3213CA
S113112012C03091E82A2091F02A32130CC0309179
S1131130E92A2091F12A321306C03091EA2A20913B
S1131140F22A3217E1F14091E72A5091E82A60919E
S1131150E92A7091EA2A4093EF2A5093F02A609387
S1131160F12A7093F22A8093EB2A9093EC2AA093AD
S1131170ED2AB093EE2A81EA0E949F1C84E00E942B
S11311809F1C80E00E949F1C8091E72A0E949F1C64
S11311908091E82A0E949F1C8091E92A0E949F1C4A
S11311A08091EA2A0E949F1C88E00E949F1C8091E3
S11311B0E32A0E949F1C8091E42A0C949F1C0895AA
S11311C0CF93DF932EE0829FE0011124C85CDF4DB2
S11311D0A82FB0E026E1829FC001112481589F4FBF
S11311E0E091E12AF091E22AE80FF91F8A819B81BC
S11311F0681B790B8C819D81481B590B82899389CB
S1131200861797071CF4681B790B0CC02227332719
S1131210281B390B621773071CF4680F791F02C06F
S113122060E070E084899589841795071CF4481B55
S1131230590B0CC022273327281B390B421753079D
S11312401CF4480F591F02C040E050E077FF02C071
S1131250615F7F4FE4E075956795EA95E1F7962F16
S1131260872F57FF02C0415F5F4F64E05595479554
S11312706A95E1F7642F452F292F382F21388FEFF6
S1131280380714F421E83FEF862F942F81384FEF6D
S1131290940714F481E89FEFAA0FBB1FFD01E951E5
S11312A0F54D2038310514F02FE730E02083A851A4
S11312B0B54D8038910514F08FE790E08C93DF9161
S11312C0CF9114CF613001F541E050E060E070E06F
S11312D004C0440F551F661F771F8A95D2F780916B
S11312E0E32A9091E42AA091E52AB091E62A842B7E
S11312F0952BA62BB72B8093E32A9093E42AA093F3
S1131300E52AB093E62A25C0611123C041E050E0EC
S113131060E070E004C0440F551F661F771F8A9574
S1131320D2F740955095609570958091E32A9091FD
S1131330E42AA091E52AB091E62A84239523A623E2
S1131340B7238093E32A9093E42AA093E52AB093E9
S1131350E62ACCCE8093F32A9093F42A0C94371D7A
S11313602F923F924F925F926F927F928F929F92B1
S1131370AF92BF92CF92DF92EF92FF920F931F939F
S1131380CF93DF93CDB7DEB76197CDBFDEBF0091BA
S1131390F92A1091FA2A2091FB2A3091FC2A613013
S11313A0C1F441E050E060E070E004C0440F551F18
S11313B0661F771F8A95D2F7402B512B622B732B14
S11313C04093F92A5093FA2A6093FB2A7093FC2ADB
S11313D01DC061111BC041E050E060E070E004C03A
S11313E0440F551F661F771F8A95D2F74095509575
S11313F06095709540235123622373234093F92A07
S11314005093FA2A6093FB2A7093FC2AC090F92A1D
S1131410D090FA2AE090FB2AF090FC2A8090F32ADC
S11314209090F42AA12CB12C612C712C99E0592EA6
S1131430D701C6010A2C04C0B695A7959795879540
S11314400A94D2F780FF25C05A9C80015B9C100D42
S113145011240F5F1F4F080D191DF801818183FDB1
S113146018C04580442091F0472D50E0642D70E071
S1131470CE0101960E945621892B41F4E1E0F0E06F
S1131480EC0FFD1FE70DF11D40827394F801848178
S1131490682AFDE0AF16B10461F58090F32A9090BC
S11314A0F42AC4018F579F4F8F839887F401ED5717
S11314B0FF4FE987FA87C4018B579F4F8B879C871F
S11314C0F401E957FF4FED87FE87C40189569F4F0A
S11314D08F87988B140199E9290E311C2401EBE9BB
S11314E04E0E511CFDE98F0E911C8EE0A82EB12CDE
S11314F059C08FEFA81AB80A95E0971508F098CF4D
S1131500CCCFD701C6010A2C04C0B695A7959795F0
S113151087950A94D2F780FF3EC02231B1F030F4AF
S1131520203169F078F42F30C9F406C0243191F0E9
S113153078F0253199F410C009851A8511C00B85FE
S11315401C850EC00D851E850BC00F85188908C02B
S1131550810106C0820104C0840102C00F81188584
S1131560F80121812223A1F0472D50E0622F70E081
S1131570CE010196298B0E9456212989892B41F499
S1131580E1E0F0E0EC0FFD1FE70DF11D2083739403
S1131590F8018081682AFFEFAF1ABF0A86E1A81616
S11315A0B10429F02A2D95E0971508F0AACF81EA15
S11315B00E949F1C81E00E949F1C80E00E949F1C4F
S11315C0862D0E949F1C8E010F5F1F4FF12CF71474
S11315D028F4F80180810E949F1C03C080E00E94CF
S11315E09F1CF3940F5F1F4FF6E0FF12F0CF61963C
S11315F0CDBFDEBFDF91CF911F910F91FF90EF9090
S1131600DF90CF90BF90AF909F908F907F906F901E
S11316105F904F903F902F900895DF92EF92FF924A
S11316200F931F93CF93DF938A01E82EF12C96E159
S1131630899F9001112421583F4FC091F32AD091E2
S1131640F42AC20FD31F988196FF79C0D82EDD0CDF
S1131650DD0CD701AB50B54D8C91833049F184300A
S113166019F0823089F518C08A859B856817790737
S11316703CF482E08C9361E08D2D805F71DE26C0A6
S11316808C859D85861797070CF583E08C9361E024
S11316908D2D8F5E65DE1AC02A853B852617370798
S11316A0ACF484E08C9360E08D2D805F59DE0EC035
S11316B02C853D85621773074CF484E08C9360E0BD
S11316C08D2D8F5E4DDE02C084E08C938D2D825F64
S11316D0F701E950F54D90819130E9F098F094309C
S11316E061F52E853F85021713071CF4108261E013
S11316F01CC028893989201731070CF581E08083C3
S113170061E011C02E853F8520173107C4F494E0B1
S1131710908360E00AC028893989021713077CF492
S113172084E0808360E08D2D815FDF91CF911F91F4
S11317300F91FF90EF90DF9013CE84E08083DF91D0
S1131740CF911F910F91FF90EF90DF90089508CEF5
S11317508093FD2A9093FE2A0E943A1D44E150E0B2
S113176060E070E08FEF9AE297C42F923F924F921D
S11317705F926F927F928F929F92AF92BF92CF921D
S1131780DF92EF92FF920F931F93CF93DF93CDB726
S1131790DEB76197CDBFDEBF10920D2B00910F2BEA
S11317A01091102B2091112B3091122B6130C1F428
S11317B041E050E060E070E004C0440F551F661F34
S11317C0771F8A95D2F7402B512B622B732B4093B2
S11317D00F2B5093102B6093112B7093122B1DC061
S11317E061111BC041E050E060E070E004C0440FB0
S11317F0551F661F771F8A95D2F7409550956095BF
S11318007095402351236223732340930F2B5093ED
S1131810102B6093112B7093122BC0900F2BD09030
S1131820102BE090112BF090122B8090FD2A9090B9
S1131830FE2AA12CB12C612C712C99E0592ED701D0
S1131840C6010A2C04C0B695A795979587950A9466
S1131850D2F780FF2DC05A9C80015B9C100D11248F
S11318600F5F1F4F080D191DF801818183FD19C0F9
S11318704580442091F0472D50E0642D70E0CE0166
S113188001960E945621892B41F4E1E0F0E0EC0F2F
S1131890FD1FE70DF11D40827394F8018481682ACD
S11318A007C0982F977080910D2B892B80930D2B57
S11318B0FDE0AF16B10461F58090FD2A9090FE2AF8
S11318C0C4018F579F4F8F839887F401ED57FF4FC3
S11318D0E987FA87C4018B579F4F8B879C87F40154
S11318E0E957FF4FED87FE87C40189569F4F8F87C5
S11318F0988B140199E9290E311C2401EBE94E0E51
S1131900511CFDE98F0E911C8EE0A82EB12C59C0FC
S11319108FEFA81AB80A95E0971508F090CFCCCFAE
S1131920D701C6010A2C04C0B695A795979587954B
S11319300A94D2F780FF3EC02231B1F030F4203156
S113194069F078F42F30C9F406C0243191F078F0AE
S1131950253199F410C009851A8511C00B851C85A1
S11319600EC00D851E850BC00F85188908C0810126
S113197006C0820104C0840102C00F811885F801E9
S113198021812223A1F0472D50E0622F70E0CE0187
S11319900196298B0E9456212989892B41F4E1E083
S11319A0F0E0EC0FFD1FE70DF11D20837394F801A7
S11319B08081682AFFEFAF1ABF0A86E1A816B10436
S11319C029F02A2D95E0971508F0AACF81EA0E9404
S11319D09F1C81E00E949F1C80E00E949F1C862D1A
S11319E00E949F1C8E010F5F1F4FF12CF71428F4E7
S11319F0F80180810E949F1C03C080E00E949F1C0C
S1131A00F3940F5F1F4FF6E0FF12F0CF6196CDBF46
S1131A10DEBFDF91CF911F910F91FF90EF90DF9088
S1131A20CF90BF90AF909F908F907F906F905F907A
S1131A304F903F902F900895DF92EF92FF920F9373
S1131A401F93CF93DF938A0146E1849F9001112471
S1131A5021583F4FC091FD2AD091FE2AC20FD31FB7
S1131A60E82EF12C9EE0899FD0011124A85CBF4D83
S1131A7012964C91129713969C9113971496FC917D
S1131A8014971596EC91288126FD52C0242F392FE6
S1131A908A899B89A901481B590B6417750774F43B
S1131AA0821B930B860F971F97FF02C081509F4F95
S1131AB08091072B890F8093072B10C0820F931FEF
S1131AC0861797075CF4681B790B77FF02C0615097
S1131AD07F4F8091072B870F8093072B2F2F3E2F4B
S1131AE08C899D89A901481B590B0417150774F4A7
S1131AF0821B930B800F911F97FF02C081509F4F51
S1131B008091082B890F8093082B8AC0820F931F22
S1131B10801791070CF084C0081B190B17FF02C033
S1131B2001501F4F8091082B810F8093082B78C0A0
S1131B30D82EDD0CDD0CD701A75FB44D8C9183301A
S1131B4049F1843019F0823089F518C08A859B8563
S1131B50681779073CF482E08C9361E08D2D805FF7
S1131B6004DE26C08C859D85861797070CF583E0D7
S1131B708C9361E08D2D8F5EF8DD1AC02A853B853C
S1131B8026173707ACF484E08C9360E08D2D805FDA
S1131B90ECDD0EC02C853D85621773074CF484E0A0
S1131BA08C9360E08D2D8F5EE0DD02C084E08C9329
S1131BB08D2D825FF701E55FF44D9081913011F135
S1131BC0B8F0943059F52E853F850217130724F495
S1131BD0108261E0CADD24C02889398920173107C1
S1131BE0FCF481E0808361E08D2D815FBEDD18C04F
S1131BF02E853F85201731079CF494E0908360E0A4
S1131C00B4DD0EC028893989021713074CF484E027
S1131C10808360E08D2D815FA8DD02C084E0808335
S1131C208091072B81110BC08091082B811107C073
S1131C3090910D2B80910E2B981709F440C08FEFD3
S1131C409AE243D28823D9F144E150E060E070E0A5
S1131C508FEF9AE221D280910D2B80930E2B81EA93
S1131C600E949F1C83E00E949F1C80910D2B0E9468
S1131C709F1C8091072B0E949F1C2091072B3327C8
S1131C8027FD3095232F330F330B2F70332780918B
S1131C90082B40E18402C0011124822B0E949F1C66
S1131CA08091082B85958595859585950E949F1C27
S1131CB080E00E949F1C1092072B1092082BDF914A
S1131CC0CF911F910F91FF90EF90DF9008954DCD2C
S1131CD0682F80EA99E00C948719CF93DF93EC0185
S1131CE001C0F6DF89918111FCCFDF91CF91089576
S1131CF0F4DF8DE0EDDF8AE0EBCFCF93DF93CDB758
S1131D00DEB72797CDBFDEBF87E0EFE5F0E2DE0167
S1131D10119601900D928A95E1F760E184E072D307
S1131D20E8ECF1E0849190E0D8DF1BD3BE016F5F53
S1131D307F4F80EA99E00E946C1A882331F0EEED1F
S1131D40F1E0849190E0D4DF05C0EAEDF1E0849104
S1131D5090E0CEDF2796CDBFDEBFDF91CF9108950F
S1131D606150710981099109D9F70895E0E6F6E017
S1131D708085881F8827881F089540E060E080E000
S1131D8050D182E33FD160E07CE782E990E0E8DF74
S1131D9081E498E20E94C11C8DE498E20E94C11C77
S1131DA01BC040E060E082E33CD16AEA76E480E173
S1131DB090E0D6DF40E062E380E033D16AEA76E483
S1131DC080E190E0CDDF42E360E080E02AD16AEA7E
S1131DD076E480E190E0C4DF8091480687FFE1CF9C
S1131DE008958BDF80E0CED080914806809148062C
S1131DF08091480680914806C0CF615071098109DD
S1131E009109D9F70895FF920F931F93CF93DF930E
S1131E10CDB7DEB72897CDBFDEBFAC0160E070E080
S1131E208E010F5F1F4FC80137D10E940207F82EA1
S1131E3005C088E00E946C03882349F0C80145D19D
S1131E408823B9F38F2D0E946C0681E001C080E0E5
S1131E502896CDBFDEBFDF91CF911F910F91FF90E8
S1131E6008957FD280E08ED20E94E91C6AEA70EA6B
S1131E7081E090E0C2DF789480914800817F8460A3
S1131E808093480080914800816080934800889541
S1131E9080ED97E0B8DF8823D1F3809148008E7FEE
S1131EA08093480061E089E790E08ED3FFCFCF9222
S1131EB0DF92EF92FF92CF93DF93EC0152D280E056
S1131EC061D2C1D06B017C018091A80682FDFCCF58
S1131ED065E570ED80E090E090DFCC0EDD1EE11C46
S1131EE0F11CB1D0C1E06C157D058E059F0508F08D
S1131EF0C0E081E047D235D28C2FDF91CF91FF90A3
S1131F00EF90DF90CF900895CF93C82F80ED97E0A6
S1131F10CEDF811102C08C2FA4DF81E0CF91089520
S1131F20CF93DF93EC012D813E81A62FB0E00E9478
S1131F304A2124E630E040E050E00E9428218A81D2
S1131F40E881F981E6FD11C08230B9F018F48130DE
S1131F50B1F410C0833019F0843089F403C024AF85
S1131F6035AF0DC026AF37AF0AC0813019F08230CB
S1131F7031F403C020AF31AF02C022AF33AFDF91E1
S1131F80CF9108958093132B24EF31E042E066E073
S1131F9084E19BE20E94231B24EF31E041E062E0F4
S1131FA08BE19BE20E94231B24EF31E042E062E0DC
S1131FB082E29BE20E94231B64E684E19BE20E948E
S1131FC0CE1B64E68BE19BE20E94CE1B64E682E2B8
S1131FD09BE20C94CE1B853608F084E664E6681B0D
S1131FE084E19BE29DCF853608F084E69091132B23
S1131FF064E6681B992319F082E29BE291CF8BE19E
S11320009BE28ECF853608F084E69091132B64E62C
S1132010681B992319F08BE19BE282CF82E29BE259
S11320207FCFCF93DF9300D0CDB7DEB74A836983E8
S1132030D2DF6981862FD7DF4A81842F0F900F90DA
S1132040DF91CF91DFCF0F931F938FB7F894009157
S11320502B2B10912C2B20912D2B30912E2B8FBFBD
S1132060B801C9011F910F9108952FB7F894809179
S11320702B2B90912C2BA0912D2BB0912E2B0196D4
S1132080A11DB11D80932B2B90932C2BA0932D2B52
S1132090B0932E2B2FBF0895CF92DF92EF92FF9231
S11320A0CF93DF93EC016A017B01CDDF68837983F1
S11320B08A839B83CC82DD82EE82FF82DF91CF9183
S11320C0FF90EF90DF90CF9008950F931F93CF93DD
S11320D0DF93EC018C819D81AE81BF81892B8A2B9A
S11320E08B2BC1F0B0DF088119812A813B81601BF1
S11320F0710B820B930B41E050E00C811D812E810A
S11321003F81601771078207930710F440E050E0A5
S1132110CA0102C080E090E08170DF91CF911F91ED
S11321200F910895FC011482158216821782089576
S113213080E498E00C94D01880E498E00C940B1997
S1132140E0E4F8E084858160848708950F931F9309
S1132150CF93DF938C01ECDFC0E4D8E088858E6FE9
S113216088878981887F898318A219A280E09DE7E6
S11321708EA39FA3E5DFB80180E498E00E9446198E
S11321808E818C7F8E838E8181608E838881807F17
S113219081608883DF91CF911F910F91CDCF60E152
S11321A083E030D189E598E298DDDBD064E570E224
S11321B080EA98E00E946C1A882321F089E698E26C
S11321C097DD03C08EE698E293DD40E465E37BE2AD
S11321D08FE29BE20E94E20340E26BE77BE285E749
S11321E09BE20E94E2038091A3088F7C806180932C
S11321F0A3080895CF93C82F6C2F85E79BE20E9414
S1132200EB038823C9F38091A3088C7F81608093BA
S1132210A308CF9108950F931F93CF93DF931F9239
S1132220CDB7DEB78C0103C06983E4DF6981F801AF
S113223081918F018111F8CF662331F00F90DF91E6
S1132240CF911F910F91D6CF0F90DF91CF911F9116
S11322500F91089560E0DFDF8DE0CCDF8AE0CACF24
S1132260462FBC018FE29BE20C9450041F920F9204
S11322700FB60F9211240BB60F922F933F934F93E7
S11322805F936F937F938F939F93AF93BF93EF93DA
S1132290FF936091A0086B3129F461E089E790E035
S11322A093D1FFCF8FE29BE20E94EB0380E88093FF
S11322B0A108FF91EF91BF91AF919F918F917F9171
S11322C06F915F914F913F912F910F900BBE0F90A3
S11322D00FBE0F901F9018951F920F920FB60F927A
S11322E011240BB60F922F933F934F935F936F93E9
S11322F07F938F939F93AF93BF93EF93FF93CF936A
S1132300DF931F92CDB7DEB7BE016F5F7F4F85E7C6
S11323109BE20E940904882321F089818093A0080C
S113232005C08091A3088C7F8093A3080F90DF9150
S1132330CF91FF91EF91BF91AF919F918F917F9139
S11323406F915F914F913F912F910F900BBE0F9022
S11323500FBE0F901F9018958AE00E949D1A0C944E
S1132360B31A82E798E2B9DCA895089580915B20BE
S113237090915C20009729F0019780935B209093C3
S11323805C20EFCF81110C94B31A0C94AC1A8823FF
S113239019F0823071F407C084E690E080935B20EA
S11323A090935C20089584E690E080935D20909360
S11323B05E2008958FEF8093700080937100809366
S11323C072008093730080937400809375008093EF
S11323D076009FB7F89480915000826080935000FB
S11323E09FBF8091510081FFFCCF61E080E490E0C9
S11323F0EBD09FB7F894809150008E7F809350006B
S11324009FBF08959FB7F894E82FF0E0E059FF4F7D
S113241060958081862380839FBF08959FB7F89439
S1132420E82FF0E0E059FF4F8081862B80839FBF27
S113243008958115924059F480919B2B982F9F5FAA
S113244090939B2B811103C062E081E0DBCF089560
S11324508115924051F480919B2B815080939B2B4A
S1132460811103C062E081E0D9CF08951F93CF9317
S1132470DF93EC011FB7F894DCDF888181608883E7
S11324801FBF9FB7F894EDE6FCE280818F5F8083E5
S11324909FBFDF91CF911F910895FF920F931F93D8
S11324A0CF93DF93EB0181159240A1F561E270E0D7
S11324B082E080D1182F60E270E082E07BD1312F7E
S11324C020E08901082BFFB6F89480E092E0B1DFA8
S11324D020910002217082E08093000200930C029C
S11324E010930D028C819D818093180290931902A0
S11324F08981809302028B81809304028A81809374
S113250003028881809301022093000280E092E01C
S11325109FDFFFBEDF91CF911F910F91FF90089530
S1132520FF920F931F93CF93DF93EC018B01FFB6C0
S1132530F8947FDF888D998DF801848395838A814F
S113254081838C8183838B81828389818083CE0183
S11325507FDFFFBEDF91CF911F910F91FF90089510
S1132560FF920F931F93CF93DF93EC018A01FFB681
S1132570F8945FDFF801808188A382818AA3818136
S113258089A3CE0165DFFFBEDF91CF911F910F912B
S1132590FF900895FF920F931F93CF93DF93EC0165
S11325A08A01FFB6F89445DF88A1F80180838AA1E7
S11325B0828389A18183CE014BDFFFBEDF91CF915E
S11325C01F910F91FF9008951BBEFC0128ED24BFBD
S11325D0608308958091CF0187FDFCCF08951F93F8
S11325E0CF93DF93C0ECD1E01A858A8761E08BEC4E
S11325F091E0EADF1A87DF91CF911F910895EF925E
S1132600FF920F931F93CF93DF9300D000D0CDB7E9
S1132610DEB78C01CB014B835C8369839A83DADF59
S11326208CECE82EFF24F394F701208128602083AA
S11326309801305F4B815C81B90189819A810E9444
S11326406321F7018081877F80832496CDBFDEBF1D
S1132650DF91CF911F910F91FF90EF900895BADF12
S11326608091CF0181FF07C086E38093CA0161E0B6
S11326708BEC91E0A9CF0895EF92FF921F93CF9333
S1132680DF9300D01F92CDB7DEB720ECE22EFF24FB
S1132690F394F701128569838A839B83E0DF9ADFD1
S11326A023E3F701228712829B8191838A818083AD
S11326B06981648385E3828761E08BEC91E084DF48
S11326C0F70112872396CDBFDEBFDF91CF911F9113
S11326D0FF90EF9008951F93CF93DF93EC01109137
S11326E0CA0178DF83E38093CA011092C201109279
S11326F0C10180E08093C00199919093C4018F5FE0
S11327008032C1F71093CA01DF91CF911F910895D0
S1132710CF93DF931F92CDB7DEB789835BDF8981C7
S113272020E2829FC0011124E0ECF1E01282918347
S1132730808385E30F90DF91CF9151CFCF92DF92C9
S1132740EF92FF920F931F93CF93DF93EC017B01E2
S11327508A0124C0CE018F719927892B99F4003204
S1132760110580F0C701B7DFCE0145E09695879546
S11327704A95E1F7CDDFA09680E2E80EF11C005205
S113278011090CC06E01EFEFCE1ADE0AF701619158
S11327907F01CE0171DF01501109E6010115110518
S11327A0C9F6DF91CF911F910F91FF90EF90DF90C9
S11327B0CF9008954091CA01E62FF72F8093CA0164
S11327C084914093CA0108951F920F920FB60F92FD
S11327D011240BB60F922F933F934F935F936F93F4
S11327E07F938F939F93AF93BF93EF93FF93E09166
S11327F09C2BF0919D2B309709F00995FF91EF9157
S1132800BF91AF919F918F917F916F915F914F9104
S11328103F912F910F900BBE0F900FBE0F901F9002
S113282018951F920F920FB60F9211240BB60F92A8
S11328302F933F934F935F936F937F938F939F93C4
S1132840AF93BF93EF93FF93E0919E2BF0919F2B57
S1132850309709F00995FF91EF91BF91AF919F9146
S11328608F917F916F915F914F913F912F910F9035
S11328700BBE0F900FBE0F901F9018951F920F92D2
S11328800FB60F9211240BB60F922F933F934F93D1
S11328905F936F937F938F939F93AF93BF93EF93C4
S11328A0FF93E091A02BF091A12B309709F00995AB
S11328B0FF91EF91BF91AF919F918F917F916F9114
S11328C05F914F913F912F910F900BBE0F900FBED0
S11328D00F901F9018951F920F920FB60F9211240C
S11328E00BB60F922F933F934F935F936F937F9306
S11328F08F939F93AF93BF93EF93FF93E091A22B9A
S1132900F091A32B309709F00995FF91EF91BF91B6
S1132910AF919F918F917F916F915F914F913F9173
S11329202F910F900BBE0F900FBE0F901F90189514
S11329301F920F920FB60F9211240BB60F922F9382
S11329403F934F935F936F937F938F939F93AF9333
S1132950BF93EF93FF93E091A42BF091A52B3097B5
S113296009F00995FF91EF91BF91AF919F918F91DC
S11329707F916F915F914F913F912F910F900BBE7B
S11329800F900FBE0F901F9018951F920F920FB6C5
S11329900F9211240BB60F922F933F934F935F9393
S11329A06F937F938F939F93AF93BF93EF93FF9313
S11329B0E091A62BF091A72B309709F00995FF9190
S11329C0EF91BF91AF919F918F917F916F915F91A3
S11329D04F913F912F910F900BBE0F900FBE0F9010
S11329E01F9018951F920F920FB60F9211240BB6D9
S11329F00F922F933F934F935F936F937F938F9394
S1132A009F93AF93BF93EF93FF93E091A82BF09123
S1132A10A92B309709F00995FF91EF91BF91AF91E0
S1132A209F918F917F916F915F914F913F912F91E2
S1132A300F900BBE0F900FBE0F901F9018951F9212
S1132A400F920FB60F9211240BB60F922F933F9350
S1132A504F935F936F937F938F939F93AF93BF93A2
S1132A60EF93FF93E091AA2BF091AB2B309709F0F1
S1132A700995FF91EF91BF91AF919F918F917F91B4
S1132A806F915F914F913F912F910F900BBE0F90DB
S1132A900FBE0F901F9018951F920F920FB60F92B2
S1132AA011240BB60F922F933F934F935F936F9321
S1132AB07F938F939F93AF93BF93EF93FF93E09193
S1132AC0AC2BF091AD2B309709F00995FF91EF9164
S1132AD0BF91AF919F918F917F916F915F914F9132
S1132AE03F912F910F900BBE0F900FBE0F901F9030
S1132AF018951F920F920FB60F9211240BB60F92D6
S1132B002F933F934F935F936F937F938F939F93F1
S1132B10AF93BF93EF93FF93E091AE2BF091AF2B64
S1132B20309709F00995FF91EF91BF91AF919F9173
S1132B308F917F916F915F914F913F912F910F9062
S1132B400BBE0F900FBE0F901F9018951F920F92FF
S1132B500FB60F9211240BB60F922F933F934F93FE
S1132B605F936F937F938F939F93AF93BF93EF93F1
S1132B70FF93E091B02BF091B12B309709F00995B8
S1132B80FF91EF91BF91AF919F918F917F916F9141
S1132B905F914F913F912F910F900BBE0F900FBEFD
S1132BA00F901F9018951F920F920FB60F92112439
S1132BB00BB60F922F933F934F935F936F937F9333
S1132BC08F939F93AF93BF93EF93FF93E091B22BB7
S1132BD0F091B32B309709F00995FF91EF91BF91D4
S1132BE0AF919F918F917F916F915F914F913F91A1
S1132BF02F910F900BBE0F900FBE0F901F90189542
S1132C001F920F920FB60F9211240BB60F922F93AF
S1132C103F934F935F936F937F938F939F93AF9360
S1132C20BF93EF93FF93E091B42BF091B52B3097C2
S1132C3009F00995FF91EF91BF91AF919F918F9109
S1132C407F916F915F914F913F912F910F900BBEA8
S1132C500F900FBE0F901F9018951F920F920FB6F2
S1132C600F9211240BB60F922F933F934F935F93C0
S1132C706F937F938F939F93AF93BF93EF93FF9340
S1132C80E091B62BF091B72B309709F00995FF919D
S1132C90EF91BF91AF919F918F917F916F915F91D0
S1132CA04F913F912F910F900BBE0F900FBE0F903D
S1132CB01F9018951F920F920FB60F9211240BB606
S1132CC00F922F933F934F935F936F937F938F93C1
S1132CD09F93AF93BF93EF93FF93E091B82BF09141
S1132CE0B92B309709F00995FF91EF91BF91AF91FE
S1132CF09F918F917F916F915F914F913F912F9110
S1132D000F900BBE0F900FBE0F901F9018951F923F
S1132D100F920FB60F9211240BB60F922F933F937D
S1132D204F935F936F937F938F939F93AF93BF93CF
S1132D30EF93FF93E091BA2BF091BB2B309709F0FE
S1132D400995FF91EF91BF91AF919F918F917F91E1
S1132D506F915F914F913F912F910F900BBE0F9008
S1132D600FBE0F901F9018951F920F920FB60F92DF
S1132D7011240BB60F922F933F934F935F936F934E
S1132D807F938F939F93AF93BF93EF93FF93E091C0
S1132D90BC2BF091BD2B309709F00995FF91EF9171
S1132DA0BF91AF919F918F917F916F915F914F915F
S1132DB03F912F910F900BBE0F900FBE0F901F905D
S1132DC018951F920F920FB60F9211240BB60F9203
S1132DD02F933F934F935F936F937F938F939F931F
S1132DE0AF93BF93EF93FF93E091BE2BF091BF2B72
S1132DF0309709F00995FF91EF91BF91AF919F91A1
S1132E008F917F916F915F914F913F912F910F908F
S1132E100BBE0F900FBE0F901F9018951F920F922C
S1132E200FB60F9211240BB60F922F933F934F932B
S1132E305F936F937F938F939F93AF93BF93EF931E
S1132E40FF93E091C02BF091C12B309709F00995C5
S1132E50FF91EF91BF91AF919F918F917F916F916E
S1132E605F914F913F912F910F900BBE0F900FBE2A
S1132E700F901F9018951F920F920FB60F92112466
S1132E800BB60F922F933F934F935F936F937F9360
S1132E908F939F93AF93BF93EF93FF93E091C22BD4
S1132EA0F091C32B309709F00995FF91EF91BF91F1
S1132EB0AF919F918F917F916F915F914F913F91CE
S1132EC02F910F900BBE0F900FBE0F901F9018956F
S1132ED01F920F920FB60F9211240BB60F922F93DD
S1132EE03F934F935F936F937F938F939F93AF938E
S1132EF0BF93EF93FF93E091C42BF091C52B3097D0
S1132F0009F00995FF91EF91BF91AF919F918F9136
S1132F107F916F915F914F913F912F910F900BBED5
S1132F200F900FBE0F901F9018951F920F920FB61F
S1132F300F9211240BB60F922F933F934F935F93ED
S1132F406F937F938F939F93AF93BF93EF93FF936D
S1132F50E091C62BF091C72B309709F00995FF91AA
S1132F60EF91BF91AF919F918F917F916F915F91FD
S1132F704F913F912F910F900BBE0F900FBE0F906A
S1132F801F9018951F920F920FB60F9211240BB633
S1132F900F922F933F934F935F936F937F938F93EE
S1132FA09F93AF93BF93EF93FF93E091C82BF0915E
S1132FB0C92B309709F00995FF91EF91BF91AF911B
S1132FC09F918F917F916F915F914F913F912F913D
S1132FD00F900BBE0F900FBE0F901F9018951F926D
S1132FE00F920FB60F9211240BB60F922F933F93AB
S1132FF04F935F936F937F938F939F93AF93BF93FD
S1133000EF93FF93E091CA2BF091CB2B309709F00B
S11330100995FF91EF91BF91AF919F918F917F910E
S11330206F915F914F913F912F910F900BBE0F9035
S11330300FBE0F901F9018951F920F920FB60F920C
S113304011240BB60F922F933F934F935F936F937B
S11330507F938F939F93AF93BF93EF93FF93E091ED
S1133060CC2BF091CD2B309709F00995FF91EF917E
S1133070BF91AF919F918F917F916F915F914F918C
S11330803F912F910F900BBE0F900FBE0F901F908A
S113309018951F920F920FB60F9211240BB60F9230
S11330A02F933F934F935F936F937F938F939F934C
S11330B0AF93BF93EF93FF93E091CE2BF091CF2B7F
S11330C0309709F00995FF91EF91BF91AF919F91CE
S11330D08F917F916F915F914F913F912F910F90BD
S11330E00BBE0F900FBE0F901F9018951F920F925A
S11330F00FB60F9211240BB60F922F933F934F9359
S11331005F936F937F938F939F93AF93BF93EF934B
S1133110FF93E091D02BF091D12B309709F00995D2
S1133120FF91EF91BF91AF919F918F917F916F919B
S11331305F914F913F912F910F900BBE0F900FBE57
S11331400F901F9018951F920F920FB60F92112493
S11331500BB60F922F933F934F935F936F937F938D
S11331608F939F93AF93BF93EF93FF93E091D22BF1
S1133170F091D32B309709F00995FF91EF91BF910E
S1133180AF919F918F917F916F915F914F913F91FB
S11331902F910F900BBE0F900FBE0F901F9018959C
S11331A0CF93CFB7F894811528E0920711F461E02A
S11331B005C0803428E0920731F462E083E022D92C
S11331C064E083E01CC0811529E0920731F461E0DA
S11331D084E018D964E084E012C081152AE09207E3
S11331E031F461E085E00ED964E085E008C0811522
S11331F09B4071F461E086E005D964E086E002D981
S11332009FB7F89480916D2C8F5F80936D2C9FBF36
S1133210CFBFCF910895CF93CFB7F8943FB7F89429
S113322020916D2C215020936D2C3FBF811528E0F7
S1133230920711F461E005C0803428E0920731F46C
S113324062E083E0EBD864E083E01CC0811529E0F0
S1133250920731F461E084E0E1D864E084E012C0D4
S113326081152AE0920731F461E085E0D7D864E063
S113327085E008C081159B4031F461E086E0CED83A
S113328064E086E0CBD8CFBFCF910895811528E0C4
S1133290920729F460939C2B70939D2B089580349E
S11332A028E0920729F46093A82B7093A92B089522
S11332B0811529E0920729F46093B02B7093B12B08
S11332C0089581152AE0920729F46093BC2B70932A
S11332D0BD2B089581159B4021F46093C82B7093F6
S11332E0C92B0895803A28E0920719F460E183E03D
S11332F00CC0803A29E0920719F460E184E005C02B
S1133300803A9A4019F460E185E07CC80895FC0194
S1133310218125FFFCCF608380E090E008958F92A7
S11333209F92AF92BF92CF92DF92EF92FF920F9350
S11333301F93CF93DF93EC016A017B01480159018C
S1133340B901A801A3E07695679557954795AA9585
S1133350D1F7D901C80116E1B695A7959795879538
S11333601A95D1F72C8122FD08C07695679557955B
S11333704795B695A795979587954C155D056E0568
S11333807F0508F49BC0C816D906EA06FB0608F4B4
S113339095C08C8182FD04C0CC0CDD1CEE1CFF1C8E
S11333A0C501B401A701960153D78FEF90E0A0E0C7
S11333B0B0E019EF281739074A075B0758F0880F60
S11333C0991FAA1FBB1F1D3F0CF481601F5F17309C
S11333D089F74BC017FF49C0D701C60103E0880F26
S11333E0991FAA1FBB1F0A95D1F7881A990AAA0A1E
S11333F0BB0A812F992787FD90951E3FE4F46DEF5A
S11334007FEF681B790BA501940104C0220F331FC1
S1133410441F551F6A95D2F7CA01B90146015701E5
S1133420B694A79497948794680D791D8A1D9B1D63
S1133430A701960118C09C012D5F3F4FD701C6011B
S113344004C0880F991FAA1FBB1F2A95D2F79C019D
S1133450AD01BC01CD019695879577956795680D6B
S1133460791D8A1D9B1DF4D620C0212F332727FDEB
S113347030952D5F3F4FD701C60104C0880F991FB7
S1133480AA1FBB1F2A95D2F79C01AD01BC01CD0137
S11334909695879577956795680D791D8A1D9B1D6F
S11334A0D7D62150310941095109832F8F701295C4
S11334B0107F812B8F832E8381E001C080E0DF9118
S11334C0CF911F910F91FF90EF90DF90CF90BF901D
S11334D0AF909F908F9008950F931F93CF93DF9396
S11334E0EC018B01FFDE8D818F738D83F801848164
S11334F09581892B9681992311F098E001C090E081
S1133500892B8D83F801408151816281738100E0B0
S113351018E428EE31E0CE0102DF9C8198609C83A0
S11335209C8190619C83DF91CF911F910F910895AD
S11335308091820080FDFCCF08956091800024E09A
S1133540829FC00111248C73992762706160682B7B
S113355080E890E039D8ECCF609180006C7F6160A6
S113356080E890E031C8609180006C73636080E80B
S113357090E02AD8DDCFCF92DF92EF92FF92CF93E3
S1133580DF93EC016B01E12CF12C60E078E488EE30
S113359091E0A70196015CD6CA01B9012FEF3FEF74
S11335A040E050E055D62115310529F481E08C83A3
S11335B021E030E02DC02130310529F482E08C83F4
S11335C022E030E025C02430310528F483E08C83E8
S11335D024E030E01DC02830310528F484E08C83D9
S11335E028E030E015C02034310528F485E08C83D0
S11335F020E430E00DC02F3F310509F028F486E0C7
S11336008C8320E031E004C087E08C8320E034E048
S113361040E050E060E078E488EE91E019D6CA0119
S1133620B901A701960114D62D833E8324363105B2
S113363018F41C821D821E82DF91CF91FF90EF90BF
S1133640DF90CF9008950F931F93CF93DF93EC01F6
S113365089016230C1F130F4662359F0613009F018
S11336606EC01CC0643009F443C0663009F067C002
S113367053C080E098E08883998350914006242FBA
S113368030E02150310981E090E0022E01C0880F22
S11336900A94EAF7582B5093400651C080E498E00E
S11336A08883998350914006242F30E02D5F3F4F4B
S11336B081E090E0022E01C0880F0A94EAF7582BAB
S11336C0509340063CC080E099E0888399835091F0
S11336D06006242F30E02150310981E090E0022E71
S11336E001C0880F0A94EAF7582B5093600627C04C
S11336F080E09AE08883998320918006E42FF0E0AB
S1133700319781E090E00E2E01C0880F0A94EAF709
S1133710282B2093800613C080E09BE08883998344
S11337202091A006E42FF0E0319781E090E00E2E86
S113373001C0880F0A94EAF7282B2093A0064A8335
S1133740423061F018F4413089F405C0433049F047
S1133750443061F409C080E18B8308C080E28B832C
S113376005C080E48B8302C080E88B8388819981C3
S113377017DDE881F9818181887F836081831D82DF
S11337801E821C82E881F9818081807F8083B80158
S1133790CE01DF91CF911F910F91EDCECF93DF93A7
S11337A0EC012D813E81A62FB0E074D524E630E0F3
S11337B040E050E04DD58A81E881F981E6FD11C0F1
S11337C08230B9F018F48130B1F410C0833019F0AC
S11337D0843089F403C024AF35AF0DC026AF37AFB2
S11337E00AC0813019F0823031F403C020AF31AF08
S11337F002C022AF33AF8D819E81E881F98186A317
S113380097A38B81E881F9819181E6FD03C0982B10
S1133810918303C08073892B8183E881F98180813E
S1133820807F9C81892B8083DF91CF9108956150A3
S1133830710981099109D9F70895CF93DF93CDB721
S1133840DEB72797CDBFDEBF87E0E6E6F0E2DE0114
S1133850119601900D928A95E1F760E185E00E944E
S1133860021284E798E20E946D0E0E94B111BE011B
S11338706F5F7F4F80EA9AE02FDE882339F0EEED08
S1133880F1E0849190E00E94780E06C0EAEDF1E048
S1133890849190E00E94780E2796CDBFDEBFDF9121
S11338A0CF910895CF93DF93EC018091880684FD36
S11338B013C082E0809385060AC08091880684FD47
S11338C00BC0219765ED74E180E090E0B0DF1C1639
S11338D01D069CF380E001C081E0DF91CF91089543
S11338E0CF93DF9383E898E20E94780EC0E8D6E095
S11338F080E28D8365E573E288E090E098DF81E003
S11339008E8380E89EE3CEDF8093D42BDF91CF912A
S113391008951F93CF93DF93C0EAD6E011E01E838E
S1133920DFDF60E07AE688E190E081DF1D8365E512
S113393073E288E090E0DF91CF911F9178CFCF932D
S1133940DF931F92CDB7DEB7682F88EE93E06983CB
S1133950A9DF6981882331F080EA9AE00F90DF9132
S1133960CF91D5CC0F90DF91CF910895CF93DF9372
S1133970EC0101C0E4DF89918111FCCFDF91CF918B
S11339800895CF93DF93EC0188EE93E08BDF8823D7
S113399031F0CE01EBDF8DE0D2DF8AE0D0DF80E0D2
S11339A0DF91CF91089588E898E20E94780EA89557
S11339B080ED97E077DF8FE898E2E3DFA89588EE63
S11339C093E070DF88E998E2DCDFA89580E797E16F
S11339D069CF87EA98E20E94780E80ED97E062DF73
S11339E08DEA98E2CEDFE0E8F6E081E0858380E2CC
S11339F08683089580ED97E055DF83EB98E2C1DF7D
S1133A0086EC98E2BEDF88EE93E04CDF8DED98E221
S1133A10B8DF65E573E288E090E009DFDADF6AEA9F
S1133A2071E184E090E003DF5BCF1F93CF93DF93DA
S1133A30D0DFC0EAD6E011E01E8352DF6AEA7BE7FA
S1133A408CE190E0F4DE1D83DF91CF911F91089506
S1133A50E0E8F6E0808586FB882780F991E08927F5
S1133A60089588EE93E01EDF85EF98E28ACF8BEF0E
S1133A7098E287CF85E199E284CF82E299E281CF0F
S1133A808FE299E27ECF6150710981099109D9F7DA
S1133A9008950E94A0100E9435108091DB2B909114
S1133AA0DC2B0196883E23E0920728F48093DB2BDD
S1133AB09093DC2B08951092DB2B1092DC2B0C944A
S1133AC0B611FF920F931F93CF93DF93182FC0DF8C
S1133AD0F82E8091480680FD02C003E001C000E09A
S1133AE083E00E943601EC0140E060E080E00E9447
S1133AF01110FF20A1F0011107C0C03ADF4010F4FB
S1133B0081E006C081E00CC0CC3ADD40D8F7812FBB
S1133B10DF91CF911F910F91FF900C94F30F812FA0
S1133B20DF91CF911F910F91FF900C94021080911F
S1133B30752C823009F457C030F4882371F1813038
S1133B4009F064C019C0843021F0873009F05EC0E8
S1133B5037C088EA9BE08093D52B9093D62B87E6D9
S1133B609EE08093D72B9093D82B8CE19DE080939B
S1133B70D92B9093DA2B089582E993E08093D52B87
S1133B809093D62B88E993E08093D72B9093D82BEE
S1133B901092D92B1092DA2B08958AEA99E0809337
S1133BA0D52B9093D62B87EA9BE08093D72B9093C9
S1133BB0D82B8DE09BE08093D92B9093DA2B08953A
S1133BC08DE698E08093D52B9093D62B82E699E0EE
S1133BD08093D72B9093D82B80EE98E08093D92BA9
S1133BE09093DA2B08958CE497E08093D52B9093EF
S1133BF0D62B85E298E08093D72B9093D82B8CEB2F
S1133C0097E08093D92B9093DA2B08951092D52BBB
S1133C101092D62B1092D72B1092D82B1092D92B0E
S1133C201092DA2B08959FB7F89484E08093AA0643
S1133C302FB7F8948093B000E0EAF6E08089887F9B
S1133C40808B80898160808B2FBF82E08093A9065E
S1133C509FBF0895CF93DF93CDB7DEB7ED97CDBF68
S1133C60DEBF1092742C0E94DA110E946A016AE28B
S1133C7078E680E090E007DF80E00E94C20F41E038
S1133C8060E080E00E94111088E00E946C038111C2
S1133C90FBCFB0DE25DED1DD0E94B60E81110E947D
S1133CA0F10E0E94AC1189E49DE10E94A6100E94CD
S1133CB07D0E0E94CF100E9415010E946601809122
S1133CC038200E94360180934220909343208093B1
S1133CD03A2090933B2080933E2090933F20809104
S1133CE039200E943601809344209093452080938C
S1133CF03C2090933D2080934020909341208091DC
S1133D0046200E9436018093502090935120809346
S1133D1048209093492080934C2090934D2080918B
S1133D2047200E9436018093522090935320809321
S1133D304A2090934B2080934E2090934F201092D2
S1133D406C2C10926D2C10926E2C10926F2C109281
S1133D50702C81E08093712C0E94981064DF87E0BE
S1133D608093A20078948091612C881F8827881FF3
S1133D709091622C9F73990F982B81E009F480E055
S1133D800E94840F8093732C0E9402078BAF0E94C1
S1133D906C06CDDE8091622C829586958695837023
S1133DA09091632C990F990F982B81E009F080E092
S1133DB00E94C20F82E898E20E942A118CE399E2E1
S1133DC00E942A1186E499E20E942A118CE399E266
S1133DD00E942A1182E898E20E94780E8CE399E20C
S1133DE00E94780E86E499E20E94780E8CE399E2B0
S1133DF00E94780E8091752C20E1829FC0011124CD
S1133E008F51944DD0DDA895E091D52BF091D62B10
S1133E10309721F085E79CE2099504C08FE599E28B
S1133E200E94780E6E0181E3C80ED11C41E050E07F
S1133E3060E070E0C6010E944C100E94B1117E0146
S1133E4099E2E90EF11C44E050E060E070E0C70143
S1133E500E944C100E94B11148EE53E060E070E003
S1133E60CE0141960E944C100E94B1118E01075F51
S1133E701F4F48EE53E060E070E0C8010E944C1010
S1133E800E94B11140EE53E964E070E0CE01019666
S1133E900E944C100E94B1115E01A1E2AA0EB11C55
S1133EA0C5010E9492108DE799E20E94780E1AAE25
S1133EB019AE3C2C2D2C7E2C6F2C502E412EE3EE73
S1133EC0F1E0B491BCAF9A2C8B2C832D922D0E94DF
S1133ED0651081111FC0872D962D0E9465108111D8
S1133EE019C0852D942D0E946510811113C08091F5
S1133EF04800817FECAD8E2B809348008091480070
S1133F0081608093480078948895809148008E7FE2
S1133F10809348000E94B11180E00E94C711852D52
S1133F20942D0E946510882379F048EE53E060E0F8
S1133F3070E0852D942D0E944C108091742CF1E03A
S1133F408F278093742CBDDD832D922D0E946510E4
S1133F50882309F4AEC041E050E060E070E0832DB6
S1133F60922D0E944C1082E0E82E80E2F82E91E01F
S1133F70C92E90E2D92E8601570190E0D5018C918B
S1133F80811107C0892F9DAF0E946C039DAD8111E3
S1133F900BC0D5018C91882361F0892F9DAF0E94BD
S1133FA06C039DAD811105C0F80180818F5F808312
S1133FB002C0D8011C929F5FB4E0AB0EB11C0C5F31
S1133FC01F4F9E30D9F610E0F6018081843078F1DD
S1133FD01082F7018081811103C021E0208301C098
S1133FE010828091D72B9091D82B892B81F040EEB1
S1133FF053E964E070E0CE0101960E944C10E09118
S1134000D72BF091D82BD7016C91812F09951830BB
S113401071F480912220813051F4B2E0B0932220D7
S1134020E091D72BF091D82B60E088E009951F5FD1
S1134030E4E0CE0ED11CF4E0EF0EF11C1E3021F6AC
S113404029AD2111C1C0809122208823A1F02091A3
S1134050DD2B30E0A2E3B0E01DD1AB01BC01892D22
S1134060982D0E944C1081E089AFAEC0892D982D07
S11340700E94921019AE9AAD9111ABC08091262086
S11340808823B9F02091DD2B30E0A4E6B0E002D122
S1134090AB01BC01CE0149960E944C108BAD0E942D
S11340A0C706A1E0AAAF95C0CE0149960E9492101E
S11340B01AAE872D962D0E946510811107C0892D97
S11340C0982D0E94651081113DC059C044E050E014
S11340D060E070E0872D962D0E944C1009E310E2F9
S11340E0F12CF801818592858583968331978081AF
S11340F00E943601D80119968D939C931A971B96AA
S11341008D919C911C9717968D939C9318978C91E5
S11341100E943601F80183879487E091D92BF091AE
S1134120DA2B309741F0D80119966D917C911A974A
S1134130AC018F2D0995F394025F1F4FB2E0FB127F
S1134140D0CFBDCF892D982D0E949210CE0101961B
S11341500E94921040E060E080E00E941110809183
S1134160612C881F8827881F9091622C9F73990F58
S1134170982B81E009F480E00E94310F06C0CE0143
S113418001960E9465108111DDCFCE0149960E94EF
S113419065108823B1F0CE0149960E949210B9DBD4
S11341A060DC40E060E080E00E94111060E072E1B9
S11341B08AE790E068DC61E089E790E00E94E4121D
S11341C0FFCF0E94DC0581CE80912220811153CF44
S11341D04DCF8091262081116CCF66CF1F920F9214
S11341E00FB60F9211240BB60F922F933F934F9358
S11341F05F936F937F938F939F93AF93BF93EF934B
S1134200FF938FB7F8949091AC0690FF03C091E0B0
S11342109093AC069091732C911106C061E089E7EC
S113422090E00E94E412FFCF8FBFFF91EF91BF9106
S1134230AF919F918F917F916F915F914F913F913A
S11342402F910F900BBE0F900FBE0F901F901895DB
S1134250A1E21A2EAA1BBB1BFD010DC0AA1FBB1F86
S1134260EE1FFF1FA217B307E407F50720F0A21BF8
S1134270B30BE40BF50B661F771F881F991F1A9465
S113428069F760957095809590959B01AC01BD018F
S1134290CF010895A29FB001B39FC001A39F01D095
S11342A0B29F700D811D1124911D0895FC01415090
S11342B0504030F001900616D1F73197CF010895A0
S11342C0882799270895FB01DC0102C001900D9213
S11342D041505040D8F70895FB01DC018D910190C5
S11142E080190110D9F3990B0895F894FFCFBB
S11342EE090000000D0000000B000000010000009A
S11342FE050000000A000000040000000700000092
S113430E2A0000012D0000002F0000002E000000E6
S113431E0C0000000200000008060000000000006F
S113432E0000000000000F0E00000000000000005E
S113433E0000000000C201000300000F000F000087
S113434EC2010003000000C201000300004F4B0035
S113435E4E4F005553423A72637600436F6D6D6152
S113436E6E64206D6174636820004E6F20636F6D00
S113437E6D616E64206D61746368696E67200052AE
S113438E47004147005747005347005243004143FB
S113439E00574300534300525300424C009F20D019
S11343AE04A220CE05A5209505A820C904AB205B48
S11343BE05AE204D05B1201405B4200205B720C169
S11343CE04BA20BD0442494F53004C6F6164696EB8
S11343DE6720636F6E66696775726174696F6E20AC
S11343EE006A537469636B496E69740002000000BD
S11343FE00000000000000000000000000000000AB
S113440E000000000000000000000000000000009A
S113441E000000000000000000000000000000008A
S113442E000000000000000000000000000000007A
S113443E000000000000000000000000000000006A
S113444E000000000000000000000000000000005A
S113445E000000000000000000000000000000004A
S113446E000000000000000000000000000000003A
S113447E00000000000000000000000000DB01DB73
S113448E0100000000000000000000000000000019
S113449E000000DB01DB013201010144726F6E6525
S11344AE204B6579626F617264000044726F6E65B1
S11344BE20694F530000000000000044726F6E65C7
S11344CE2047616D6550616400000044726F6E6533
S11344DE204B6579204D6F7573650044726F6E6560
S11344EE2053657269616C0000000044726F6E6542
S11344FE204A6F79737469636B000000000000003A
S113450E0000000000000000000000000000000099
S113451E0000000000000000000000904000004079
S113452E000000001A000000400000000016000009
S113453E00400000000004000000400000000007DE
S113454E00000040000000001E00000040000000BB
S113455E001F00000040000000002000000040008A
S113456E00000021000000400000000028000000B0
S113457E400000000029000000400000000024005C
S113458E0000400000000022000000400000000077
S113459E2500000040000000002300000040000041
S11345AE1A001600040007D007A00FD007A00FDBD7
S11345BE01DB014000000C000E000D000FD007A01F
S11345CE0FD007A00FDB01DB010040000000001A32
S11345DE0000004000000000160000004000000033
S11345EE000400000040000000000700000040002E
S11345FE0000000B00000040000000000A00000054
S113460E4000000000090000004000000000080007
S113461E0000400000000006000000400000000002
S113462E04000000400000000015000000400000DF
S113463E0000050000000000000000000000000063
S113464E0000000000000000000000000000000058
S113465E0000000000000000000000000000000048
S113466E0000000000000000000000000000000038
S113467E000000000100000008001A000000000005
S113468E001D001B000000000000140004000000C8
S113469E00000006000700000000000019000F00D3
S11346AE00000000000A00120000000000001300C9
S11346BE0E00000000000010000C000000000000BE
S11346CE09001800000000000017001C0000000084
S11346DE000011000D00000000000015000B00008A
S11346EE00000000000000000000000000000000B8
S11346FE00000000000000000000000000000000A8
S113470E0000000000000000000000000000000097
S113471E0000000000000000000000000000000087
S113472E40000000001A00000040000000001600C7
S113473E00004000000000040000004000000000E3
S113474E0700000040000000000D000000400000C3
S113475E00000E00000040000000001000000040A9
S113476E000000000C00000040000000001C0000CF
S113477E004000000000150000004000000000137F
S113478E00000040000000001400000000000000C3
S113479E00000000000000000000000000004000C7
S11347AE001A001600040007D007A00FD007A00FB0
S11347BEDB01DB014000001A001600040007D007DD
S11347CEA00FD007A00FDB01DB01010000000800E1
S11347DE1A0000000000001D001B00000000000075
S11347EE1400040000000000000600070000000092
S11347FE000015000B00000000000011000D000069
S113480E0000000017001C00000000000009001842
S113481E0000000000000A00120000000000001951
S113482E000F00000000000013000E000000000046
S113483E0010000C00000000000013000E00000029
S113484E00000010000C000000000000000000003A
S113485E0000000000000000000000000000000046
S113486E0000000000000000000000000000000036
S113487E000000000007000000000000000000001F
S113488E0000000000000000000000000000000016
S113489E0000000000000000000000000000000006
S11348AE00000000000000000000000000000000F6
S11348BE00000000000000000000000000000000E6
S11348CE00000000000000000000000000000000D6
S11348DE00000000000000000000000000000000C6
S11348EE00000000000000000000000000000000B6
S11348FE00000000000000000000000000000000A6
S113490E000000000000DB01DB01000000000000DD
S113491E000000000000000000000000DB01DB01CD
S113492E0040000000001A000000400000000016C5
S113493E00000040000000000400000040000000E1
S113494E00070000004000000000100000004000BE
S113495E0000000E00000040000000000D000000EA
S113496E40000000000C00000040000000001C008D
S113497E0000400000000015000000400000000090
S113498E130000004000000000140000004000006E
S113499E000013000000400000000014000000405E
S11349AE00001A001600040007D007A00FD007A0BD
S11349BE0FDB01DB014000001A001600040007D0D3
S11349CE07A00FD007A00FDB01DB0104400000009D
S11349DE001A000000400000000016000000400015
S11349EE000000040000004000000000070000006A
S11349FE40000000001000000040000000000E0007
S1134A0E000040000000000D000000400000000007
S1134A1E0C00000040000000001C000000400000DC
S1134A2E00001500000040000000001300000040CC
S1134A3E00000000140000004000000000130000FD
S1134A4E0040000000001400000000000000000000
S1134A5E00000000D007A00FD007A00FDB01DB0180
S1134A6E00000000000000000000D007A00FD007D7
S1134A7EA00FDB01DB010100000008001A0000009A
S1134A8E0000001D001B00000000000014000400C4
S1134A9E00000000000600070000000000001500E2
S1134AAE0B00000000000011000D000000000000CB
S1134ABE17001C0000000000000900180000000090
S1134ACE00000A001200000000000019000F000090
S1134ADE0000000013000E00000000000010000C87
S1134AEE00000000000000000000000000000000B4
S1134AFE00000000000000000000000000000000A4
S1134B0E0000000000000000000000000000000093
S1134B1E0000000000000000000000000000000083
S1134B2E0042433A50433D30382C30310042433A30
S1134B3E50433D30392C30300055534220554152AC
S1134B4E5420494E49543A2000474F4F44004241A5
S1134B5E44002E004254203131353220494E4954FE
S1134B6E3A200042544F6E00696E697442540042FA
S1134B7E433A4D443D30310042433A42503D303485
S1134B8E2C30372C30300042544F66660042433A84
S1134B9E44430042433A534D3D44726F6E65205375
S1134BAE657269616C0042433A4E4D3D44726F6EBC
S1134BBE6520436F6E74726F6C6C65720042433A7B
S1134BCE50463D30302C30312C30300042433A4D7B
S1134BDE443D30300042433A43500042433A43444A
S1134BEE3D3030303534300042433A43443D30306A
S1134BFE303538300042433A43443D30303035434B
S1134C0E300042433A43443D30303035433800425D
S1134C1E433A43443D303030354334002B3D3D3D23
S1134C2E3D3D3D3D2B007C2044524F4E45207C2083
S1134C3E56657273696F6E203078303030330021D0
S1134C4E627574746F6E5F68616E646C65725F69B1
S1134C5E6E6974203D3D206E756C6C2100456E743A
S1134C6E6572696E67204D61696E206C6F6F70009E
S9030000FC
