:10000000FAC0000017C1000015C1000013C10000B4
:1000100011C100000FC100000DC100000BC10000A4
:1000200009C1000007C1000005C1000003C10000B4
:1000300001C10000FFC000000C94D1160C94FE1604
:100040000C942B170C9458170C9485170C94B2171A
:100050000C94DF170C940C180C9439180C94661837
:10006000E9C000000C944A140C948114E3C0000011
:10007000E1C00000DFC00000DDC00000DBC0000008
:10008000D9C00000D7C00000D5C00000D3C0000018
:10009000D1C00000CFC00000CDC00000CBC0000028
:1000A000C9C00000C7C00000C5C00000C3C0000038
:1000B000C1C00000BFC00000BDC000000C94A11969
:1000C0000C94CE190C94FB190C94281A0C94551A04
:1000D0000C94821AAFC00000ADC00000ABC000009D
:1000E000A9C00000A7C00000A5C00000A3C0000078
:1000F000A1C000009FC000009DC000009BC0000088
:1001000099C0000097C0000095C0000093C0000097
:1001100091C000008FC000008DC000008BC00000A7
:1001200089C0000087C0000085C0000083C00000B7
:1001300081C000000C9493180C94C0180C94ED1816
:100140000C941A190C9447190C94741973C000007C
:1001500071C000006FC000006DC000006BC00000E7
:1001600069C0000067C0000065C0000063C00000F7
:1001700061C000005FC000005DC000005BC0000007
:1001800059C0000057C0000055C0000053C0000017
:1001900051C000004FC000004DC000004BC0000027
:1001A0000C94632447C0000045C0000043C0000019
:1001B0000C94AF1A0C94DC1A0C94091B0C94361B8B
:1001C0000C94631B0C94901B42433A44423D3030E4
:1001D0002C30300044454255472055415254204967
:1001E0004E49543A200042414400474F4F440000DA
:1001F0000E060C04000011241FBECFEFDFE2DEBFAD
:10020000CDBF1AE2A0E0B0E2E4E8FAE400E00BBF00
:1002100002C007900D92A633B107D9F72DE2A6E3ED
:10022000BAE201C01D92A83BB207E1F70E94672124
:100230000C944025E5CE66E37AE280E092E00E94ED
:100240009C154CE35AE261E080E092E00E94D615F2
:10025000E6E3FAE28081A7E3BAE29C919F7C906298
:100260009C93817E80831092382A86E08093392A7D
:10027000BF0180E092E00C946215803148F010924A
:100280003C2A8051880F880F880F80933D2A08C030
:1002900091E090933C2A880F880F880F80933D2A25
:1002A0004CE35AE261E080E092E00E94BC158FB717
:1002B000F894E0E0F2E09081946090838FBF8681B3
:1002C00080FFFDCFE0E0F2E081E0868324A135A14C
:1002D000822F932F089580E092E00C944B15AF92FB
:1002E000BF92DF92EF92FF920F931F93CF93DF9312
:1002F00080E496E052E0DC0115965C931597119628
:100300005C931197E0EBF0E0508360E250966C93C1
:100310005097FF24F3941296FC921297F08218E003
:1003200050961C930F2EA12CF6E0BF2EF02DE50168
:100330001A831083188AA0E2B6E012965C93129793
:1003400050830F2EF8E1EF2EF02D5096EC9250973F
:1003500012966C93129760835096EC925097129677
:100360001C93129710835096EC9250975A835083A7
:10037000E88A6A836083E88A74E012967C93129715
:1003800070835096EC92509740E14A834083E88A0C
:1003900000E80A830083E88A20EA36E0E9017A83EC
:1003A0007083488B6A836083E88A0A830083E88AC3
:1003B0006894DD24D6F8DA82D082E88A12964C93CB
:1003C0001297408350964C935097E5017A8370833F
:1003D000488B1296FC921297F08250961C9250977E
:1003E000DA82D082188A12960C9312970083509664
:1003F0001C9250971296DC921297D08250961C92C3
:10040000C0E8D6E05D8359835083188AFD82F98263
:10041000F082188AD9011696FC9216971196FC92D2
:100420001197F08250961C920F2EF0E6AF2EF6E058
:10043000BF2EF02DD50115964C93159711964C9320
:100440001197408350961C9250974E834A83408365
:10045000188A1196DC921197D08250961C92509770
:100460001D8319831083188A7D837A837083188A89
:1004700016966C93169712966C931297608350960B
:100480001C926E8369836083188AD90115965C93E8
:10049000159711965C931197508350961C92D50135
:1004A0001596FC9215971196FC921197F082509632
:1004B0001C92509715965C93159711965C93119723
:1004C000508350961C92DC0115961C93159711963B
:1004D0001C931197108350961C92509715967C93FD
:1004E000159712967C931297708350961C92509792
:1004F0000D8309830083188AE5011D831983108306
:10050000188A7A837083188A0A830083488B12962C
:100510004C931297408350964C93509712966C933D
:100520001297608350964C9350971296DC921297D4
:10053000D08250964C93509712960C93129700834A
:1005400050964C93DF91CF911F910F91FF90EF90B8
:10055000DF90BF90AF90089581E08093B00080E17C
:10056000E0E4F6E0808B80E090E001968A36910529
:10057000E1F7E0E4F6E0808580FD10C081E0809343
:10058000B00088E1808B80E090E001968A3691058A
:10059000E1F7E0E4F6E08085817001C083E091E05E
:1005A0009093B000E0E4F6E0108A0895D5DF813042
:1005B00071F018F0833081F405C040E061E080E024
:1005C0000C94281341E060E080E00C94281340E094
:1005D00060E081E00C94281308950F2EF9E3AF2E0C
:1005E000F0E2BF2EF02D0F2EF5E5CF2EF0E2DF2E3C
:1005F000F02D40E060E080E00E9428130E94C614C5
:1006000088E0ECD0C82F89E0E9D0882381F0CC23A2
:1006100071F08AEA90EBA8E2B0E00197A109B10974
:10062000E1F761E089E790E00E94F015FFCF80E0FC
:10063000D5D0882321F082E30E94301283C081E06C
:10064000CDD0882321F082E30E9430127BC082E06B
:10065000C5D0882321F082E30E94301273C083E06A
:10066000BDD0882321F082E30E9430126BC084E069
:10067000B5D0882321F082E30E94301263C085E068
:10068000ADD0882321F082E30E9430125BC086E067
:10069000A5D0882321F082E30E94301253C087E066
:1006A0009DD0882321F082E30E9430124BC088E065
:1006B00095D0882321F082E30E94301243C089E064
:1006C0008DD0882321F082E30E9430123BC08BE062
:1006D00085D0882321F082E30E94301233C08AE063
:1006E0007DD0882321F082E30E9430122BC08DE060
:1006F00075D0882321F082E30E94301223C08CE061
:100700006DD08823F9F082E30E9430121BC0FE01F5
:1007100031978081B2DD8C018881AFDD7C010D3A9B
:100720001D4018F082E30E9430128DEAE8168DE039
:10073000F80618F082E30E9430122E96CC15DD05E3
:1007400031F757CFE501E3CF80E00E94CB1140E0C5
:1007500060E080E00E94281340E060E082E30E94B5
:1007600028138AEA96E4A0E1B0E00197A109B10953
:10077000E1F740E060E080E00E9428138AEA96E416
:10078000A0E1B0E00197A109B109E1F740E060E024
:1007900082E30E9428138AEA96E4A0E1B0E0019780
:1007A000A109B109E1F740E060E080E00E94281370
:1007B0008AEA96E4A0E1B0E00197A109B109E1F766
:1007C00040E060E082E30E9428138AEA96E4A0E118
:1007D000B0E00197A109B109E1F7FFDE90E0FC016B
:1007E000EE0FFF1FEE0FFF1FE050F04E3081E32FA2
:1007F000E695E695E69520E2E29FF0011124FA5F86
:100800006085377041E050E0FA0102C0EE0FFF1F33
:100810003A95E2F79F01262369F0FC01EE0FFF1FD6
:10082000EE0FFF1FE050F04E81E0938191110DC05B
:1008300080E00895FC01EE0FFF1FEE0FFF1FE05058
:10084000F04E81E09381911180E0089580933F2ADA
:100850009093402A0C94B220CF93613091F4E091B0
:100860003F2AF091402A90E09C01220F331F220F73
:10087000331F220F331F820F931FE80FF91FC6810A
:1008800011C0E0913F2AF091402A90E09C01220F94
:10089000331F220F331F220F331F820F931FE80FC6
:1008A000F91FC481CC23A9F18C2F0E9492108DE6F0
:1008B00090E20E940F2080E00E94991F8CE20E942B
:1008C00002208C2F0E94991FC5E08CE20E9402201A
:1008D00080E00E94991FC150C1F78DE00E94022064
:1008E0008AE00E9402208DE690E20E940F2080E0C4
:1008F0000E94991FC6E08CE20E94022080E00E94C4
:10090000991FC150C1F78DE00E9402208AE00E9429
:100910000220CF910895FC01608371834583128288
:100920001482828183830895FC019FB7F894248107
:100930008581281790F48281A081B181A80FB11D13
:100940006C938F5F828384818F5F84832281858112
:10095000281728F0128281E003C080E001C081E006
:100960009FBF0895FC019FB7F89484818823A1F06C
:100970008381A081B181A80FB11D2C91DB012C9343
:100980008F5F8383848181508483238185812817AD
:1009900028F0138281E003C080E001C081E09FBFA6
:1009A0000895EF92FF920F931F93CF93DF938C01E3
:1009B000E42E442371F0C62FD72FF12C04C0F394FA
:1009C0002196FE1439F0BE01C801CCDF8111F7CFAA
:1009D00001C0F12C8F2DDF91CF911F910F91FF90CE
:1009E000EF9008951F93CF93DF93DC011FB7F89426
:1009F00013968C91139714969C911497941720F446
:100A00001496CC91149701C0C42FCC23E9F02D91FA
:100A10003C911197F901E80FF11D90819923B9F0EC
:100A20001596DC91159790E006C0F901E80FF11DCD
:100A30005081552379F08F5F8D1708F080E09F5F1C
:100A40009C13F3CFC0E007C090E0C0E004C090E08A
:100A5000C1E001C0C1E01FBFE92FF0E03196242FB3
:100A600030E081E0E217F3070CF080E0C82321F0CA
:100A7000492F4F5FCD0195DF8C2FDF91CF911F91D3
:100A80000895FB01DA01982F9F709C9382958F70D7
:100A900080838C918A301CF0895A8C9302C0805DCF
:100AA0008C9380818A301CF0895A80830895805D00
:100AB0008083089580626062813614F0875501C09A
:100AC00080538295807F61361CF06755860F0895AC
:100AD0006053860F089561E08DE790E20C9429142D
:100AE000FADF80E090E00196853520ED9207D9F796
:100AF00061E089E790E00E94F015FFCF81E49AE27F
:100B0000A9D1E9DF1092C82A0895EF92FF920F93BE
:100B10001F93CF93DF9300D0CDB7DEB781E49AE285
:100B200092D101E41AE20F2EF8ECEF2EFAE2FF2E3A
:100B3000F02DAE014E5F5F4FBE016F5F7F4FF8013A
:100B400081918F019EDF89810E9418148A810E9401
:100B500018140E151F0569F780E00E941814BBDFFA
:100B60001092C82A0F900F90DF91CF911F910F9193
:100B7000FF90EF90089561E080E890E20C942914D2
:100B8000FC018081882331F06181662319F0928114
:100B9000992309F0F0CF8EDF69EC7AE26CD19BDF0C
:100BA0001092742B0895FF920F931F93CF93DF93AE
:100BB000EC01E82FFD2FDF010D900020E9F71197E0
:100BC000AE1BBF0BFA2EA0FD07C0AA2301F11091A6
:100BD000742B1B3A18F01DC0CEDF1CC000E0FE01D4
:100BE000E00FF11D6181808165DFE12FF0E0E753C7
:100BF000F54D80831F5F0E5F0F1518F01093742B57
:100C000004C01B3A61F71093742BF01202C063DF2B
:100C100001C0B1DFDF91CF911F910F91FF90089537
:100C2000FC018081882331F06181662319F0928173
:100C3000992309F0A0CF3EDF8093742B4CCFEF9225
:100C4000FF920F931F93CF93DF9300D0CDB7DEB702
:100C5000FC018081882331F06181662319F0928143
:100C6000992311F088DF25C025DF69EC7AE2F9D0FD
:100C700009EC1AE20F2EF4E7EF2EFBE2FF2EF02D27
:100C8000AE014E5F5F4FBE016F5F7F4FF8018191F4
:100C90008F01F7DE89810E9418148A810E9418143E
:100CA0000E151F0569F780E00E94181414DF1092DA
:100CB000742B0F900F90DF91CF911F910F91FF90A8
:100CC000EF900895FF920F931F93CF93DF93EC0162
:100CD000E82FFD2FDF010D900020E9F71197AE1BE3
:100CE000BF0BFA2EA0FD07C0AA2301F11091C82A5C
:100CF000173818F01DC03FDF1CC000E0FE01E00FF8
:100D0000F11D61818081D6DEE12FF0E0EF5BF54DD2
:100D100080831F5F0E5F0F1518F01093C82A04C060
:100D2000173861F71093C82AF01202C0D4DE01C050
:100D300022DFDF91CF911F910F91FF900895FC0169
:100D40008081882331F06181662319F09281992393
:100D500009F011CFAFDE8093C82ABDCEAF92BF920B
:100D6000CF92DF92EF92FF920F931F93CF93DF9377
:100D7000CDB7DEB7C354D109CDBFDEBF60E4CE012D
:100D800001960E944414882309F44EC0898122965A
:100D90008FAF22979A8123969FAF239724961FAEF9
:100DA0002497992787FD90958D579F4D0E94A510F8
:100DB0000F2EFAECEF2EF0E2FF2EF02D00E010E007
:100DC000F701C080D180BE016F5B7F4FC6010E94DA
:100DD0000825282F392F232BA9F48BE890E20E94B5
:100DE0009710C6010E94A510F801EE0FFF1FEE0F2D
:100DF000FF1FE653FF4D0280F381E02DCE010396E5
:100E0000099512C00F5F1F4FF4E0EF0EF11C083080
:100E10001105B1F68AE990E20E949710CE018F5B2E
:100E20009F4F0E94A510A7DECD5BDF4FCDBFDEBF79
:100E3000DF91CF911F910F91FF90EF90DF90CF90B6
:100E4000BF90AF90089547E850E0BC0180E090E08B
:100E50000C94F61547E850E0BC0180E090E00C945B
:100E6000861620EC829FC00111244BEA50E0805688
:100E70009F4F0C94F61520EC829FC00111244BEA81
:100E800050E080569F4F0C948616CF93C82F8A301F
:100E900029F48EEE90E20E94A51056DC84E89CE2D4
:100EA000D2DF8091082D84FF39C067E876E280E0C8
:100EB000E2DF61E375E281E0DEDF63E571E282E0BB
:100EC000DADF62E377E283E0D6DF6CED75E284E09F
:100ED000D2DF65E872E285E0CEDF6DED77E286E095
:100EE000CADF60E373E287E0C6DF6BED73E288E0A0
:100EF000C2DF66E874E289E0BEDF87E8EEEFF1E288
:100F0000A4E8BCE201900D928A95E1F7E8E0FDE2E9
:100F100080818F7E808384E89CE29CDF83EF90E277
:100F20000E9497108C2F805D0E94921081E39AE2BC
:100F30000E9497106DE07DE28C2F93DFCF91089592
:100F400089E04CDC81112BC084E048DC811129C090
:100F500085E044DC811127C086E040DC811125C09A
:100F600087E03CDC811123C08AE038DC811121C09C
:100F700081E034DC81111FC083E030DC81111DC0B1
:100F800082E02CDC81111BC029DC81111AC08BE0AE
:100F900025DC811118C08091082D8F7008958AE09A
:100FA000089580E0089581E0089582E0089583E047
:100FB000089584E0089585E0089586E0089588E026
:100FC000089587E0089589E008958093752B9093A4
:100FD000762B0C94B8200F931F93CF93DF938091BF
:100FE000772B9091782BA091792BB0917A2B40910F
:100FF0007F2B5091802B6091812B7091822B8417D5
:101000009507A607B707C9F430917B2B2091832B56
:10101000321313C030917C2B2091842B32130DC0DE
:1010200030917D2B2091852B321307C030917E2B80
:101030002091862B321709F41FC140917B2B5091D0
:101040007C2B60917D2B70917E2B4093832B509352
:10105000842B6093852B7093862B80937F2B9093AA
:10106000802BA093812BB093822BC0E0D0E08091A5
:10107000772B9091782BA091792BB0917A2B0C2E15
:1010800004C0B695A795979587950A94D2F780FFE7
:1010900002C081E301C080E30E9492102196CE300D
:1010A000D10529F700917B2B8AE091E20E949710ED
:1010B00000230CF0D1C08DE20E9492100195CCC0AB
:1010C000802F992787FD9095612F772767FD709571
:1010D0000E949D24082F862F805D0E94921097E623
:1010E0001902812D11248595859517FD8395182F5B
:1010F000219731F700917C2B80E191E20E949710BB
:1011000000230CF0ADC08DE20E9492100195A8C0A2
:10111000802F992787FD9095612F772767FD709520
:101120000E949D24082F862F805DFCD727E612029F
:10113000812D11248595859517FD8395182F21976D
:1011400039F700917D2B86E191E2F1D700230CF075
:101150008BC08DE2E7D7019587C0802F992787FD47
:101160009095612F772767FD70950E949D24082F29
:10117000862F805DD7D797E61902812D112485959A
:10118000859517FD8395182F219739F700917E2BB0
:101190008CE191E2CCD700230CF06AC08DE2C2D77B
:1011A000019566C0802F992787FD9095612F77273D
:1011B00067FD70950E949D24082F862F805DB2D711
:1011C00027E61202812D11248595859517FD8395BB
:1011D000182F219739F781E39AE2B7D782E291E29B
:1011E0000E940F2080E00E94991F8CE20E94022042
:1011F00080917B2B0E94991F8CE20E94022080919B
:101200007C2B0E94991F8CE20E94022080917D2BF2
:101210000E94991F8CE20E94022080917E2B0E94E6
:10122000991F8CE20E94022088E00E94991F8CE2A4
:101230000E9402208091772B0E94991F8CE20E94CD
:1012400002208091782B0E94991F8DE00E9402203D
:101250008AE00E94022010C0C3E0D0E014E630CF44
:10126000C3E0D0E014E654CFC3E0D0E014E675CF7D
:10127000C3E0D0E014E696CFDF91CF911F910F919C
:10128000089590E0FC01EE0FFF1FDF01AA0FBB1FC6
:10129000AA0FBB1FAA0FBB1FAE1BBF0BA85CBF4D85
:1012A00026E1289FF001299FF00D1124E158FF4FFE
:1012B0002091752B3091762BE20FF31F12962D9112
:1012C0003C911397621B730B14960D90BC91A02D4B
:1012D0004A1B5B0B22893389261737071CF4621BD4
:1012E000730B0CC0AA27BB27A21BB30B6A177B0783
:1012F0001CF4620F731F02C060E070E0248935891E
:10130000241735071CF4421B530B0CC0EE27FF2794
:10131000E21BF30B4E175F071CF4420F531F02C072
:1013200040E050E0FB01FF230CF43F96F595E79574
:10133000F595E795F595E795F595E7953E2F2F2FD0
:10134000BA01552314F4615F7F4F759567957595C4
:1013500067957595679575956795E62F672F432F68
:10136000522F41382FEF520714F441E85FEF2E2F30
:10137000362F21386FEF360714F421E83FEFFC01D8
:10138000EE0FFF1FE558F44D4038510514F04FE7BC
:1013900050E04083FC01EE0FFF1FE458F44D20386D
:1013A000310514F02FE730E0208315CE0F931F9303
:1013B000613021F541E050E060E070E08A019B017E
:1013C00004C0000F111F221F331F8A95D2F7D901C5
:1013D000C8014091772B5091782B6091792B7091B7
:1013E0007A2B842B952BA62BB72B8093772B90935E
:1013F000782BA093792BB0937A2B29C0611127C049
:1014000041E050E060E070E08A019B0104C0000F01
:10141000111F221F331F8A95D2F7D901C801809569
:101420009095A095B0954091772B5091782B609135
:10143000792B70917A2B84239523A623B72380934D
:10144000772B9093782BA093792BB0937A2BC3DDD5
:101450001F910F9108958093872B9093882B8FE293
:1014600091E273D60C94BB200F931F93CF93DF931D
:101470008091892B90918A2BA0918B2BB0918C2BF2
:101480004091912B5091922B6091932B7091942BC2
:1014900084179507A607B707C9F430918D2B2091C3
:1014A000952B321313C030918E2B2091962B321333
:1014B0000DC030918F2B2091972B321307C03091A4
:1014C000902B2091982B321709F419C140918D2B44
:1014D00050918E2B60918F2B7091902B4093952B78
:1014E0005093962B6093972B7093982B8093912B0E
:1014F0009093922BA093932BB093942BC0E0D0E0C9
:101500008091892B90918A2BA0918B2BB0918C2B61
:101510000C2E04C0B695A795979587950A94D2F797
:1015200080FF02C081E301C080E3FCD52196CE306C
:10153000D10531F700918D2B8AE091E2F8D5002397
:101540000CF0CDC08DE2EED50195C9C0802F992752
:1015500087FD9095612F772767FD70950E949D24E8
:10156000082F862F805DDED597E61902812D112484
:101570008595859517FD8395182F219739F700914B
:101580008E2B80E191E2D3D500230CF0ACC08DE22C
:10159000C9D50195A8C0802F992787FD9095612F07
:1015A000772767FD70950E949D24082F862F805D08
:1015B000B9D527E61202812D11248595859517FD51
:1015C0008395182F219739F700918F2B86E191E2AF
:1015D000AED500230CF08BC08DE2A4D5019587C059
:1015E000802F992787FD9095612F772767FD70954C
:1015F0000E949D24082F862F805D94D597E61902BE
:10160000812D11248595859517FD8395182F219798
:1016100039F70091902B8CE191E289D500230CF0F1
:101620006AC08DE27FD5019566C0802F992787FD1E
:101630009095612F772767FD70950E949D24082F54
:10164000862F805D6FD527E61202812D11248595A6
:10165000859517FD8395182F219739F781E39AE235
:1016600074D582E291E20E940F2080E00E94991FCF
:101670008CE20E94022080918D2B0E94991F8CE2A7
:101680000E94022080918E2B0E94991F8CE20E9462
:10169000022080918F2B0E94991F8CE20E940220D1
:1016A0008091902B0E94991F8CE20E9402208091D1
:1016B000892B0E94991F8CE20E94022080918A2B24
:1016C0000E94991F8CE20E94022088E00E94991FCC
:1016D0008DE00E9402208AE00E94022010C0C3E038
:1016E000D0E014E633CFC3E0D0E014E654CFC3E03B
:1016F000D0E014E675CFC3E0D0E014E696CFDF91DA
:10170000CF911F910F91089590E0FC01EE0FFF1F04
:10171000DF01AA0FBB1FAA0FBB1FAA0FBB1FAE1B67
:10172000BF0BA85CBF4D26E1289FF001299FF00D5B
:101730001124E158FF4F2091872B3091882BE20F25
:10174000F31F12962D913C911397621B730B149605
:101750000D90BC91A02D4A1B5B0B22893389261763
:1017600037071CF4621B730B0CC0AA27BB27A21BF4
:10177000B30B6A177B071CF4620F731F02C060E093
:1017800070E024893589241735071CF4421B530B5C
:101790000CC0EE27FF27E21BF30B4E175F071CF46C
:1017A000420F531F02C040E050E0FB01FF230CF446
:1017B0003F96F595E795F595E795F595E795F595B8
:1017C000E7953E2F2F2FBA01552314F4615F7F4F09
:1017D00075956795759567957595679575956795F1
:1017E000E62F672F432F522F41382FEF520714F463
:1017F00041E85FEF2E2F362F21386FEF360714F4B4
:1018000021E83FEFFC01EE0FFF1FE357F44D403896
:10181000510514F04FE750E04083FC01EE0FFF1F2D
:10182000E257F44D2038310514F02FE730E02083E3
:101830001BCE0F931F93613021F541E050E060E033
:1018400070E08A019B0104C0000F111F221F331F8B
:101850008A95D2F7D901C8014091892B50918A2BE2
:1018600060918B2B70918C2B842B952BA62BB72BF7
:101870008093892B90938A2BA0938B2BB0938C2BE6
:1018800029C0611127C041E050E060E070E08A01AA
:101890009B0104C0000F111F221F331F8A95D2F72E
:1018A000D901C80180959095A095B0954091892B5C
:1018B00050918A2B60918B2B70918C2B84239523D4
:1018C000A623B7238093892B90938A2BA0938B2BED
:1018D000B0938C2BC9DD1F910F9108958093992BA4
:1018E00090939A2B0C94B2205F926F927F928F927A
:1018F0009F92AF92BF92CF92DF92EF92FF920F939F
:101900001F93CF93DF93CDB7DEB72697CDBFDEBF52
:10191000613021F541E050E060E070E08A019B0118
:1019200004C0000F111F221F331F8A95D2F7D9015F
:10193000C80140919B2B50919C2B60919D2B7091E5
:101940009E2B842B952BA62BB72B80939B2B9093B0
:101950009C2BA0939D2BB0939E2B8EC061118CC0AD
:1019600041E050E060E070E08A019B0104C0000F9C
:10197000111F221F331F8A95D2F7D901C801809504
:101980009095A095B09540919B2B50919C2B609188
:101990009D2B70919E2B84239523A623B7238093A0
:1019A0009B2B90939C2BA0939D2BB0939E2B64C05C
:1019B000950184010E2C04C036952795179507953F
:1019C0000A94D2F700FF29C08701000F111F000FF2
:1019D000111F000F111F0E0D1F1D0F5F1F4F0C0D4C
:1019E0001D1DF801818183FD18C05580552091F09F
:1019F000472D50E0652D70E0CE0101960E94F22443
:101A0000892B41F4E1E0F0E0EC0FFD1FE70DF11D43
:101A100050827394F8018481682AFDE0EF16F10486
:101A200031F00FEFE01AF00A15E0171508F68DE611
:101A300090E20E940F20862D0E94991F8E010F5F59
:101A40001F4FF12C8CE20E940220F71428F4F801B9
:101A500080810E94991F03C080E00E94991FF39427
:101A60000F5F1F4FF6E0FF12EDCF8DE00E940220C6
:101A70008AE00E94022011C080909B2B90909C2BAA
:101A8000A0909D2BB0909E2BC090992BD0909A2B1C
:101A9000E12CF12C712C612C8BCF2696CDBFDEBFB3
:101AA000DF91CF911F910F91FF90EF90DF90CF903A
:101AB000BF90AF909F908F907F906F905F900895B0
:101AC00013CF089580939F2B9093A02B0E94B52055
:101AD00044E150E060E070E081EA9BE2F0C53F92B3
:101AE0004F925F926F927F928F929F92AF92BF922E
:101AF000CF92DF92EF92FF920F931F93CF93DF93DA
:101B0000CDB7DEB76297CDBFDEBF1092AF2B61308D
:101B100021F541E050E060E070E08A019B0104C0E3
:101B2000000F111F221F331F8A95D2F7D901C80158
:101B30004091B12B5091B22B6091B32B7091B42B8B
:101B4000842B952BA62BB72B8093B12B9093B22B84
:101B5000A093B32BB093B42B04C1611102C141E037
:101B600050E060E070E08A019B0104C0000F111F8B
:101B7000221F331F8A95D2F7D901C801809590950D
:101B8000A095B0954091B12B5091B22B6091B32BA1
:101B90007091B42B84239523A623B7238093B12B74
:101BA0009093B22BA093B32BB093B42BDAC0D30194
:101BB000C201002E04C0B695A795979587950A9403
:101BC000D2F780FF33C07801EE0CFF1CEE0CFF1C37
:101BD000EE0CFF1CE00EF11E2FEFE21AF20AEC0CE5
:101BE000FD1CF701818183FD19C0B580BB2091F0F8
:101BF000492D50E06B2D70E0CE0101960E94F22439
:101C0000892B41F4E1E0F0E0EC0FFD1FE90DF11D3F
:101C1000B0829394F7018481882A08C0F7018181FA
:101C200087709091AF2B892B8093AF2B0D301105CE
:101C300009F4A8C00F5F1F4FF5E0F91508F0B7CF02
:101C400054C0D301C201002E04C0B695A795979544
:101C500087950A94D2F780FF3FC00131A9F030F494
:101C60000F3061F070F40E30B9F51BC0033189F00C
:101C700068F0043181F0053179F510C0ED84FE84FF
:101C800012C0EF84F8880FC075010DC0EF80F88492
:101C90000AC0760108C0E984FA8405C0EB84FC849C
:101CA00002C0E988FA88F7013180332091F0492D8C
:101CB00050E0632D70E0CE0101960E94F224892B42
:101CC00041F4E1E0F0E0EC0FFD1FE90DF11D308281
:101CD0009394F7018081882A0531110531F00F5F57
:101CE0001F4FF5E0F91508F0ACCF8AE391E21FD25F
:101CF000992079F0EE24E394F12CEC0EFD1E87017F
:101D0000F80181918F01835A0DD2802F8E19891588
:101D1000B8F381E39AE219D28DE690E20E940F2097
:101D2000882D0E94991F8E010F5F1F4FF12C8CE2AE
:101D30000E940220F91428F4F80180810E94991F62
:101D400003C080E00E94991FF3940F5F1F4FF6E0DD
:101D5000FF12EDCF8DE00E9402208AE00E94022057
:101D600050C04090B12B5090B22B6090B32B70902C
:101D7000B42BC0909F2BD090A02B00E010E0912CB2
:101D8000812C15CF05E0091508F4AFCF4090B12B99
:101D90005090B22B6090B32B7090B42B80919F2BFE
:101DA0009091A02B0EE010E00F2EF7E8AF2EB12C93
:101DB000F02DA80EB91E0F2EF9E9CF2ED12CF02D43
:101DC000C80ED91E9C0129563F4F2F833887FC012E
:101DD000E556FF4FE987FA879C0123563F4F2B8733
:101DE0003C87FC01ED57FF4FED87FE879C012B5789
:101DF0003F4F2F87388BFC01EF57FF4FE98BFA8B52
:101E000020CF6296CDBFDEBFDF91CF911F910F91A2
:101E1000FF90EF90DF90CF90BF90AF909F908F900A
:101E20007F906F905F904F903F900895DF92EF9278
:101E3000FF920F931F93CF93DF937A01082F10E047
:101E400036E1839FE0011124C158DF4F20919F2B81
:101E50003091A02BC20FD31F9801220F331FF9011D
:101E6000EE0FFF1FEE0FFF1FEE0FFF1FE21BF30B26
:101E7000E85CFF4D32812381A481E581988196FD44
:101E800052C0832F922F2A893B89AC01421B530BEE
:101E90006417750774F4281B390B620F731F7723BF
:101EA00014F461507F4F8091A92B870F8093A92B49
:101EB0000FC0820F931F8617970754F4681B790B86
:101EC00012F461507F4F8091A92B870F8093A92B2B
:101ED0008A2F9E2F2C893D89AC01421B530BE4169F
:101EE000F5067CF4281B390BE20EF31EFF201CF4D0
:101EF0008FEFE80EF11C8091AA2B8F0D8093AA2BF7
:101F0000A9C0820F931F8E159F050CF0A3C0E81A7D
:101F1000F90A1AF49FEFE90EF11C8091AA2B8F0D9C
:101F20008093AA2B97C0D82EDD0CDD0CF801E55567
:101F3000F44D8081833099F1843021F0823009F0B2
:101F40003DC01EC08A859B856817790754F4F80147
:101F5000E555F44D82E0808361E08D2D805FBFDD2B
:101F600032C08C859D85861797076CF5F801E5557D
:101F7000F44D83E0808361E08D2D8F5EB0DD23C062
:101F80008A859B8586179707F4F4F801E555F44D8B
:101F900084E0808360E08D2D805FA1DD14C08C859E
:101FA0009D85681779077CF4F801E555F44D84E0C8
:101FB000808360E08D2D8F5E92DD05C0F801E555D0
:101FC000F44D84E080838D2D825FF801E355F44D5C
:101FD0009081913059F1E8F09430B9F52E853F8524
:101FE000E216F3063CF4F801E355F44D108261E08B
:101FF00076DD30C0888999898E159F055CF5F801DA
:10200000E355F44D81E0808361E08D2D815F67DDD4
:1020100021C02E853F852E153F05E4F4F801E355D8
:10202000F44D94E0908360E05ADD14C0288939892A
:10203000E216F3067CF4F801E355F44D84E0808366
:1020400060E08D2D815F4BDD05C0F801E355F44D57
:1020500084E080838091A92B81110BC08091AA2BF1
:10206000811107C09091AF2B8091B02B981709F484
:102070004FC081EA9BE23CD3882309F449C044E184
:1020800050E060E070E081EA9BE219D38091AF2BD1
:102090008093B02B86E491E20E940F208091AF2BB9
:1020A0000E94991F8CE20E9402208091A92B0E941D
:1020B000991F8CE20E9402208091A92B992787FD0D
:1020C0009095292F22952F708091AA2B30E18302C1
:1020D000C0011124822B0E94991F8CE20E940220D1
:1020E0008091AA2B85958595859585950E94991F48
:1020F0008CE20E94022080E00E94991F8DE00E94E5
:1021000002208AE00E9402201092A92B1092AA2B92
:10211000DF91CF911F910F91FF90EF90DF90089585
:10212000DECC0895682F80EA99E00C94751CCF935B
:10213000DF93EC018881882329F02196F3DF8991D0
:102140008111FCCFDF91CF910895F1DF8DE0EADFBF
:102150008AE0E8CFCF93DF93CDB7DEB72797CDBF27
:10216000DEBF87E0EFE5F0E2DE01119601900D920F
:102170008A95E1F760E184E05AD4E4EDF1E08491DE
:1021800090E0D5DF03D4BE016F5F7F4F80EA99E016
:102190000E948B1D882331F0EAEEF1E0849190E0FB
:1021A000D4DF05C0E6EEF1E0849190E0CEDF279623
:1021B000CDBFDEBFDF91CF910895E0E6F6E08085E8
:1021C000881F8827881F0895CF92DF92EF92FF9291
:1021D000CF93DF9340E060E080E03AD282E3BCD16D
:1021E00080E09CE7A2E9B0E00197A109B109E1F71D
:1021F00088E898E20E941D2084E998E20E941D2050
:10220000C0E4D6E00F2EFAEACF2EF6E4DF2EF0E19E
:10221000EF2EF12CF02D1EC040E060E082E318D2DA
:10222000D701C6010197A109B109E1F740E062E3D6
:1022300080E00ED2D701C6010197A109B109E1F7EB
:1022400042E360E080E004D2D701C6010197A10912
:10225000B109E1F788858823FCF6DF91CF91FF90E3
:10226000EF90DF90CF90089575DF80E094D0E0E4A8
:10227000F6E08085808580858085A6CF1F93CF93EB
:10228000DF93CDB7DEB72897CDBFDEBFAC0160E0EE
:1022900070E0CE01019613D20E94A007182F05C04E
:1022A00088E00E94EE03882351F0CE01019620D2EF
:1022B0008823B1F3812F0E94450781E001C080E0AF
:1022C0002896CDBFDEBFDF91CF911F9108955ED3D9
:1022D00080E06DD30E9480208AEA90EAA1E0B0E01D
:1022E0000197A109B109E1F77894E8E4F0E0808171
:1022F000817F84608083808181608083889580ED88
:1023000097E0BCDF8823D1F3E8E4F0E080818E7FA2
:10231000808361E089E790E063D4FFCFCF92DF92C2
:10232000EF92FF92CF937C0131D380E040D39CD1D8
:10233000E0EAF6E0208522FDFDCF20E030E02F5FCF
:102340003F4F253540ED3407D1F79B01AC012E0DF1
:102350003F1D411D511D69017A0186D1C1E06C15F7
:102360007D058E059F0508F0C0E081E020D30ED3E7
:102370008C2FCF91FF90EF90DF90CF900895CF9367
:10238000C82F80ED97E0CADF811102C08C2F9FDF3C
:1023900081E0CF9108958093B52B24EF31E042E0A6
:1023A00066E086EB9BE20E94611E24EF31E041E093
:1023B00062E08DEB9BE20E94611E24EF31E042E07F
:1023C00062E084EC9BE20E94611E64E686EB9BE285
:1023D0000E94141F64E68DEB9BE20E94141F64E6CA
:1023E00084EC9BE20C94141F853608F084E624E606
:1023F000281BA091BB2BB091BC2B30E00E94D224B3
:1024000024E630E040E050E00E94B0248091B82BF8
:10241000E091B62BF091B72BE6FD17C0823061F04A
:1024200018F48130E1F405C0833049F08430B9F408
:1024300009C020AF31AF089522AF33AF089524AF64
:1024400035AF089526AF37AF0895813019F0823047
:1024500031F403C020AF31AF089522AF33AF0895F8
:10246000853608F084E69091B52B9923E1F124E6B6
:10247000281BA091C92BB091CA2B30E00E94D22416
:1024800024E630E040E050E00E94B0248091C62B6A
:10249000E091C42BF091C52BE6FD19C0823071F09C
:1024A00020F4813009F057C006C0833051F08430E9
:1024B00009F051C009C020AF31AF089522AF33AF4A
:1024C000089524AF35AF089526AF37AF0895813012
:1024D00021F0823009F03FC003C020AF31AF089532
:1024E00022AF33AF089524E6281BA091C22BB091F0
:1024F000C32B30E00E94D22424E630E040E050E0DC
:102500000E94B0248091BF2BE091BD2BF091BE2B97
:10251000E6FD17C0823061F018F48130E1F405C0A7
:10252000833049F08430B9F409C020AF31AF089549
:1025300022AF33AF089524AF35AF089526AF37AF3C
:102540000895813019F0823031F403C020AF31AFEB
:10255000089522AF33AF0895853608F084E6909150
:10256000B52B9923E1F124E6281BA091C22BB09151
:10257000C32B30E00E94D22424E630E040E050E05B
:102580000E94B0248091BF2BE091BD2BF091BE2B17
:10259000E6FD19C0823071F020F4813009F057C097
:1025A00006C0833051F0843009F051C009C020AF1B
:1025B00031AF089522AF33AF089524AF35AF0895FA
:1025C00026AF37AF0895813021F0823009F03FC047
:1025D00003C020AF31AF089522AF33AF089524E692
:1025E000281BA091C92BB091CA2B30E00E94D224A5
:1025F00024E630E040E050E00E94B0248091C62BF9
:10260000E091C42BF091C52BE6FD17C0823061F03C
:1026100018F48130E1F405C0833049F08430B9F416
:1026200009C020AF31AF089522AF33AF089524AF72
:1026300035AF089526AF37AF0895813019F0823055
:1026400031F403C020AF31AF089522AF33AF089506
:10265000CF93DF93D62FC42FC7DE8D2F01DF8C2FB2
:102660007BDFDF91CF9108950F931F938FB7F8947D
:102670000091CB2B1091CC2B2091CD2B3091CE2BD8
:102680008FBF602F712F822F932F1F910F9108956D
:102690002FB7F8948091CB2B9091CC2BA091CD2B80
:1026A000B091CE2B0196A11DB11D8093CB2B9093A1
:1026B000CC2BA093CD2BB093CE2B2FBF0895CF92D0
:1026C000DF92EF92FF92CF93DF93EC016A017B01DF
:1026D000CBDF688379838A839B83CC82DD82EE8221
:1026E000FF82DF91CF91FF90EF90DF90CF90089520
:1026F000CF92DF92EF92FF920F931F93CF93DF93CE
:10270000EC014C815D816E817F81452B462B472BEF
:10271000D1F0AADF088119812A813B816B017C01FC
:10272000C01AD10AE20AF30A41E050E08C819D818F
:10273000AE81BF81C816D906EA06FB0610F440E058
:1027400050E0CA0102C080E090E08170DF91CF913B
:102750001F910F91FF90EF90DF90CF900895FC01B3
:102760001482158216821782089580E498E00C94F2
:10277000BD1B80E498E00C94031CE0E4F8E0848541
:102780008160848708950F931F93CF93DF938C010B
:10279000ECDFC0E4D8E088858E6F88878981887FE8
:1027A000898318A219A280E09DE78EA39FA3E5DF8D
:1027B000B80180E498E00E94491C8E818C7F8E8352
:1027C0008E8181608E838881807F81608883D1DF64
:1027D000DF91CF911F910F91089560E183E027D1A0
:1027E00080EA98E2A4DCD2D064E570E280EA98E066
:1027F0000E948B1D882321F080EB98E2A6DC03C0A9
:1028000085EB98E2A2DC40E465ED7BE28FEC9BE295
:102810000E948B0440E26BE17CE285E19CE20E9435
:102820008B04E0EAF8E083818F7C806183830895E4
:10283000CF93C82F6C2F85E19CE20E9494048823DB
:10284000C9F3E0EAF8E083818C7F81608383CF91D4
:1028500008951F93CF93DF93EC01162F888188236F
:1028600029F02196E5DF89918111FCCF112311F028
:1028700080E0DEDFDF91CF911F91089560E0E9DF16
:102880008DE0D6DF8AE0D4CF462FBC018FEC9BE2EF
:102890000C94F2041F920F920FB60F9211240BB6F4
:1028A0000F922F933F934F935F936F937F938F93E9
:1028B0009F93AF93BF93EF93FF936091A0086B3109
:1028C00029F461E089E790E08BD1FFCF8FEC9BE2A8
:1028D0000E94940480E8E0EAF8E08183FF91EF91A0
:1028E000BF91AF919F918F917F916F915F914F9128
:1028F0003F912F910F900BBE0F900FBE0F901F9026
:1029000018951F920F920FB60F9211240BB60F92CB
:102910002F933F934F935F936F937F938F939F93E7
:10292000AF93BF93EF93FF93CF93DF931F92CDB7F6
:10293000DEB7BE016F5F7F4F85E19CE20E94B2046B
:10294000882321F089818093A00805C0E0EAF8E09F
:1029500083818C7F83830F90DF91CF91FF91EF91E3
:10296000BF91AF919F918F917F916F915F914F91A7
:102970003F912F910F900BBE0F900FBE0F901F90A5
:1029800018958AE00E94D01D0C94EB1D89EB98E20B
:10299000CEDBA895089580915B2090915C200097F4
:1029A00029F0019780935B2090935C20EFCF8823E0
:1029B00011F00C94EB1D0C94E41D882319F0823067
:1029C00071F407C084E690E080935B2090935C20D4
:1029D000089584E690E080935D2090935E200895B2
:1029E0008FEF8093700080937100809372008093CA
:1029F00073008093740080937500809376008FB786
:102A0000F894E0E5F0E09081926090838FBF81813F
:102A100081FFFDCF61E080E490E0E2D08FB7F894D1
:102A2000E0E5F0E090819E7F90838FBF08959FB78F
:102A3000F894E82FF0E0E059FF4F6095808168231B
:102A400060839FBF08959FB7F894E82FF0E0E059A6
:102A5000FF4F8081682B60839FBF0895811592404E
:102A600059F480913B2C982F9F5F90933B2C8111C0
:102A700003C062E081E0DBCF08958115924051F4FC
:102A800080913B2C815080933B2C811103C062E0EC
:102A900081E0D9CF08951F93CF93DF93EC011FB747
:102AA000F894DCDF8881816088831FBF8FB7F8943A
:102AB000EEE7FCE290819F5F90838FBFDF91CF9123
:102AC0001F910895FF920F931F93CF93DF93EB0114
:102AD0008115924059F561E270E082E058D1182FDB
:102AE00060E270E082E053D1312F20E08901082BB1
:102AF000FFB6F89480E092E0B1DFE0E0F2E0208100
:102B0000217082E08083048715878C819D81808F6E
:102B1000918F898182838B8184838A818383888159
:102B20008183208380E092E0A8DFFFBEDF91CF9118
:102B30001F910F91FF900895FF920F931F93CF93D2
:102B4000DF93EC018B01FFB6F89488DF888D998DB7
:102B5000F801848395838A8181838C8183838B812F
:102B6000828389818083CE0188DFFFBEDF91CF9190
:102B70001F910F91FF900895FF920F931F93CF9392
:102B8000DF93EC018A01FFB6F89468DFF8018081D9
:102B900088A382818AA3818189A3CE016EDFFFBED3
:102BA000DF91CF911F910F91FF900895FF920F93A6
:102BB0001F93CF93DF93EC018A01FFB6F8944EDFA9
:102BC00088A1F80180838AA1828389A18183CE01B3
:102BD00054DFFFBEDF91CF911F910F91FF900895B9
:102BE0001BBEFC0128ED24BF60830895CF93DF93C3
:102BF0009C01862F972FE0ECF1E0A785AA23ECF348
:102C0000CCECD1E0688168606883305F622F732FFD
:102C10000E94FF248881877F8883DF91CF91089568
:102C2000E0ECF1E087858823ECF3E0ECF1E08785C8
:102C300081FF06C086E3828761E08BEC91E0D0CF14
:102C40000895EF92FF920F931F93CF93DF93F82E87
:102C5000E92E062FE0ECF1E01285E2DFE0ECF1E096
:102C600027852223ECF3C0ECD1E083E38A871A8224
:102C7000E982F8820C8385E38A8761E08BEC91E03E
:102C8000AFDF1A87DF91CF911F910F91FF90EF90E7
:102C90000895E0ECF1E0528527852223ECF3E0EC87
:102CA000F1E023E32287128211829C01205E3F4FD4
:102CB000FC01A0ECB1E04E2F481B4C9341911496BF
:102CC0004C931497E217F307B1F7E0ECF1E0528769
:102CD00008951F93CF93DF93E0ECF1E0978599235C
:102CE000ECF320E2829FC0011124C0ECD1E01A82F3
:102CF000998388831A8585E38A8761E08BEC91E06C
:102D00006FDF1A87DF91CF911F910895CF92DF92E5
:102D1000EF92FF920F931F93CF93DF93EC017B0110
:102D20008A014115510551F1CE018F719927892BE7
:102D3000B1F40032110598F0C701ABDFCE019695D2
:102D40008795929582958F7089279F708927C1DF1B
:102D5000A09680E2E80EF11C005211090CC06E0131
:102D6000EFEFCE1ADE0AF70161917F01CE0169DF34
:102D700001501109E60101151105B1F6DF91CF915E
:102D80001F910F91FF90EF90DF90CF9008954091A9
:102D9000CA01E62FF72F8093CA0184914093CA019C
:102DA00008951F920F920FB60F9211240BB60F9237
:102DB0002F933F934F935F936F937F938F939F9343
:102DC000AF93BF93EF93FF93E0913C2CF0913D2C98
:102DD000309709F00995FF91EF91BF91AF919F91C5
:102DE0008F917F916F915F914F913F912F910F90B4
:102DF0000BBE0F900FBE0F901F9018951F920F9251
:102E00000FB60F9211240BB60F922F933F934F934F
:102E10005F936F937F938F939F93AF93BF93EF9342
:102E2000FF93E0913E2CF0913F2C309709F00995EB
:102E3000FF91EF91BF91AF919F918F917F916F9192
:102E40005F914F913F912F910F900BBE0F900FBE4E
:102E50000F901F9018951F920F920FB60F9211248A
:102E60000BB60F922F933F934F935F936F937F9384
:102E70008F939F93AF93BF93EF93FF93E091402C79
:102E8000F091412C309709F00995FF91EF91BF9196
:102E9000AF919F918F917F916F915F914F913F91F2
:102EA0002F910F900BBE0F900FBE0F901F90189593
:102EB0001F920F920FB60F9211240BB60F922F9301
:102EC0003F934F935F936F937F938F939F93AF93B2
:102ED000BF93EF93FF93E091422CF091432C3097F6
:102EE00009F00995FF91EF91BF91AF919F918F915B
:102EF0007F916F915F914F913F912F910F900BBEFA
:102F00000F900FBE0F901F9018951F920F920FB643
:102F10000F9211240BB60F922F933F934F935F9311
:102F20006F937F938F939F93AF93BF93EF93FF9391
:102F3000E091442CF091452C309709F00995FF91D0
:102F4000EF91BF91AF919F918F917F916F915F9121
:102F50004F913F912F910F900BBE0F900FBE0F908E
:102F60001F9018951F920F920FB60F9211240BB657
:102F70000F922F933F934F935F936F937F938F9312
:102F80009F93AF93BF93EF93FF93E091462CF09103
:102F9000472C309709F00995FF91EF91BF91AF91C0
:102FA0009F918F917F916F915F914F913F912F9161
:102FB0000F900BBE0F900FBE0F901F9018951F9291
:102FC0000F920FB60F9211240BB60F922F933F93CF
:102FD0004F935F936F937F938F939F93AF93BF9321
:102FE000EF93FF93E091482CF091492C309709F032
:102FF0000995FF91EF91BF91AF919F918F917F9133
:103000006F915F914F913F912F910F900BBE0F9059
:103010000FBE0F901F9018951F920F920FB60F9230
:1030200011240BB60F922F933F934F935F936F939F
:103030007F938F939F93AF93BF93EF93FF93E09111
:103040004A2CF0914B2C309709F00995FF91EF91A4
:10305000BF91AF919F918F917F916F915F914F91B0
:103060003F912F910F900BBE0F900FBE0F901F90AE
:1030700018951F920F920FB60F9211240BB60F9254
:103080002F933F934F935F936F937F938F939F9370
:10309000AF93BF93EF93FF93E0914C2CF0914D2CA5
:1030A000309709F00995FF91EF91BF91AF919F91F2
:1030B0008F917F916F915F914F913F912F910F90E1
:1030C0000BBE0F900FBE0F901F9018951F920F927E
:1030D0000FB60F9211240BB60F922F933F934F937D
:1030E0005F936F937F938F939F93AF93BF93EF9370
:1030F000FF93E0914E2CF0914F2C309709F00995F9
:10310000FF91EF91BF91AF919F918F917F916F91BF
:103110005F914F913F912F910F900BBE0F900FBE7B
:103120000F901F9018951F920F920FB60F921124B7
:103130000BB60F922F933F934F935F936F937F93B1
:103140008F939F93AF93BF93EF93FF93E091502C96
:10315000F091512C309709F00995FF91EF91BF91B3
:10316000AF919F918F917F916F915F914F913F911F
:103170002F910F900BBE0F900FBE0F901F901895C0
:103180001F920F920FB60F9211240BB60F922F932E
:103190003F934F935F936F937F938F939F93AF93DF
:1031A000BF93EF93FF93E091522CF091532C309703
:1031B00009F00995FF91EF91BF91AF919F918F9188
:1031C0007F916F915F914F913F912F910F900BBE27
:1031D0000F900FBE0F901F9018951F920F920FB671
:1031E0000F9211240BB60F922F933F934F935F933F
:1031F0006F937F938F939F93AF93BF93EF93FF93BF
:10320000E091542CF091552C309709F00995FF91DD
:10321000EF91BF91AF919F918F917F916F915F914E
:103220004F913F912F910F900BBE0F900FBE0F90BB
:103230001F9018951F920F920FB60F9211240BB684
:103240000F922F933F934F935F936F937F938F933F
:103250009F93AF93BF93EF93FF93E091562CF09120
:10326000572C309709F00995FF91EF91BF91AF91DD
:103270009F918F917F916F915F914F913F912F918E
:103280000F900BBE0F900FBE0F901F9018951F92BE
:103290000F920FB60F9211240BB60F922F933F93FC
:1032A0004F935F936F937F938F939F93AF93BF934E
:1032B000EF93FF93E091582CF091592C309709F03F
:1032C0000995FF91EF91BF91AF919F918F917F9160
:1032D0006F915F914F913F912F910F900BBE0F9087
:1032E0000FBE0F901F9018951F920F920FB60F925E
:1032F00011240BB60F922F933F934F935F936F93CD
:103300007F938F939F93AF93BF93EF93FF93E0913E
:103310005A2CF0915B2C309709F00995FF91EF91B1
:10332000BF91AF919F918F917F916F915F914F91DD
:103330003F912F910F900BBE0F900FBE0F901F90DB
:1033400018951F920F920FB60F9211240BB60F9281
:103350002F933F934F935F936F937F938F939F939D
:10336000AF93BF93EF93FF93E0915C2CF0915D2CB2
:10337000309709F00995FF91EF91BF91AF919F911F
:103380008F917F916F915F914F913F912F910F900E
:103390000BBE0F900FBE0F901F9018951F920F92AB
:1033A0000FB60F9211240BB60F922F933F934F93AA
:1033B0005F936F937F938F939F93AF93BF93EF939D
:1033C000FF93E0915E2CF0915F2C309709F0099506
:1033D000FF91EF91BF91AF919F918F917F916F91ED
:1033E0005F914F913F912F910F900BBE0F900FBEA9
:1033F0000F901F9018951F920F920FB60F921124E5
:103400000BB60F922F933F934F935F936F937F93DE
:103410008F939F93AF93BF93EF93FF93E091602CB3
:10342000F091612C309709F00995FF91EF91BF91D0
:10343000AF919F918F917F916F915F914F913F914C
:103440002F910F900BBE0F900FBE0F901F901895ED
:103450001F920F920FB60F9211240BB60F922F935B
:103460003F934F935F936F937F938F939F93AF930C
:10347000BF93EF93FF93E091622CF091632C309710
:1034800009F00995FF91EF91BF91AF919F918F91B5
:103490007F916F915F914F913F912F910F900BBE54
:1034A0000F900FBE0F901F9018951F920F920FB69E
:1034B0000F9211240BB60F922F933F934F935F936C
:1034C0006F937F938F939F93AF93BF93EF93FF93EC
:1034D000E091642CF091652C309709F00995FF91EB
:1034E000EF91BF91AF919F918F917F916F915F917C
:1034F0004F913F912F910F900BBE0F900FBE0F90E9
:103500001F9018951F920F920FB60F9211240BB6B1
:103510000F922F933F934F935F936F937F938F936C
:103520009F93AF93BF93EF93FF93E091662CF0913D
:10353000672C309709F00995FF91EF91BF91AF91FA
:103540009F918F917F916F915F914F913F912F91BB
:103550000F900BBE0F900FBE0F901F9018951F92EB
:103560000F920FB60F9211240BB60F922F933F9329
:103570004F935F936F937F938F939F93AF93BF937B
:10358000EF93FF93E091682CF091692C309709F04C
:103590000995FF91EF91BF91AF919F918F917F918D
:1035A0006F915F914F913F912F910F900BBE0F90B4
:1035B0000FBE0F901F9018951F920F920FB60F928B
:1035C00011240BB60F922F933F934F935F936F93FA
:1035D0007F938F939F93AF93BF93EF93FF93E0916C
:1035E0006A2CF0916B2C309709F00995FF91EF91BF
:1035F000BF91AF919F918F917F916F915F914F910B
:103600003F912F910F900BBE0F900FBE0F901F9008
:1036100018951F920F920FB60F9211240BB60F92AE
:103620002F933F934F935F936F937F938F939F93CA
:10363000AF93BF93EF93FF93E0916C2CF0916D2CBF
:10364000309709F00995FF91EF91BF91AF919F914C
:103650008F917F916F915F914F913F912F910F903B
:103660000BBE0F900FBE0F901F9018951F920F92D8
:103670000FB60F9211240BB60F922F933F934F93D7
:103680005F936F937F938F939F93AF93BF93EF93CA
:10369000FF93E0916E2CF0916F2C309709F0099513
:1036A000FF91EF91BF91AF919F918F917F916F911A
:1036B0005F914F913F912F910F900BBE0F900FBED6
:1036C0000F901F9018951F920F920FB60F92112412
:1036D0000BB60F922F933F934F935F936F937F930C
:1036E0008F939F93AF93BF93EF93FF93E091702CD1
:1036F000F091712C309709F00995FF91EF91BF91EE
:10370000AF919F918F917F916F915F914F913F9179
:103710002F910F900BBE0F900FBE0F901F9018951A
:103720001F920F920FB60F9211240BB60F922F9388
:103730003F934F935F936F937F938F939F93AF9339
:10374000BF93EF93FF93E091722CF091732C30971D
:1037500009F00995FF91EF91BF91AF919F918F91E2
:103760007F916F915F914F913F912F910F900BBE81
:103770000F900FBE0F901F901895CF93CFB7F8946E
:10378000811528E0920739F461E083E050D964E0C4
:1037900083E04DD92DC0803428E0920739F462E0EF
:1037A00083E045D964E083E042D922C0811529E055
:1037B000920739F461E084E03AD964E084E037D9D3
:1037C00017C081152AE0920739F461E085E02FD90E
:1037D00064E085E02CD90CC081159B4039F461E090
:1037E00086E025D964E086E022D902C0CFBF09C0B7
:1037F0008FB7F894EEE7FCE290819F5F90838FBFD4
:10380000CFBFCF910895CF93CFB7F8942FB7F89447
:10381000EEE7FCE23081315030832FBF811528E084
:10382000920739F461E083E00ED964E083E00BD9BC
:103830002DC0803428E0920739F462E083E003D998
:1038400064E083E000D922C0811529E0920739F4B1
:1038500061E084E0F8D864E084E0F5D817C0811511
:103860002AE0920739F461E085E0EDD864E085E074
:10387000EAD80CC081159B4039F461E086E0E3D8BA
:1038800064E086E0E0D802C0CFBF01C0CFBFCF91D7
:103890000895811528E0920729F460933C2C7093D9
:1038A0003D2C0895803428E0920729F46093482C39
:1038B0007093492C0895811529E0920729F46093AB
:1038C000502C7093512C089581152AE0920729F409
:1038D00060935C2C70935D2C089581159B4021F4BE
:1038E0006093682C7093692C0895FC01818185FF99
:1038F000FDCF608380E090E008954F925F926F92D9
:103900007F928F929F92AF92BF92CF92DF92EF926F
:10391000FF920F931F93CF93DF93EC014A015B015A
:1039200028013901D901C801689412F8B695A79504
:10393000979587951694D1F7B901A801032E36E122
:1039400076956795579547953A95D1F7302D2C8107
:1039500022FD08C0B695A7959795879576956795AA
:103960005795479588159905AA05BB0508F4AAC07F
:1039700084169506A606B70608F4A6C08C8182FDBB
:1039800004C0880C991CAA1CBB1CC301B201A50170
:103990009401E6D72F3F31054105510508F496C043
:1039A000C12CD12C7601CA9419EF05C02C153D0508
:1039B0004E055F0568F0CC0CDD1CEE1CFF1C1D3FA6
:1039C00014F46894C0F81F5F173081F7212F52C09C
:1039D000212F11230CF04EC0D501C401880F991F6F
:1039E000AA1FBB1F880F991FAA1FBB1F880F991FF3
:1039F000AA1FBB1F481A590A6A0A7B0A1E3FECF429
:103A00006DEF7FEF611B710917FD739504C0440CC6
:103A1000551C661C771C6A95D2F7D501C401B69572
:103A2000A79597958795BC01CD01640D751D861DE1
:103A3000971DA501940194D73CC0212F332727FD62
:103A400030952D5F3F4FD501C40104C0880F991FE9
:103A5000AA1FBB1F2A95D2F79C01AD01B695A79569
:103A600097958795BC01CD01640D751D861D971D29
:103A700077D71FC0332727FD30952D5F3F4FD501E6
:103A8000C40104C0880F991FAA1FBB1F2A95D2F733
:103A90009C01AD01B695A79597958795BC01CD0181
:103AA000640D751D861D971D5BD721503109410995
:103AB0005109832F8F701295107F182B1F832E832F
:103AC00081E018C080E016C080E014C0D501C401B8
:103AD000880F991FAA1FBB1F880F991FAA1FBB1F02
:103AE000880F991FAA1FBB1F481A590A6A0A7B0A26
:103AF00019EF86CFDF91CF911F910F91FF90EF903B
:103B0000DF90CF90BF90AF909F908F907F906F90FD
:103B10005F904F9008950F931F93CF93DF93EC0125
:103B20008B01C03A88E0D80729F460E183E00E9465
:103B3000171511C0C03AE9E0DE0729F460E184E01E
:103B40000E94171508C0C03AFAE0DF0721F460E1CF
:103B500085E00E9417158D818F738D83F801948104
:103B60008581892B9681992311F098E001C090E01E
:103B7000892B8D83F801408151816281738100E03E
:103B800018E428EE31E0CE01B8DE9C8198609C8379
:103B90009C8190619C83DF91CF911F910F9108953B
:103BA0006091800024E0829FC00111248C739927CA
:103BB00062706160682B80E890E012D8E0E8F0E085
:103BC000828180FDFDCF0895609180006C7F6160EF
:103BD00080E890E005C8609180006C73636080E8C5
:103BE00090E00E94F015E0E8F0E0828180FDFDCFDA
:103BF0000895CF92DF92EF92FF92CF93DF93EC0183
:103C00006B01E12CF12C60E078E488EE91E0A701F3
:103C10009601A6D6CA01B9012FEF3FEF40E050E070
:103C20009FD62115310529F481E08C8321E030E015
:103C30002DC02230310528F482E08C8322E030E070
:103C400025C02430310528F483E08C8324E030E063
:103C50001DC02830310528F484E08C8328E030E052
:103C600015C02034310528F485E08C8320E430E051
:103C70000DC02F3F310509F028F486E08C8320E049
:103C800031E004C087E08C8320E034E040E050E085
:103C900060E078E488EE91E063D6CA01B901A7013B
:103CA00096015ED62D833E832436310518F41C829E
:103CB0001D821E82DF91CF91FF90EF90DF90CF9019
:103CC00008950F931F93CF93DF93EC018901623026
:103CD000D1F130F4662359F0613009F075C01DC090
:103CE000643009F446C0663009F06EC058C080E008
:103CF00098E088839983E0E4F6E05081242F30E057
:103D00002150310961E070E0CB0102C0880F991F9A
:103D10002A95E2F7852B808357C080E498E088835A
:103D20009983E0E4F6E05081242F30E02D5F3F4F8F
:103D300061E070E0CB0102C0880F991F2A95E2F77D
:103D4000852B808341C080E099E088839983E0E6F9
:103D5000F6E05081242F30E02150310961E070E01D
:103D6000CB0102C0880F991F2A95E2F7852B80832B
:103D70002BC080E09AE088839983E0E8F6E05081E8
:103D8000242F30E02150310961E070E0CB0102C006
:103D9000880F991F2A95E2F7852B808315C080E054
:103DA0009BE088839983E0EAF6E05081242F30E09D
:103DB0002150310961E070E0CB0102C0880F991FEA
:103DC0002A95E2F7852B80834A83423061F018F40C
:103DD000413089F405C0433049F0443061F409C0F2
:103DE00080E18B8308C080E28B8305C080E48B83F5
:103DF00002C080E88B8388819981BFDCE881F981EA
:103E00008181887F836081831D821E821C82E8817C
:103E1000F9818081807F8083B801CE01EADEDF9165
:103E2000CF911F910F910895CF93DF93EC01AD8156
:103E3000BE81262F30E0B6D524E630E040E050E0E9
:103E40008FD58A81E881F981E6FD17C0823061F063
:103E500018F48130E1F405C0833049F08430B9F4BE
:103E600009C020AF31AF13C022AF33AF10C024AFB1
:103E700035AF0DC026AF37AF0AC0813019F08230A0
:103E800031F403C020AF31AF02C022AF33AF8D8118
:103E90009E81E881F98186A397A38B81E881F981CE
:103EA000E6FD04C09181892B818304C091818073D8
:103EB000892B8183E881F9818081807F9C81892B96
:103EC0008083DF91CF910895CF93DF93CDB7DEB795
:103ED0002797CDBFDEBF87E0E6E6F0E2DE01119670
:103EE00001900D928A95E1F760E185E00E94171537
:103EF0008BEB98E20E9497100E94C614BE016F5F80
:103F00007F4F80EA9AE007DE882339F0EAEEF1E09D
:103F1000849190E00E94A51006C0E6EEF1E0849145
:103F200090E00E94A5102796CDBFDEBFDF91CF9114
:103F30000895CF93C82F682F62956F706A3028F06C
:103F4000695C80EA9AE0D1DC04C0605D80EA9AE0B6
:103F5000CCDCCF70CA3030F06C2F695C80EA9AE01C
:103F6000C4DC05C06C2F605D80EA9AE0BEDCCF91B6
:103F70000895E0E8F6E0208524FD25C020E4E0E691
:103F8000F6E025831816190604F5E0E8F6E020852A
:103F900024FB442740F924FF08C018C0208524FBD7
:103FA000442740F924FF03C011C0E0E8F6E0019780
:103FB00020E030E02F5F3F4F253D54E13507D1F73A
:103FC000009761F703C041E001C040E0842F0895ED
:103FD0008FEC98E20E94A51080E2E0E8F6E085838D
:103FE00085E593E2A8E0B0E00197A109B109E1F706
:103FF00081E0E0E8F6E0868380E89EE3BADF809324
:10400000742C0895CF93C82F88EE93E0B2DF8823F5
:1040100021F06C2F80EA9AE068DCCF910895CF936D
:10402000DF93EC018881882329F02196EBDF8991C9
:104030008111FCCFDF91CF910895CF93DF93EC01F5
:1040400088EE93E096DF882331F0CE01E8DF8DE043
:10405000D9DF8AE0D7DF80E0DF91CF91089581E555
:1040600099E20E94A510A89580ED97E082DF88ED87
:1040700098E2E3DFA89580ED97E07BDF84EE98E29D
:10408000DCDF8AEE98E2D9DF83EF98E20E94A51088
:10409000A8958DEF98E2D1DF84E099E2CEDFA89574
:1040A00085E591E6A1E5B0E00197A109B109E1F745
:1040B0008AE099E2C2DFA89585E591E6A1E5B0E046
:1040C0000197A109B109E1F781E199E2B6DFA8956D
:1040D00088EE93E04EDF8DE199E2AFDFA89588EEA0
:1040E00093E047DFA8958CE299E2A7DF88EC91E0A6
:1040F000A4DF8EE399E2A1DF80E599E20C94A5109C
:104100008DE599E20E94A51080ED97E032DF88ED01
:1041100098E293DF80ED97E02CDF87E699E28DDF70
:104120008DE699E28ADFE0E8F6E081E0858380E2CF
:104130008683089583E799E20E94A51088ED98E2AE
:104140007CDF84EE98E279DF8AEE98E276DF83EF17
:1041500098E20E94A510A89580E49FE10ADF88ED0F
:1041600098E26BCF83E899E268CF8DE999E265CF59
:104170008AEA99E262CF87EB99E25FCF0E94BD1392
:104180000E94481380917B2C90917C2C0196883E54
:1041900023E0920728F480937B2C90937C2C089545
:1041A00010927B2C10927C2C0C94CB1480910D2DB2
:1041B000823009F455C030F4882371F1813009F060
:1041C00062C019C0843021F0873009F05CC035C06E
:1041D00082E69DE08093752C9093762C80E990E1A7
:1041E0008093772C9093782C86E19FE08093792CB4
:1041F00090937A2C089586E294E08093752C9093A6
:10420000762C8CE294E08093772C9093782C10920B
:10421000792C10927A2C08958EE69CE08093752C70
:104220009093762C80E69DE08093772C9093782C69
:104230001092792C10927A2C08958BE29AE0809358
:10424000752C9093762C89E19CE08093772C909349
:10425000782C84E89BE08093792C90937A2C0895B5
:1042600085EE97E08093752C9093762C86ED99E0FF
:104270008093772C9093782C81E499E08093792C2B
:1042800090937A2C08951092752C1092762C10929F
:10429000772C1092782C1092792C10927A2C089509
:1042A0009FB7F89484E08093AA062FB7F894809380
:1042B000B000E0EAF6E08089887F808B80898160A9
:1042C000808B2FBF82E08093A9069FBF0895CF9374
:1042D000DF93CDB7DEB7C855D109CDBFDEBF109291
:1042E0000C2D0E94F0140E946F0180E090E0019676
:1042F0008A3228E69207D9F76BDEE6DD0E94DD10F0
:1043000081110E94341180910D2DA0E18A9FC0017E
:1043100011248857934DA3DE0E94C1148EEB90E2C6
:104320000E94C3130E94AA100E94ED130E941B0159
:104330000E946B01809138200E943D0180934220B1
:104340009093432080933A2090933B2080933E208B
:1043500090933F20809139200E943D01809344201A
:104360009093452080933C2090933D208093402063
:1043700090934120809146200E943D0180935020DF
:1043800090935120809348209093492080934C2013
:1043900090934D20809147200E943D0180935220B0
:1043A0009093532080934A2090934B2080934E20EB
:1043B00090934F2010927D2C10927E2C10927F2C87
:1043C0001092802C1092812C81E08093822C0E948C
:1043D000B51366DF8091082D881F8827881F90916C
:1043E000092D9F73990F982B81E009F480E00E94BA
:1043F000BF1180930B2D0E94A0070E944507D6DEB7
:104400008091092D829586958695837090910A2DCD
:10441000990F990F982B81E009F480E00E94CB114D
:1044200081E39AE20E943E1484EC99E20E943E14D9
:104430008EEC99E20E943E1484EC99E20E943E14B4
:1044400081E39AE20E94A51084EC99E20E94A510F3
:104450008EEC99E20E94A51084EC99E20E94A510CE
:104460004091862C6091872C8091852C0E94281386
:10447000A895E091752CF091762C309721F08DE085
:104480009DE2099504C087EE99E20E94A51052DED4
:1044900041E050E060E070E0CE0101960E945F13C1
:1044A0000E94C61445E050E060E070E0CE0109963D
:1044B0000E945F130E94C61448EE53E060E070E073
:1044C000CE0149960E945F130E94C61448EE53E045
:1044D00060E070E0CE0181960E945F130E94C614D6
:1044E00040EE53E964E070E0CE0189960E945F13CC
:1044F0000E94C614CE0141960E94AF1385E09AE255
:104500000E94A510A12CEFEEF1E0B4900F2EF2E284
:10451000EF2EF0E2FF2EF02DCE0101960E947813CF
:1045200081111CC0CE0109960E947813811116C01A
:10453000CE0181960E947813811110C0E8E4F0E06A
:104540008081817F8B2980838081816080837894C2
:104550008895E8E4F0E080818E7F80830E94C61415
:1045600080E00E94DD1488E19AE20E94A510CE014D
:1045700081960E9478138823D9F048EE53E060E0DA
:1045800070E0CE0181960E945F1390910C2D81E026
:10459000892780930C2D882319F00E94D60208C029
:1045A0004091862C6091872C8091852C0E94281345
:1045B0008BE19AE20E94A510CE0101960E94781329
:1045C000882309F4B2C041E050E060E070E0CE0121
:1045D00001960E945F1302E010E20F2EF1E0CF2E51
:1045E000F0E2DF2EF02D712CF801808181110EC0D8
:1045F000872D0E94EE03882329F0D6018C918F5FCE
:104600008C9310C0F8018081882351F0872D0E947F
:10461000EE03811105C0D6018C918F5F8C9302C08F
:10462000F601108273940C5F1F4FF4E0CF0ED11C83
:104630002EE07212D9CFCC24C394D12C9924939418
:1046400002C0D394C3940D2D10E0F801EE0FFF1FAC
:10465000EE0FFF1FE050F04E8181843008F449C016
:10466000F801EE0FFF1FEE0FFF1FE050F04E11821A
:104670008281811109C0F801EE0FFF1FEE0FFF1FAD
:10468000E050F04E928208C0F801EE0FFF1FEE0FCF
:10469000FF1FE050F04E12828091772C9091782C81
:1046A000892BB9F040EE53E964E070E0CE018996C1
:1046B0000E945F13D801AA0FBB1FAA0FBB1FA050F7
:1046C000B04EE091772CF091782C12966C918D2D54
:1046D000099588E0D8120DC0D7018C91813009F07E
:1046E000B0CFE091772CF091782C60E088E00995CC
:1046F000A8CFBDE0BC1508F0A4CFA110DCC0F70125
:104700008081882391F02091842C30E0A2E3B0E0F6
:1047100049D1AB01BC01CE0141960E945F13CBC0D1
:10472000CE0141960E94AF13A12C8EE19AE20E9425
:10473000A510CE0109960E9478138823D9F145E08F
:1047400050E060E070E0CE0109960E945F1309E33B
:1047500010E2D12CD80119968D919C911A9715963B
:104760008D939C931697F801319780810E943D01AB
:10477000F80181879287238534852783308780815C
:104780000E943D01D8011B968D939C931C97E0914C
:10479000792CF0917A2C309739F019966D917C91A3
:1047A0001A97AC018D2D0995D394025F1F4FB2E08B
:1047B000DB12D0CFCE0141960E947813811106C042
:1047C000CE0189960E9478138823E1F0CE014196AC
:1047D0000E94AF13CE0189960E94AF1340E060E0C3
:1047E00080E00E9428138091082D881F8827881F49
:1047F0009091092D9F73990F982B81E009F480E027
:104800000E946711CE0149960E947813882309F40B
:104810004BC048EE53E060E070E0CE0149960E9444
:104820005F130F2EF2E4CF2EF0E2DF2EF02D00E02A
:1048300010E081E29AE20E9497104AE050E0BE0147
:104840006F5C7F4FC801EDD0CE01C1960E949710DA
:104850008BE29AE20E9497104AE050E0BE016F5C42
:104860007F4FF60180819181DCD0CE01C1960E94FC
:1048700097108FE29AE20E9497104AE050E0BE0142
:104880006F5C7F4FD60112968D919C911397C9D082
:10489000CE01C1960E94A5100F5F1F4FBEE0CB0E48
:1048A000D11C0230110529F682E39AE20E94A5107C
:1048B0000E94AE0631CEF7018081882309F430CF03
:1048C000AA24A39432CF1F920F920FB60F921124F5
:1048D0000BB60F922F933F934F935F936F937F93FA
:1048E0008F939F93AF93BF93EF93FF939FB7F894EA
:1048F0008091AC0680FF03C081E08093AC0680917C
:104900000B2D811106C061E089E790E00E94F0154F
:10491000FFCF9FBFFF91EF91BF91AF919F918F917B
:104920007F916F915F914F913F912F910F900BBEAF
:104930000F900FBE0F901F90189597FB072E16F43F
:10494000009406D077FD08D039D007FC05D03EF49E
:10495000909581959F4F0895709561957F4F08952B
:10496000A1E21A2EAA1BBB1BFD010DC0AA1FBB1F73
:10497000EE1FFF1FA217B307E407F50720F0A21BE5
:10498000B30BE40BF50B661F771F881F991F1A9452
:1049900069F760957095809590959B01AC01BD017C
:1049A000CF010895A29FB001B39FC001A39F01D082
:1049B000B29F700D811D1124911D0895AA1BBB1B70
:1049C00051E107C0AA1FBB1FA617B70710F0A61B0F
:1049D000B70B881F991F5A95A9F780959095BC0130
:1049E000CD010895FC014150504030F00190061671
:1049F000D1F73197CF010895882799270895FB01B2
:104A0000DC0102C001900D9241505040D8F708954A
:104A1000FB01DC018D91019080190110D9F3990BF4
:104A20000895FB019F01E8944230BCF04532ACF49C
:104A30004A3029F497FB1EF4909581959F4F642F7F
:104A40007727BCDF805D8A330CF0895D8193CB01D1
:104A50000097A9F716F45DE251931082C90100C0D6
:104A6000DC01FC01672F71917723E1F7329704C0D5
:104A70007C916D9370836291AE17BF07C8F3089560
:044A8000F894FFCFD8
:104A8400090000000D0000000B0000000100000000
:104A9400050000000A0000000400000007000000F8
:104AA4002A0000012D0000002F0000002E0000004D
:104AB4000C000000020000000806000000000000D6
:104AC4000000000000000F0E0000000000000000C5
:104AD4000000000000C201000300000F000F0000EE
:104AE400C2010003000000C2010003000042433A77
:104AF4004B523D41312C30312C30302C004F4B0087
:104B04004E4F005553423A72637600436F6D6D61A8
:104B14006E64206D6174636820004E6F20636F6D56
:104B24006D616E64206D61746368696E6720005204
:104B34004700414700574700534700524300414351
:104B440000574300534300525300AF208505B22061
:104B54009F06B5206206B8207E05BB201F06BE2036
:104B64001006C120D305C420C005C72070054249E2
:104B74004F53004C6F6164696E6720636F6E6669A2
:104B84006775726174696F6E20002C2058313D0086
:104B94002C2059313D002C2058323D002C20593214
:104BA4003D0042433A4B523D41312C30342C006A93
:104BB400537469636B496E6974005363616E636F08
:104BC4006465733A200042433A4B523D41312C30E4
:104BD400332C000200000000000000000000000070
:104BE40000000000000000000000000000000000C1
:104BF40000000000000000000000000000000000B1
:104C040000000000000000000000000000000000A0
:104C14000000000000000000000000000000000090
:104C24000000000000000000000000000000000080
:104C34000000000000000000000000000000000070
:104C44000000000000000000000000000000000060
:104C54000000000000000000000000000000000050
:104C640000000000C800C8000000000000000000B0
:104C740000000000000000000000C800C80032016D
:104C8400010144726F6E65204B6579626F617264D5
:104C9400000044726F6E6520694F530000000000ED
:104CA400000044726F6E652047616D655061640059
:104CB400000044726F6E65204B6579204D6F7573EB
:104CC400650044726F6E652053657269616C000003
:104CD400000044726F6E65204A6F79737469636B68
:104CE40000000000000000000000000000000000C0
:104CF40000000000000000000000000000000000B0
:104D040000009040000040000000001A0000004035
:104D14000000000016000000400000000004000035
:104D24000040000000000700000040000000001EDA
:104D340000000040000000001F00000040000000D0
:104D4400002000000040000000002100000040009E
:104D540000000028000000400000000029000000BE
:104D64004000000000240000004000000000220079
:104D7400000040000000002500000040000000008A
:104D8400230000004000001A001600040007D007AA
:104D9400AC0DD007AC0D5E015E014000000C000EAE
:104DA400000D000FD007A00FD007A00F5E015E0119
:104DB4000040000000001A0000004000000000163F
:104DC400000000400000000004000000400000005B
:104DD400000700000040000000000B00000040003D
:104DE4000000000A0000004000000000090000006C
:104DF4004000000000080000004000000000060021
:104E0400000040000000000400000040000000001A
:104E14001500000040000000000500000000000034
:104E2400000000000000000000000000000000007E
:104E3400000000000000000000000000000000006E
:104E4400000000000000000000000000000000005E
:104E54000000000000000000000000010000000845
:104E6400001A0000000000001D001B0000000000EC
:104E74000014000400000000000006000700000009
:104E840000000019000F0000000000000A001200DA
:104E9400000000000013000E0000000000001000DD
:104EA4000C000000000000090018000000000000D1
:104EB40017001C00000000000011000D000000009D
:104EC400000015000B0000000000000000000000BE
:104ED40000000000000000000000000000000000CE
:104EE40000000000000000000000000000000000BE
:104EF40000000000000000000000000000000000AE
:104F04000000000000000040000000001A00000043
:104F140040000000001600000040000000000400F3
:104F240000004000000000070000004000000000F6
:104F34000D00000040000000000E000000400000D2
:104F440000001000000040000000000C00000040C1
:104F5400000000001C0000004000000000150000DC
:104F64000040000000001300000040000000001496
:104F7400000000000000000000000000000000002D
:104F8400000000000000000000000000000000001D
:104F9400000000000000000000000000000000000D
:104FA40000000000000000000000000000000000FD
:104FB400000100000008001A0000000000001D00AD
:104FC4001B000000000000140004000000000000AA
:104FD40006000700000000000015000B00000000A0
:104FE400000011000D00000000000017001C00006C
:104FF400000000000900180000000000000A001270
:1050040000000000000019000F0000000000001361
:10501400000E00000000000010000C000000000062
:105024000013000E00000000000010000C0000003F
:10503400000000000000000000000000000000006C
:10504400000000000000000000000000000000005C
:105054000000000000000000000000000700000045
:10506400000000000000000000000000000000003C
:10507400000000000000000000000000000000002C
:10508400000000000000000000000000000000001C
:10509400000000000000000000000000000000000C
:1050A40000000000000000000000000000000000FC
:1050B40000000000000000000000000000000000EC
:1050C40000000000000000000000000000000000DC
:1050D40000000000000000000000000000000000CC
:1050E40000000000000000000000000000C800C82C
:1050F40000000000000000000000000000000000AC
:10510400000000C800C8000040000000001A0000B1
:1051140000400000000016000000400000000004F1
:1051240000000040000000000700000040000000F4
:10513400001000000040000000000E0000004000CD
:105144000000000D00000040000000000C00000002
:1051540040000000001C000000400000000015009A
:1051640000004000000000130000004000000000A8
:105174001400000040000000001300000040000084
:105184000000140000004000001A0016000400078C
:10519400D007AC0DD007AC0D5E015E014000001AD3
:1051A400001600040007D007A00FD007A00F5E016F
:1051B4005E010440000000001A00000040000000EE
:1051C4000016000000400000000004000000400041
:1051D4000000000700000040000000001000000074
:1051E40040000000000E00000040000000000D0020
:1051F400000040000000000C00000040000000001F
:105204001C000000400000000015000000400000E9
:1052140000001300000040000000001400000040E3
:105224000000000013000000400000000014000013
:105234000000000000000000000000D007AC0DD00A
:1052440007AC0DC201C20100000000000000000014
:1052540000D007AC0DD007AC0DC201C201010000A3
:105264000008001A0000000000001D001B000000E0
:105274000000001400040000000000000600070005
:10528400000000000015000B0000000000001100E9
:105294000D00000000000017001C000000000000CA
:1052A4000900180000000000000A001200000000BD
:1052B400000019000F00000000000013000E0000A1
:1052C4000000000010000C000000000000000000BE
:1052D40000000000000000000000000000000000CA
:1052E40000000000000000000000000000000000BA
:1052F40000000000000000000000000000000000AA
:10530400000000000000000042433A50433D3038A2
:105314002C30310042433A50433D30392C30300078
:10532400555342205541525420494E49543A200085
:10533400474F4F4400424144002E004254205541FF
:105344005254204641535420494E49543A20007443
:1053540075726E42544F6E0042433A42503D3030B3
:105364002C30300042433A43490042433A4D443DD5
:10537400303100446973636F766572790042433A51
:10538400534D3D0044726F6E650042433A4E4D3DAD
:105394000042433A44423D30302C30300042433ADC
:1053A40050463D30302C30312C30300042433A46A8
:1053B400543D46462C30302C46462C304100424366
:1053C4003A46543D30302C30302C46462C30410087
:1053D4002F696E69744254436F6D6D7300747572F6
:1053E4006E42544F66660042433A44490042433A8F
:1053F4004443006170706C79425453657474696EEF
:1054040067730042433A43443D3030303534300012
:1054140042433A43443D3030303538300042433A19
:1054240043443D3030303543300042433A43443DF9
:105434003030303543380042433A43443D30303015
:10544400354334002B3D3D3D3D3D3D3D2B007C200F
:1054540044524F4E45207C2056657273696F6E200E
:105464003078303030330021627574746F6E5F6849
:10547400616E646C65725F696E6974203D3D206E77
:10548400756C6C2100456E746572696E67204D61A0
:10549400696E206C6F6F700077310077320077335C
:1054A400004A6F79737469636B2000203A20002CE2
:0654B40020007735000026
:00000001FF
